S0140000514D5361745F456D62656465642E73333715
S113000000000220AD010000D9010000D901000068
S1130010D9010000D9010000D9010000D901000074
S1130020D9010000D9010000D9010000D901000064
S1130030D9010000D9010000D9010000D901000054
S1130040D9010000D9010000B9180000D90100004D
S1130050D9010000D9010000D9010000D901000034
S1130060D9010000D9010000D9010000D901000024
S1130070D9010000D9010000D9010000751A00005F
S11300807D1B0000D9010000D9010000D901000046
S1130090D9010000D9010000D9010000D9010000F4
S11300A0D9010000D9010000D9010000D9010000E4
S11300B0D9010000D9010000D9010000D9010000D4
S11300C0D9010000D9010000D9010000D9010000C4
S11300D0D9010000D9010000D901000010B5054C78
S11300E0237833B9044B13B10448AFF300800123E0
S11300F0237010BD900000200000000064F8000090
S1130100084B10B51BB108480849AFF300800848F4
S1130110036803B910BD074B002BFBD0BDE81040AA
S1130120184700BF0000000064F80000940000209D
S11301308C00002000000000154B002B08BF134B5F
S11301409D46A3F5803A00218B460F461348144A76
S1130150121A0DF03EF90F4B002B00D098470E4BAE
S1130160002B00D098470020002104000D000D480A
S1130170002802D00C48AFF300800DF0E1F8200015
S1130180290000F091FF0DF069F800BF000008009D
S11301900000022000000000000000009000002089
S11301A0E400002000000000000000000648804732
S11301B00649074A074B9A42BEBF51F8040B42F85E
S11301C0040BF8E7FFF7B8FF5903000004FC000034
S11301D00000002090000020FEE700BF80B400AFC4
S11301E0044BDB6C1B0EDBB21846BD465DF8047B8A
S11301F0704700BFB081E00F80B582B000AF00F05F
S11302001FF87860074B5B6803F00F031A467B689E
S1130210D3407B60044A7B6813607B6818460837C8
S1130220BD4680BD00800C400800002080B400AFB3
S1130230024B1846BD465DF8047B7047006CDC0237
S113024080B582B000AF334BDB6A03F47053B3F56F
S1130250805F0AD0B3F5005F03D0B3F5006F08D018
S11302600BE02D4B1B687B6047E04FF400437B6041
S113027043E02A4B1B687B603FE0264BDB6803F4BA
S1130280E063B3F5007F1BD0B3F5007F05D8002BE6
S113029024D0B3F5807F16D02BE0B3F5806F09D05E
S11302A0B3F5A06F03D0B3F5407F06D021E01C4B1B
S11302B07B6021E01B4B7B601EE01B4B7B601BE0E3
S11302C01A4B7B6018E0FFF789FF0346122B02D913
S11302D0174B7B6010E0174B7B600DE0FFF77EFF50
S11302E00346122B02D9144B7B6005E0134B7B6051
S11302F002E000237B6000BF00BF064B1B6803F4D1
S1130300E0339B0B01337A68B2FBF3F318460837EA
S1130310BD4680BD00800C40040000200000002089
S1130320003FAB01406F4001809FD500C0D8A700BB
S113033040B56400C0CF6A00804F120040420F00F5
S113034080B400AF034B1B681846BD465DF8047BC0
S1130350704700BF0000002080B400AFBD465DF8C8
S1130360047B704780B400AF4FF400431846BD4689
S11303705DF8047B704700BF80B400AF4FF47A731C
S11303801846BD465DF8047B704700BF80B400AFDB
S1130390034B1B681846BD465DF8047B704700BFDD
S11303A00400002080B582B000AF78607B68064A04
S11303B01A600023002B02D0786803F087FD7B6865
S11303C018460837BD4680BD98E4000080B582B069
S11303D000AF78607868FFF7E5FF786803F076FD92
S11303E07B6818460837BD4680BD00BF80B483B023
S11303F000AF78607B68044A1A607B6818460C3743
S1130400BD465DF8047B704778E4000080B582B097
S113041000AF78607B68064A1A600023002B02D084
S1130420786803F053FD7B6818460837BD4680BDE5
S113043078E4000080B582B000AF78607868FFF798
S1130440E5FF786803F042FD7B6818460837BD462F
S113045080BD00BF80B483B000AF78607B68044A7D
S11304601A607B6818460C37BD465DF8047B7047FC
S113047060E4000080B582B000AF78607B68064A13
S11304801A600023002B02D0786803F01FFD7B68FC
S113049018460837BD4680BD60E4000080B582B0D0
S11304A000AF78607868FFF7E5FF786803F00EFD29
S11304B07B6818460837BD4680BD00BF80B582B052
S11304C000AF78607B68084A1A607B681846FFF7BB
S11304D069FF0023002B02D0786803F0F7FC7B68E7
S11304E018460837BD4680BD40E5000080B582B09F
S11304F000AF78607868FFF7E1FF786803F0E6FC06
S11305007B6818460837BD4680BD00BF80B582B001
S113051000AF78607B68084A1A607B681846FFF76A
S113052041FF0023002B02D0786803F0CFFC7B68E6
S113053018460837BD4680BDA8E5000080B582B0E6
S113054000AF78607868FFF7E1FF786803F0BEFCDD
S11305507B6818460837BD4680BD00BF80B582B0B1
S113056000AF78607B68064A1A600023002B02D033
S1130570786803F0ABFC7B6818460837BD4680BD3D
S113058040E4000080B582B000AF78607868FFF77F
S1130590E5FF786803F09AFC7B6818460837BD4687
S11305A080BD00BF80B582B000AF78607B6818461C
S11305B0FFF71CFF7B68034A1A607B6818460837FC
S11305C0BD4680BD90E6000080B582B000AF786083
S11305D07B68084A1A607B681846FFF717FF0023F8
S11305E0002B02D0786803F071FC7B68184608374A
S11305F0BD4680BD90E6000080B582B000AF786053
S11306007868FFF7E1FF786803F060FC7B681846C0
S11306100837BD4680BD00BF80B483B000AF7860AA
S11306207B68044A1A607B6818460C37BD465DF83F
S1130630047B704728E4000080B582B000AF786086
S11306407B68064A1A600023002B02D0786803F006
S11306503DFC7B6818460837BD4680BD28E4000091
S113066080B582B000AF78607868FFF7E5FF7868FE
S113067003F02CFC7B6818460837BD4680BD00BFDC
S113068080B582B000AF78607B681846FFF7C4FF7E
S11306907B68034A1A607B6818460837BD4680BDEC
S11306A020E6000080B582B000AF78607B68084A1D
S11306B01A607B681846FFF7BFFF0023002B02D0A7
S11306C0786803F003FC7B6818460837BD4680BD94
S11306D020E6000080B582B000AF78607868FFF74C
S11306E0E1FF786803F0F2FB7B6818460837BD46E3
S11306F080BD00BF80B582B000AF78607B68084AD7
S11307001A607B681846FFF729FF0023002B02D0EC
S1130710786803F0DBFB7B6818460837BD4680BD6C
S1130720E0E5000080B582B000AF78607868FFF73C
S1130730E1FF786803F0CAFB7B6818460837BD46BA
S113074080BD00BF80B582B000AF78607B6818467A
S1130750FFF780FE7B68034A1A607B6818460837F7
S1130760BD4680BD58E6000080B582B000AF786019
S11307707B68084A1A607B681846FFF77BFE0023F3
S1130780002B02D0786803F0A1FB7B681846083779
S1130790BD4680BD58E6000080B582B000AF7860E9
S11307A07868FFF7E1FF786803F090FB7B681846F0
S11307B00837BD4680BD00BF80B483B000AF786009
S11307C07B6818460C37BD465DF8047B704700BF54
S11307D080B483B000AF78607B6818460C37BD46A0
S11307E05DF8047B704700BF80B582B000AF7860CD
S11307F07B680433184600F011FB7B683C331846D1
S113080000F024FA7B684C33184600F095FA7B68B4
S113081058331846FFF734FF7B6864331846FFF7F4
S1130820C1FE7B6874331846FFF78CFF7B68E9339D
S11308301846FFF7C1FF7B68EC33184600F0D8FD7B
S11308407B68FC33184600F0D3FD7B6800221A70E5
S11308507B68002283F838207B68002283F86020BC
S11308607B68002283F870207B68002283F8E820EC
S11308707B68002283F8EA207B68002283F80C213D
S11308807B6826E07B68EC331846FFF733FFFFE70D
S11308907B68E9331846FFF79BFF7B68743318467F
S11308A0FFF762FF7B6864331846FFF78DFE7B68B1
S11308B058331846FFF7F6FE7B684C331846FFF7AB
S11308C025FEFFE77B683C331846FFF7F7FD03F08E
S11308D04BFE18460837BD4680BD00BFF0B591B049
S11308E000AF7860786800F075F87B681B7883F057
S11308F00103DBB2002B26D07B683C3307F10C02EA
S11309001046194600F0A2FA7B6807F10C0403F1C3
S1130910040E04F1300C754626460FCE286069603B
S1130920AA60EB6010340EF1100E6445F3D17246E8
S113093023461B8813807B681A1D7B684C33104642
S1130940194600F0F3FA7B68043318464437BD4671
S1130950F0BD00BF80B483B000AF786039607B68BD
S113096018460C37BD465DF8047B704780B582B0ED
S113097000AF786039607A683B6810461946FFF723
S1130980E9FF3B689A887B689A803B689A687B6831
S11309909A603B68DA687B68DA607B6818460837D7
S11309A0BD4680BD80B582B000AF786039607A689A
S11309B03B6810461946FFF7CDFF3B689A887B6871
S11309C09A803B689A687B689A607B681846083707
S11309D0BD4680BD90B58BB000AF7860786800F0FC
S11309E0A5F8786800F040F87B6893F8383083F015
S11309F00103DBB2002B33D07B6803F13C047B683A
S1130A0003F164027B68743307F10C010846114654
S1130A101A4600F031F907F10C0320461946FFF796
S1130A20A5FF07F10C031846FFF748FD7B6803F1A7
S1130A304C047B68743307F11C021046194600F01D
S1130A4091F907F11C0320461946FFF7ABFF07F1A4
S1130A501C031846FFF75AFD7B68012283F83820EF
S1130A602C37BD4690BD00BF80B483B000AF786022
S1130A700C37BD465DF8047B704700BF80B483B07B
S1130A8000AF786039607B6818460C37BD465DF866
S1130A90047B7047F0B583B000AF786039607A6842
S1130AA03B6810461946FFF7E9FF3B685A687B68C4
S1130AB05A603B681A7A7B681A723B685A7A7B6878
S1130AC05A723B685A897B685A813B689A897B6869
S1130AD09A817A683B680E3302F10E0003F1300408
S1130AE002461946D1F800E04E688D68C968C2F81C
S1130AF000E056609560D16010331030A342EFD10E
S1130B0002461B8813807A683B6802F1400403F1B3
S1130B1040050FCD0FC40FCD0FC40FCD0FC42B68EC
S1130B2023807B6818460C37BD46F0BD90B5A1B054
S1130B3000AF78607B6893F8E83083F00103DBB2A0
S1130B40002B21D07B6803F1740407F10C031846D1
S1130B504FF416510122002300F0F4FE07F10C03B8
S1130B6020461946FFF796FF07F10C031846FFF7D6
S1130B70FBFD7B687433064806491A4601F04CF8BD
S1130B807B68012283F8E8208437BD4690BD00BF0E
S1130B90011B00003D1A000080B483B000AF7860F0
S1130BA039607B6818460C37BD465DF8047B704796
S1130BB080B582B000AF786039607A683B681046CF
S1130BC01946FFF7E9FF3B685A687B685A607B68FF
S1130BD018460837BD4680BD90B585B000AF786033
S1130BE07B6893F8603083F00103DBB2002B17D0ED
S1130BF07B6803F1580407F108031846642100F0E8
S1130C00F1FD07F1080320461946FFF7D1FF07F16C
S1130C1008031846FFF746FD7B68012283F860202D
S1130C207B68583318461437BD4690BD80B483B0F2
S1130C3000AF78607B68044A1A607B6818460C37FA
S1130C40BD465DF8047B704798E4000080B582B02F
S1130C5000AF78607B681846FFF7E8FF7B68054AB9
S1130C601A607B6800229A807B6818460837BD4664
S1130C7080BD00BF40E5000080B584B000AFF860DF
S1130C80B9607A60FB681846FFF7D0FFFB68084A32
S1130C901A60FB68BA689A60FB687A68DA60FB6875
S1130CA000229A80FB6818461037BD4680BD00BFFD
S1130CB040E5000080B483B000AF78607B689B8817
S1130CC01BB218460C37BD465DF8047B704700BF65
S1130CD080B582B000AF78607B68DB681B681B68F6
S1130CE07A68D26810460349152298470837BD46EA
S1130CF080BD00BF08E5000080B582B000AF786019
S1130D007B68DB681B681B687A68D26810460449F4
S1130D101622984701231BB218460837BD4680BDEA
S1130D2020E5000080B483B000AF78600C37BD4686
S1130D305DF8047B704700BF80B582B000AF786077
S1130D407B681846FFF772FF7B68054A1A607B6868
S1130D5001229A807B6818460837BD4680BD00BFD3
S1130D60A8E5000080B582B000AF786039607B6888
S1130D701846FFF75BFF7B68064A1A607B6801220E
S1130D809A807B683A689A607B6818460837BD4643
S1130D9080BD00BFA8E5000080B483B000AF7860D8
S1130DA07B689B881BB218460C37BD465DF8047BF4
S1130DB0704700BF80B582B000AF78607B689B68E5
S1130DC01B681B687A689268104603491422984786
S1130DD00837BD4680BD00BF70E5000080B582B015
S1130DE000AF78607B689B681B681B687A689268B0
S1130DF0104604491522984700231BB218460837A9
S1130E00BD4680BD88E5000080B483B000AF786043
S1130E100C37BD465DF8047B704700BF80B483B0D7
S1130E2000AF78607B6800229A857B6800229A6212
S1130E307B680022DA857B6800221A867B68184664
S1130E400C37BD465DF8047B704700BF80B582B0A7
S1130E5000AF786039607B6800229A857B683A68C5
S1130E609A627B684FF6FF72DA853B681B68083329
S1130E701B683868984703461A4692B27B681A86FC
S1130E807868396800F052F87B6818460837BD4620
S1130E9080BD00BF80B582B000AF78607B68DA8D1A
S1130EA07B681B8E12B21BB29A4217D07B689B6A76
S1130EB01B680C331B687A68926A104698477B68F3
S1130EC09B6A1B6808331B687A68926A10469847C5
S1130ED003461A4692B27B68DA850DE07B689B6A0A
S1130EE01B6814331B687A68926A10469847034655
S1130EF01A4692B27B681A867B68DA8D7B681B8EF1
S1130F0012B21BB29A420ED07B689B6A1B681033E4
S1130F101B687A68926A10469847786800F020F84F
S1130F2002467B689A620837BD4680BD80B483B0B0
S1130F3000AF786039607B689B8D1AB27B68396832
S1130F4043F822107B689B8D9BB29BB201339BB20A
S1130F509AB27B689A850C37BD465DF8047B70476E
S1130F6080B584B000AF78600023FB8122E0FA8969
S1130F707B6853F822301B6808331B68F9897A6848
S1130F8052F821201046984703461A4692B27B68CD
S1130F901B8E12B21BB29A420CBF01230023DBB298
S1130FA0002B04D0FA897B6853F822300EE0FB89C9
S1130FB00133FB81FA897B689B8D1BB29A42D6DB95
S1130FC07B68DB8D1AB27B6853F8223018461037E1
S1130FD0BD4680BD80B400AF044BDB6C1B0EDBB29E
S1130FE01846BD465DF8047B704700BFB081E00F32
S1130FF080B582B000AFFFF7EDFF0346FB713B1DE8
S1131000184601F085FEFB790F2B0AD93B79022B98
S113101007D9054A044B1B6823F0500343F010031F
S113102013600837BD4680BDC0800C4080B483B0D7
S113103000AF78607B6818460C37BD465DF8047BCA
S1131040704700BF80B582B000AF78607B68FC3326
S11310501846FFF74FFB7B68EC331846FFF74AFB53
S11310607B68E9331846FFF7B3FB7B687433184693
S1131070FFF77AFB7B6864331846FFF7A5FA7B68B1
S113108058331846FFF70EFB7B684C331846FFF7BE
S11310903DFA7B683C331846FFF710FA7B68184624
S11310A00837BD4680BD00BF80B5D2B002AFFFF7A0
S11310B09FFF1120022101F089F802200121012261
S11310C001F0EAFC1120042101F098FB754801218C
S11310D001F092F97448012101F08EF9734801215D
S11310E001F08AF97248012101F086F97148012161
S11310F001F082F93B1D1846FFF776FB3B1D1846AD
S1131100FFF7ECFB0346C7F83C313B1D1846FFF7DD
S113111063FD0346C7F8383100F0F0FB00F044FDEE
S113112007F594720023009310460421022204233D
S113113000F086F907F58C72012300931046042110
S11311400322042300F07CF95B4B1B6807F58A72C9
S11311501046194600F070FAD7F8380100F06CFB1D
S1131160D7F838311B6808331B68D7F8380198471B
S11311700246524B1A60D7F838311B680C331B688F
S11311804E4A1268D7F838011146984702464C4B2C
S11311909A428CBF01230023DBB2002BEBD0494BD6
S11311A01B78002B2BD007F58A73184600F0F6FA4B
S11311B00346002B09DB07F58A73184600F0EEFAA4
S11311C003465A2B01DC012300E00023002B05D049
S11311D007F58A7318460A2100F0BEFA07F58A73E8
S11311E0184600F0DBFA0346632BCCBF012300232F
S11311F0DBB2002B2ED0334B00221A702AE007F505
S11312008A73184600F0CAFA0346092B09DD07F56C
S11312108A73184600F0C2FA0346642B01DC0123EA
S113122000E00023002B05D007F58A7318460A2135
S113123000F070FA07F58A73184600F0AFFA034617
S1131240002BD4BF01230023DBB2002B02D01D4BA3
S113125001221A70D7F83C01FFF71CFED7F8383189
S11312601B6808331B68D7F8380198470246134BAC
S11312701A6080E707F58A731846FFF7D7FEFFE781
S113128007F58C731846FFF735FAFFE707F59473F3
S11312901846FFF72FFAFFE73B1D1846FFF7D2FE6B
S11312A003F062F900D204000012040000520400AA
S11312B00082040000B204000C000020AC000020F6
S11312C03F420F001000002080B483B000AF78606C
S11312D07B68044A1A607B6818460C37BD465DF883
S11312E0047B704740E4000080B485B000AF7860B0
S11312F039607B6803F10473DA003B6813449B0094
S1131300FB60FB681B6818461437BD465DF8047B18
S1131310704700BF80B582B000AF03463960FB71EF
S1131320FA791346DB0013449B001C3303F180431A
S113133003F5C04318463968FFF7D6FF034618463D
S11313400837BD4680BD00BF80B483B000AF0346FC
S11313503960FB710949FA793B68012000FA03F30B
S113136018461346DB0013449B000B4410335860AB
S11313700C37BD465DF8047B704700BF0060004039
S113138080B483B000AF03463960FB710949FA7930
S11313903B68012000FA03F318461346DB001344AC
S11313A09B000B44103318600C37BD465DF8047B7A
S11313B0704700BF0060004080B483B000AF0346B4
S11313C03960FB710949FA793B68012000FA03F39B
S11313D018461346DB0013449B000B441833186073
S11313E00C37BD465DF8047B704700BF00600040C9
S11313F080B582B000AF78607B681846FFF764FF61
S11314007B680E4A1A607B6800221A717B6800228E
S11314105A717B6800229A717B6800229A607B680B
S113142000221A737B6800225A737B6800229A7325
S11314307B6818460837BD4680BD00BFE0E5000064
S113144080B584B000AFF8607A601A460B46FB7230
S11314501346BB72FB681846FFF736FFFB68274A42
S11314601A60FB6800221A71FB6801225A71FB683A
S113147000229A71FB687A689A60FB68FA7A5A7358
S1131480FB68BA7A9A73BB7A002B08D0BB7A012B1B
S113149005D0BB7A022B02D0BB7A032B03D1FB68A5
S11314A000221A7316E0BB7A042B02D0BB7A052BF8
S11314B003D1FB6801221A730CE0BB7A062B02D01D
S11314C0BB7A072B03D1FB6803221A7302E0FB6883
S11314D002221A73FA7ABB7A104679681A46BB69F3
S11314E001F090FBFB6805E0FB681846FFF736F84F
S11314F003F03AF818461037BD4680BDE0E5000019
S113150080B582B000AF78607B685A7B7B689B684B
S113151010461946FFF7FEFE0346012B0CBF0123BC
S11315200023DBB218460837BD4680BD80B582B0C3
S113153000AF78607B685A7B7B689B6810461946CD
S1131540FFF71EFF7B681B6808331B6878689847A1
S1131550034618460837BD4680BD00BF80B582B03B
S113156000AF78607B685A7B7B689B68104619469D
S1131570FFF7EAFE7B681B6808331B6878689847A6
S1131580034683F00103DBB218460837BD4680BD2D
S113159080B584B000AF78607B681B6808331B6833
S11315A0786898470346FB607B685A7B7B689B6836
S11315B010461946FFF700FF7B681B6808331B6859
S11315C07868984703461A46FB689A4214BF012379
S11315D00023DBB218461037BD4680BD80B483B00B
S11315E000AF78604FF6FF7318460C37BD465DF8C0
S11315F0047B704780B584B000AFF860B9607A604E
S1131600F868FFF7EBFFFA68BB681B011344383333
S11316107A685A601037BD4680BD00BF80B582B07D
S113162000AF786039607868FFF7D8FF7B683A6864
S1131630DA610837BD4680BD80B58AB000AF7860F6
S113164039607B683A681A6000233B7700237B7714
S11316500023BB770023FB77002387F82030002387
S113166087F82130002387F82230002387F82330BD
S1131670002387F82430002387F82530002387F8D7
S11316802630032387F82230012387F8213007F11D
S11316901C031F4802211A4601F00CFC1C4A1C4B77
S11316A09B6A43F4803343F0040393621848642133
S11316B0FFF7B4FF3B68164802211A46FFF79AFF6A
S11316C001233B7300237B730023BB730023FB7351
S11316D000233B7400237B740023BB740023FB743E
S11316E000233B7500237B750023BB750023FB752A
S11316F000233B760923BB7307F10C030448194606
S113170001F06AFB7B6818462837BD4680BD00BFE0
S1131710000C014080B582B000AF786039607B680E
S11317201A683B68D31A632B01DC00230DE07B6845
S11317301A683B68D21A7B681A607B681B68054884
S113174002211A46FFF756FF012318460837BD4603
S113175080BD00BF000C014080B582B000AF78604E
S113176039607B681A683B681344642B01DD0023ED
S11317700DE07B681A683B681A447B681A607B68D2
S11317801B68054802211A46FFF734FF0123184657
S11317900837BD4680BD00BF000C014080B483B053
S11317A000AF78607B681B6818460C37BD465DF84F
S11317B0047B704780B483B000AF0346FB710849D3
S11317C097F907305B09FA7902F01F02012000FA49
S11317D002F241F823200C37BD465DF8047B7047C4
S11317E000E100E080B582B000AF786039607B68CA
S11317F01846FEF711FF7B680B4A1A600B4A3B68D8
S113180013600B493A6813465B001344DB00CB6159
S11318107B6800225A60074B00221A607B681846D6
S11318200837BD4680BD00BF20E60000B40000209C
S113183000000140B000002080B483B000AF7860A5
S1131840034B01225A600C37BD465DF8047B704798
S11318500000014080B483B000AF7860054B1A6883
S11318607B685A607B685B6818460C37BD465DF838
S1131870047B7047B000002080B483B000AF786070
S113188039600B4B1B683A689A4207D9094B1A68AE
S11318903B68D21A064B1B68134403E0044B1A68D6
S11318A03B68D31A18460C37BD465DF8047B704775
S11318B0B00000201400002080B400AF0B4B0122C4
S11318C09A610B4B1A680B4B1B681344084A13604C
S11318D0074B1A68084B1B689A4202D3044B002238
S11318E01A60BD465DF8047B704700BF00000140EC
S11318F0B0000020B40000201400002080B500AF28
S1131900034B0122DA600220FFF754FF80BD00BFC1
S11319100000014080B483B000AF0346FB71084966
S113192097F907305B09FA7902F01F02012000FAE7
S113193002F241F823200C37BD465DF8047B704762
S113194000E100E080B586B000AFF860B9601146F0
S11319501A460B46FB711346BB71FB681846FEF72B
S113196079FDFB68244A1A60BB681B01234A92FB79
S1131970F3F3013B9A00FB685A60214AFB685B68F9
S11319809B015361FB68FA791A72FB68BA795A723F
S1131990FB6800225A81FB6800229A810023FB82A3
S11319A007E0FB8AFA68134400229A73FB8A013326
S11319B0FB82FB8A312BF4D90023BB8208E0BB8A6B
S11319C0FA681344002283F84020BB8A0133BB82A7
S11319D0BB8A312BF3D90A49FB681B7A1A03FB68CB
S11319E05B7A1B02134343F005034B60FB68184604
S11319F01837BD4680BD00BF58E6000000366E01B2
S1131A0000C4004080B483B000AF78600A4B1B6907
S1131A1003F08003002B14BF01230023DBB2002B4F
S1131A2003D0054BDB69DBB200E0302318460C37EA
S1131A30BD465DF8047B704700C4004080B584B0A7
S1131A4000AF78607B68002B0ED07B68FB60084B8E
S1131A50DB69DBB2FB72FB681B681B6807F10B02D6
S1131A60F8681146012298471037BD4680BD00BF73
S1131A7000C4004080B500AF034B1B68034A1268E2
S1131A801046984780BD00BFBC000020C000002065
S1131A9080B487B000AFF860B9601346FB80FB6880
S1131AA0FA885A810023FB820CE0FB8ABA68117819
S1131AB0FA6813440A469A73BB680133BB60FB8A15
S1131AC00133FB82FA8AFB889A42EED3FB68012237
S1131AD09A810A4B1B6903F04003002B14BF0123B6
S1131AE00023DBB2002B03D0044AFB689B7B5363C7
S1131AF01C37BD465DF8047B704700BF00C400403E
S1131B0080B485B000AF78607B68002B2FD07B68F1
S1131B10BB60BB685A89BB689B899A4219D9164B2A
S1131B201B6903F04003002B14BF01230023DBB225
S1131B30002B1CD0104ABB689B891946BB680B4418
S1131B409B7B5363BB689B8901339AB2BB689A81C0
S1131B500DE00023FB8107E0FB89BA6813440022EF
S1131B609A73FB890133FB81FB89312BF4D9143738
S1131B70BD465DF8047B704700C4004080B500AFEB
S1131B80064B1B68064A126810469847054A054BDF
S1131B909B6C43F00103936480BD00BFB800002038
S1131BA0C000002000C4004080B500AF184B1422D0
S1131BB01A67174B0022DA670F20FFF7ABFE1020DD
S1131BC0FFF7A8FE134A134BDB6843F4406343F06A
S1131BD00503D3600F4A0F4B1B6843F4C0431360E3
S1131BE00C4A0C4B9B6C43F4FF5343F0190393646E
S1131BF0084A084B5B6D43F4817343F0010353655A
S1131C00044A044BDB6C43F00503D36480BD00BF7E
S1131C100060004000C4004080B485B000AFF860AC
S1131C20B9607A60064AFB681360064ABB681360B1
S1131C30054A7B6813601437BD465DF8047B704722
S1131C40B8000020BC000020C000002080B582B095
S1131C5000AF78607B689B681B6810331B687A68E8
S1131C609268104698477B6800221A710837BD466F
S1131C7080BD00BF80B582B000AF78607B689B6890
S1131C801B680C331B687A689268104698477B6817
S1131C9001221A710837BD4680BD00BF80B582B0ED
S1131CA000AF78607B689B681B6814331B687A6894
S1131CB09268104698477B681B7983F00103DAB277
S1131CC07B681A710837BD4680BD00BF80B487B0F9
S1131CD000AFF860B9607A60FB6803F10473DA005E
S1131CE0BB6813449B007B617B697A681A601C376C
S1131CF0BD465DF8047B704780B485B000AF786062
S1131D0039607B6803F10473DA003B6813449B0079
S1131D10FB60FB681B6818461437BD465DF8047BFE
S1131D20704700BF80B485B000AF78607B68002B3B
S1131D3004D07B68B3F5004F00D800BF7B68B3FACA
S1131D4083F3C3F11F03FB60FB6818461437BD46D9
S1131D505DF8047B704700BF80B400AF044BDB6CBC
S1131D601B0EDBB21846BD465DF8047B704700BF0E
S1131D70B081E00F80B400AF054BDB6C03F47F034C
S1131D801B0CDBB21846BD465DF8047B704700BFF0
S1131D90B081E00F80B582B000AFFFF7EBFF0346E0
S1131DA04A2B04D0792B02D0482B21D022E0144BAB
S1131DB01B699BB203F03F039BB21B02FB80104BD9
S1131DC09B6903F0F0039AB2FB881343FB800C4B2E
S1131DD0DB6903F0F0031B099AB2FB881343FB8011
S1131DE0FB88B3F5017F01D3064B04E0064B02E008
S1131DF0054B00E0002318460837BD4680BD00BFF0
S1131E00D0FF0FE000366E010048E80180B584B0D1
S1131E1000AF78600123FB60FFF7BCFF02467B68DC
S1131E209A4204D30023FB600023BB600BE0FFF75E
S1131E30B1FF03465A007B689A4202D30123BB6078
S1131E4001E00223BB6008481E21FA68FFF73EFF49
S1131E500549054B5B6823F48072BB681B0213437E
S1131E604B601037BD4680BD00800C4080B582B009
S1131E7000AF05481E21FFF73FFF78607B681846D6
S1131E800837BD4680BD00BF00800C4080B582B0DD
S1131E9000AF214B5B6903F4E063B3F5007F1CD012
S1131EA0B3F5007F05D8002B25D0B3F5807F1FD074
S1131EB02AE0B3F5C06F24D0B3F5E06F1ED0B3F5BC
S1131EC0407F21D1FFF748FF0346122B02D9134B61
S1131ED07B601CE0124B7B6019E0FFF73DFF03467B
S1131EE0122B02D90F4B7B6011E00F4B7B600EE08D
S1131EF00E4B7B600BE00E4B7B6008E00D4B7B6070
S1131F0005E00D4B7B6002E000237B6000BF7B6833
S1131F1018460837BD4680BD00800C40804F120033
S1131F2040420F0040B56400C0CF6A00C0D8A7008B
S1131F30809FD500406F4001003FAB0180B582B067
S1131F4000AF0D4800F0ACFB0346FB70FB78072B99
S1131F5005D0092B07D1FEF773F9786006E0FFF787
S1131F6095FF786002E000237B6000BF7B68184621
S1131F700837BD4680BD00BF06000C0080B485B0A4
S1131F8000AF78603960284BDB6B002B14BF012352
S1131F900023BB72244B41F67132DA63224B5B6837
S1131FA003F00703FB60FB68012B01D9042B02D16A
S1131FB00023FB7202E00123FB7200BF7B681B4A13
S1131FC0934207D9FB7A002B01D0052300E00423B8
S1131FD0FB6016E07B68154A93420BD87B68144A71
S1131FE0934207D9FB7A002B01D0032300E001239D
S1131FF0FB6006E0FB7A002B01D0022300E0002303
S1132000FB600949084B5B6823F00702FB68134334
S11320104B60BB7A002B02D0034B0022DA631437E7
S1132020BD465DF8047B704700000C400048E801A1
S11320300024F40080B500AFFEF7F8F80346184614
S11320400021FFF79BFF80BD80B582B000AF7860B0
S1132050396078683968FFF791FF0837BD4680BD5D
S113206090B585B000AF78600023BB607B68344ACC
S1132070934203D0334A934200D000E000BF786813
S113208000F00EFB0346FB607B682D4A934203D0AD
S11320902C4A934206D00CE02B4B9B6A03F00303BB
S11320A0FB6006E0284B9B6A03F00C039B08FB6073
S11320B000BFFB68032B3AD801A252F823F000BFFB
S11320C0F7200000D1200000D9200000E12000000A
S11320D0FEF748F9B8602DE0FEF758F9B86029E03A
S11320E0FEF78AF80446FFF7C1FE0346013324FADB
S11320F003F3BB601EE00023BB607B68104A93427D
S113210003D07B680F4A934210D10F4B9A6A7B68C5
S11321100B498B4201D1102300E0142322FA03F36C
S1132120002B03D0FEF728F9B86003E002E0002397
S1132130BB6000BFBB6818461437BD4690BD00BFE6
S113214002001A0003001C0000800C4080B483B01D
S113215000AF7860094B5B6D03F00103002B00D0E6
S113216006E000BF054B1A6D7B681340002BF9D1C4
S11321700C37BD465DF8047B704700BF00800C40FF
S113218080B582B000AF104800F08AFA0346FB70B5
S1132190FB78032B07D0092B09D0022B0BD1FEF7B8
S11321A0F5F878600AE0FEF7DDF8786006E0FEF7FF
S11321B047F8786002E000237B6000BF7B68184624
S11321C00837BD4680BD00BF07232200B0B584B0E8
S11321D000AF786039607B681B0903F00F03FB6074
S11321E0FB68013B062B00F2F48001A252F823F0B5
S11321F00D220000D3230000D3230000432200005B
S11322006D220000BB2200007F2300003B68002BEE
S113221003D03B68082B00D800BFFFF70BFF6F49C2
S11322206E4B1B6823F4E0323B68013B9B03134372
S11322300B60FDF7E1FFB860B8680021FFF704FF09
S1132240C8E03B68002B04D03B68B3F5007F00D89E
S113225000BF3868FFF766FD386060495F4B9B68D4
S113226023F00F023B6813438B60B3E03B68002B01
S113227004D03B68B3F5007F00D800BFFFF7DAFE57
S1132280FDF7DEFF02463B68B2FBF3F31846FFF7A7
S1132290BDFD3868FFF746FD386050494F4B5B6819
S11322A023F00F023B6813434B60FDF7A5FFB860B2
S11322B0B8680021FFF7C8FE8CE07B68484A934267
S11322C01ED0474A934203D8464A934207D055E06A
S11322D0454A934225D0454A93423FD04EE00420DC
S11322E0FFF734FF3868FFF71DFD38603B493B4B6F
S11322F09B6E23F0F0023B681B0113438B663DE0A9
S11323000420FFF723FF3868FFF70CFD38603349DA
S1132310324B9B6E23F470623B681B0213438B6643
S11323202CE03B680F2B03D93B68802B00D800BFFF
S11323300420FFF70BFF3868FFF7F4FC3860274DE3
S1132340264B9B6E23F440541020FFF7EBFC02460F
S11323503B689B1A1B032343AB660FE00420FFF783
S1132360F5FE3868FFF7DEFC38601C491B4B9B6E9A
S113237023F003023B6813438B6600BF2AE07B68AB
S11323801B4A934203D01B4A934210D020E04020C2
S1132390FFF7DCFE3868FFF7C5FC38600F490F4BC8
S11323A01B6F23F003023B6813430B6710E04020CC
S11323B0FFF7CCFE3868FFF7B5FC38600749074BD8
S11323C01B6F23F030023B681B0113430B6700BFF4
S11323D000E000BF1037BD46B0BD00BF00800C4018
S11323E060261400601610006000260060062A00B3
S11323F0700716007017180080B586B000AF7860BB
S11324000B46FB7000233B617B681B0A03F00F0340
S1132410013B092B45D801A252F823F059240000AE
S11324205F24000045240000A3240000A32400002E
S1132430652400006F240000A3240000A3240000EE
S113244079240000194B7B61194800F03DF80346DC
S11324501846FFF7DBFC12E0164B7B610FE0164BCE
S11324607B610CE0154B7B6101233B6107E0144B5E
S11324707B6110233B6102E0124B7B6100BF7B68F0
S11324801B0B03F01F03FB603B69002B02D0386970
S1132490FFF75CFEFB787869F9681A46FFF716FCCB
S11324A000E000BF1837BD4680BD00BF40800C402F
S11324B00043020008800C4044800C4058800C40CB
S11324C060800C4078800C4090B585B000AF786097
S11324D07B6803F47813B3F5B01F00F0AB80B3F559
S11324E0B01F1AD8B3F5402F00F0BF80B3F5402FCA
S11324F008D8B3F5003F3CD0B3F5802F2DD0002B86
S113250027D0BEE0B3F5801F3CD0B3F5A01F47D061
S1132510B3F5602F00F0AD80B3E0B3F5081F00F011
S1132520AC80B3F5081F0AD8B3F5D01F25D0B3F596
S1132530E01F7AD0B3F5C01F00F08980A1E0B3F5A5
S1132540201F4ED0B3F5281F62D0B3F5181F35D025
S113255097E0FDF775FEF86096E0FDF771FEF86010
S11325604C4B9B6803F00F031A46FB68D340FB6097
S11325708AE0FDF741FEF86086E04748FFF770FD0A
S1132580F86081E04448FFF76BFDF860414B9B6EB7
S113259003F0F0031B091A46FB68D340FB6073E0A9
S11325A03D48FFF75DFDF8603A4B9B6E03F47063A2
S11325B01B0A1A46FB68D340FB6065E03648FFF708
S11325C04FFDF860334B9B6E03F440531C0B1020FB
S11325D0FFF7A8FB034623441A46FB68D340FB607D
S11325E052E02D48FFF73CFDF8602A4B9B6E03F444
S11325F040531B0B1A46FB68D340FB60254BDB6F33
S113260003F007030133FA68B2FBF3F3FB603BE02A
S11326102148FFF725FDF8601E4B9B6E03F0030372
S11326201A46FB68D340FB602EE01C48FFF718FDF8
S1132630F86029E01948FFF713FDF860154B1B6F8C
S113264003F003031A46FB68D340FB601CE0134805
S1132650FFF706FDF8600F4B1B6F03F030031B09F7
S11326601A46FB68D340FB600EE0FFF767FCF86096
S11326700AE0FFF70BFCF86006E0FFF781FDF86065
S113268002E00023FB6000BFFB6818461437BD4618
S113269090BD00BF00800C4002001A0003001C0023
S11326A080B485B000AF78600123FB737B6803F0CE
S11326B00F03BB60BB68013B062B00F2938001A2B1
S11326C052F823F0E12600001727000053270000EA
S11326D0E5270000E52700008F270000B127000050
S11326E0454BDB6A03F47053B3F5805F09D0B3F54F
S11326F0005F03D0B3F5006F06D008E00223FB733C
S113270008E00323FB7305E00423FB7302E00523C5
S1132710FB7300BF69E0384B9B6A03F00303022B91
S113272006D0032B07D0012B08D10323FB730FE042
S11327300223FB730CE00623FB7309E02E4B9B6A18
S113274003F48033002B02D00A23FB7300E000BFA4
S11327504BE0294B9B6A03F00C03082B06D00C2B8F
S113276007D0042B08D10323FB730FE00223FB7370
S11327700CE00623FB7309E01F4B9B6A03F48013F0
S1132780002B02D00A23FB7300E000BF2DE01A4B9C
S11327901B6803F08053002B03D0B3F1805F03D098
S11327A023E00723FB7302E00923FB7300BF1CE053
S11327B0114BDB6A03F46033B3F5803F08D0B3F503
S11327C0003F08D0B3F5004F08D10923FB7308E09C
S11327D00223FB7305E00323FB7302E00123FB7375
S11327E000BF02E00023FB7300BFFB7B18461437D5
S11327F0BD465DF8047B704700800C4080B588B00E
S113280000AF78600B46FB700323FB610323FB7668
S113281000233B617B6803F00F03FB60FB68013B13
S1132820062B00F2288101A252F823F04928000067
S11328301F2900001F290000772A0000772A0000C2
S1132840E52900000F2A0000FB78023B082B00F268
S1132850148101A252F823F07D280000872800008B
S113286091280000D32800007B2A00007B2A000066
S11328707B2A00007B2A00007B2A00000423FB61E2
S11328800023FB7631E00323FB610123FB762CE07C
S11328900223FB610223FB76FFF77CFA0346013334
S11328A01846FFF7B3FAFDF74BFD0246764B9A4202
S11328B006D9764A754B1B6843F06003136014E035
S11328C0724A724B1B6823F0600343F020031360C9
S11328D00BE00123FB610323FB76FFF75BFA03465E
S11328E001331846FFF792FA00BFFB7E1846012118
S11328F0012200F0D1F8FFF79DFB644AFB695362A3
S11329006348FFF7E1FD03461846FFF77FFAFDF73A
S113291073FCB860B8680021FFF796FBB0E0FB7861
S1132920013B092B00F2AB8001A252F823F000BF57
S1132930592900005F2900006F2900007F2A000048
S11329407F2A00007F2900007F2A00007F2A0000E0
S11329507F2A00009B29000000237B6122E00020E5
S11329600121012200F098F802237B611AE0012082
S11329700121012200F090F801237B6112E0FDF7B0
S11329803BFCB860B868FFF741FA424804210122D1
S1132990FFF79CF903237B6104E000237B6101239F
S11329A03B6100BFFB68022B0DD13849374B9B6A52
S11329B023F4803323F003037A691A433B691B042D
S11329C013438B625CE03149304B9B6A23F48013E0
S11329D023F00C037A6992001A433B691B051343E5
S11329E08B624DE0FB78072B02D0092B07D047E020
S11329F0264A264B1B6823F08053136006E0234AC3
S1132A00224B1B6843F08053136000BF38E0FB780F
S1132A10032B14D0092B22D0022B00D030E000204D
S1132A200121012200F038F8184B40225A6200BFFD
S1132A30164BDB6A03F48033002BF9D01AE0012033
S1132A400121012200F028F8104B60225A6200BFD5
S1132A500E4BDB6A03F40033002BF9D00AE00B4B76
S1132A6020225A6200BF094BDB6A03F40043002BA7
S1132A70F9D000BF04E000BF02E000BF00E000BFE7
S1132A802037BD4680BD00BF0048E80100800C40EF
S1132A900043020040800C4080B586B000AF03467E
S1132AA0FB710B46BB7113467B71FB79042B48D831
S1132AB001A252F823F000BF052B0000F72A000002
S1132AC0DB2A0000CD2A0000E92A000001233B6133
S1132AD00223FB6001237B611DE004233B61082387
S1132AE0FB6003237B6116E010233B612023FB6022
S1132AF005237B610FE040233B618023FB600723B8
S1132B007B6108E04FF480733B614FF40073FB601A
S1132B1009237B6100BFBB79002B0ED00B4A3B69B4
S1132B2013627B79002B0DD000BF09487969FFF748
S1132B30E3F80346002BF8D004E0044AFB68136270
S1132B4000E000BF1837BD4680BD00BF00800C40C8
S1132B502C800C4080B483B000AF03463960FB7115
S1132B60FB79002B0DD0FB79012B0AD0FB79022BCA
S1132B7007D0FB79032B04D0FB79042B01D0FB791C
S1132B80052B0949FA793B68012000FA03F318463A
S1132B901346DB0013449B000B44103358600C377E
S1132BA0BD465DF8047B70470060004080B483B08C
S1132BB000AF03463960FB71FB79002B0DD0FB7924
S1132BC0012B0AD0FB79022B07D0FB79032B04D00D
S1132BD0FB79042B01D0FB79052B0949FA793B6871
S1132BE0012000FA03F318461346DB0013449B004C
S1132BF00B44103318600C37BD465DF8047B7047F6
S1132C000060004090B585B000AFB9607B600346BA
S1132C10FB731346BB73FB7B002B0DD0FB7B012B9B
S1132C200AD0FB7B022B07D0FB7B032B04D0FB7B5E
S1132C30042B01D0FB7B052BBB7B002B0DD07B68C9
S1132C40002B05D0FB7B1846B968FFF7AFFF04E003
S1132C50FB7B1846B968FFF77DFFBB68072B1CD8C0
S1132C602A4CFA7B2948F97B0B46DB000B449B007A
S1132C7003445968BB689B0018460F238340DB4319
S1132C800B40B97BB8688000814019431346DB00D0
S1132C9013449B002344596024E01C4CFA7B1B48DA
S1132CA0F97B0B46DB000B449B0003440833196893
S1132CB0BB6803F18043083B9B0018460F23834005
S1132CC0DB431940B87BBB6803F18043083B9B009E
S1132CD000FA03F319431346DB0013449B00234417
S1132CE008331960BB7B002B0DD17B68002B05D00A
S1132CF0FB7B1846B968FFF759FF04E0FB7B1846D5
S1132D00B968FFF727FF1437BD4690BD0060004047
S1132D1080B485B000AF78601A4B5B69DBB203F016
S1132D200F03DBB29B00FB73164B1B6903F0C0035C
S1132D309B09DAB2FB7B1343FB737B68FA7B9A70C3
S1132D40104B1B69DBB203F03F03DAB27B685A70A5
S1132D500C4B9B6903F0F0031B09DBB21B01FB73F3
S1132D60084BDB6903F0F0031B09DAB2FB7B134366
S1132D70FB737B68FA7B1A701437BD465DF8047BDD
S1132D80704700BFD0FF0FE080B483B000AF78601D
S1132D907B680D4A93420BD07B680C4A934207D060
S1132DA07B680B4A934203D07B680A4A934201D161
S1132DB0012300E0002303F00103DBB218460C37C3
S1132DC0BD465DF8047B70470000014000040140EB
S1132DD000080140000C014080B582B000AF78606B
S1132DE039607868FFF7D0FF3B681B7883F00103F4
S1132DF0DBB2002B02D07B6802225A607B6800227F
S1132E005A623B689B781A063B68DB781B041A43BA
S1132E103B689B799B021A433B68DB791B02134393
S1132E203A68127A1A433B685B78002B01D040233E
S1132E3000E000231A433B685B7A002B01D0802317
S1132E4000E000231A433B689B7A002B01D0202327
S1132E5000E000231A433B68DB7A002B01D01023E7
S1132E6000E000231A433B681B79002B02D04FF487
S1132E70005300E000231A433B685B79002B02D027
S1132E804FF0805300E000231A433B681B7B002B68
S1132E9001D0082300E000231A437B681A603B68D2
S1132EA01B78002B02D07B6801225A600837BD468C
S1132EB080BD00BF80B584B000AFF860B9607A60AF
S1132EC0F868FFF761FF7B681B789A067B685B787C
S1132ED01B061A437B689B781B041A437B68DB78C8
S1132EE01B031A437B681B799B021A437B685B793B
S1132EF01B0213437A6892791A437B68DB79002BAF
S1132F0002D04FF4001300E000231A437B681B7ABD
S1132F10002B02D04FF4801300E000231A437B6897
S1132F205B7A002B01D0102300E000231A437B6856
S1132F309B7A002B01D0042300E000231A43F96894
S1132F40BB6803331B010B441A601037BD4680BDB8
S1132F5003685A004CBF43F0004323F00043184475
S1132F60704700BF2DE9F04F83B099B34B1E17464D
S1132F70054698460193002606EB080404EBD47436
S1132F8064104FEAC40A05EB0A0B5846FFF7E0FF4A
S1132F90019B8146A3420AF1080028440ED0FFF7A2
S1132FA0D7FFB94500F1FF3004D9B4420CD004F185
S1132FB0FF38E1E7B84203D2661CDDE7B945F4D82F
S1132FC0584603B0BDE8F08F4FF0000B584603B0ED
S1132FD0BDE8F08F8B46584603B0BDE8F08F00BFC4
S1132FE0012807D0022807D0044B00280CBF18463C
S1132FF0002070470248704702487047F5360000C9
S1133000F9360000FD36000030B5254B83B0044688
S11330108D1E7BB3284601A9AFF3008020B301992C
S11330202A46FFF79FFF0546F0B1FFF791FF6B6853
S1133030A064012B12D0002B05F1040021DBFFF763
S113304087FF0023E06423650368002B1DDBFFF783
S11330507FFF00232061184603B030BD00232361A5
S11330600523184603B030BD002323610923184605
S113307003B030BD0B490C4B0846591AC9100191D5
S1133080CEE70123E0642365DEE7C3F30360FFF7C3
S1133090A7FF002820610CBF09230023DBE700BF42
S11330A00000000004FA000004FC0000036810B5EE
S11330B0DA07044606D49B0700F1480009D500F05E
S11330C085FC2368590709D51A070ED5DB0613D5E5
S11330D010BD00F073FC23685907F5D404F1D00047
S11330E000F07CFC23681A07F0D404F5A87000F003
S11330F07DFC2368DB06EBD404F5E870BDE81040E2
S113310000F0B8BC03680BB1184470471846704708
S113311009207047704700BF70B504460D4608E0AB
S11331202A6C23696261012021462A4698470828AF
S113313008D12046296CFFF767FF06460028EFD028
S11331400AF085F80728FBD13046296CFFF7E2FF27
S1133150281D00F027FC00BF2DE9F0470646ADF519
S1133160727D03AD0C1D17460FCC0FC50FCC0FC5D8
S11331700FCC0FC594E80F0002AC4FF0000ED6F848
S11331800C80D6F8189085E80F003046216CC4F8FE
S113319000E0FFF739FF0546002F0CBF09270A2777
S11331A07DB1A36B47F010018DE810020120636428
S11331B032463346C04778BB28460DF5727DBDE8DC
S11331C0F087236C214673614FF4F0727AA80AF0F9
S11331D0F5F8336931467AAA38469847889B82467F
S11331E08DE8100239466364012032463346C047F5
S11331F090B920467AA94FF4F0720AF0DFF8BAF1D8
S1133200080F06D13046216CFFF7FEFE092705465C
S1133210C6E7BAF1070F04D009200DF5727DBDE8A9
S1133220F0872846216CFFF775FF03A800F0BAFB6E
S1133230406C7047F0B5CB6BF9B00B640E1D01AD5B
S11332400F4604460FCE0FC50FCE0FC50FCE0FC5C8
S113325096E80F004FF0FF3685E80F00009606E071
S1133260236921466A4698470828054608D120461E
S11332701099FFF7C9FE0028F2D0092079B0F0BDFB
S11332806846FFF713FF062DF7D120463946FFF7AE
S113329043FF00BF30B4DD6BC160826119461D6419
S11332A0002230BC58E700BF70B54369C6680446C5
S11332B00D460B6426B10122FFF74EFF09F0C7FF4C
S11332C00369214602202A469847072807D0082880
S11332D003D120462946FFF71FFF09F0B8FF304607
S11332E0296CFFF717FF281D00F05CFBC26832B1A0
S11332F010B4CC6B00220C645DF8044B2CE799E706
S1133300704700BF836813B1014601201847704716
S113331000B5042907D8DFE801F00309060909000C
S11333200BB90F2A05D902205DF804FB01205DF8D2
S113333004FB00EB820252681846019B1A605DF898
S113334004FB00BF00B585B00A4603AB002100931F
S11333500B46FFF7DDFF039805B05DF804FB00BFE3
S113336000B5042907D8DFE801F0030906090900BC
S11333700BB90F2A05D902205DF804FB01205DF882
S113338004FB019900EB82020968184651605DF85C
S113339004FB00BF10B50C4684B004AB43F8042D05
S11333A00021009322460B46FFF7DAFF04B010BD5C
S11333B0F0B5D36BADF50F7D1364151D17AC07463F
S11333C00E460FCD0FC40FCD0FC40FCD0FC495E81B
S11333D00F004FF0FF3584E80F00169511E016A892
S11333E06A46FFF7D7FF16A83146B84780B9049B51
S11333F00820694616AA98470528044609D00928D2
S113340006D026996846FFF7FFFD0C210028E6D078
S1133410092416A8FFF74AFE20460DF50F7DF0BDDE
S11334202DE9F04FCC6C904622688BB004340D46E5
S11334300792089400F003091E46002B64D112027F
S1133440032307928DF825608DF824302B6DB9F194
S1133450020F08BFAC6B13F0010343D100F0080066
S1133460C2B2039201932768002F3DD0022E47D0A9
S11334702788B4F802A00434AB6C2AF0010B404650
S11334800F219B44FFF75EFF834537D827F00103E4
S11334909B4458452CBF002001200AF0010A07F084
S11334A0010747EA4A0ABAF1010F43D03AD3BAF105
S11334B0020F1FD1236823F000420292B9F1000FDA
S11334C07BD138B1039A002A00F08380029A002A43
S11334D000F0A680002B7ADB029B03F1010A04EBC7
S11334E08A04C0E700230193022E40DDFFF710FE9B
S11334F0002842D009200BB0BDE8F08F0020CCE7B3
S1133500D4F804A00834B7E7022B9FDC130CDFB215
S1133510120402218DF8253004EB870407928DF8FC
S1133520241093E7B9F1000F02D0002840F0AD80D9
S1133530043498E7B9F1000F26D1B0B194E80C0037
S1133540D70F9A1CD6D005F158020133069200F029
S11335509280201DFFF7D6FD3A46014606AB284669
S113356001F026F8002840F0B58008347BE7404697
S113357007A900F019FB0028BCD1019B002B59D1ED
S113358008200BB0BDE8F08F40460D212F6AFFF7ED
S1133590D9FE8742E9D1AB6A9C42E6D12046FFF7C7
S11335A0D7FC0F2102464046FFF7F4FE40462A4668
S11335B00021FFF7EFFE07209DE740460D212F6A0B
S11335C0FFF7C0FE874245D02368002B84DA043419
S11335D082E7029B23B305F158030596039F04F188
S11335E0040ADDF808B0CDF810901E4602E0D94573
S11335F04F4615D050460696FFF784FD002201463B
S113360006AB284600F0D4FF07F101090AF1040AC9
S11336100028ECD0029BDDF810909F42059ED3D188
S113362040460D21FFF78EFE069B2862AC626B625A
S1133630062060E70F214046FFF784FE0E21024674
S11336404046FFF7A7FE40460F21294AFFF7A2FE96
S1133650072050E7AB6A9C42B6D1042202990027A6
S1133660A318A962EF622A636B632368BB421FDB62
S11336700123019330E740460D21FFF763FE2862E2
S1133680069B6B62AC62062035E72046FFF760FCC0
S113369004340646AC63284600F0E6FF00283FF4F5
S11336A029AF404632460F21FFF774FE072022E778
S11336B00846013004EB8000FFF74AFC0F21024664
S11336C04046FFF767FE404639462A46FFF762FE4A
S11336D0072010E707460D214046FFF733FE022F6F
S11336E02862CDD12B46069A43F82C2F6B62C9E78A
S11336F021480000002393E6012391E602238FE68C
S1133700F0B50546C5B004290CD8DFE801F056032E
S11337100B300E00012B4FEA124496B265D0052BF4
S113372000F08380022045B0F0BD002BFAD1102AAE
S1133730F8D82B68DC0600F1E98022AE304601920D
S113374000F0A2F9A86B019A0023012404FA03F102
S1133750114203D00168043046F823100133042BCE
S1133760F4D1A863304600F085F90020DBE7032B91
S1133770D8D1140C97B23B19102BD3D82B681E0741
S113378000F1E48022AE30467F0000F051F906EBF0
S1133790C4027B1EAC6B57B12146043A51F8040BAA
S11337A0013B42F8040F581CF8D104EB870430465F
S11337B0AC6300F01BF90020B5E7002BB2D1AC6B71
S11337C097B2281D012606FA03F1394203F10103D9
S11337D002D0216804340160102B00F10400F2D1FE
S11337E012F400501FD1AC639DE73219102A99D806
S11337F00F2C97D829680027C80754D422A801930E
S113380000F0E0F8019B19E008463746012B00F070
S113381097800F2CA86302D822A800F0D7F817B11C
S113382002A800F0DBF800207DE73719202F3FF6CF
S113383079AF0F2C30D93746002E44D1A96B3246CC
S1133840002EE1D000278E4644A84FEA420C00EB3C
S1133850C4000CF1FF328C385EF8046B013A40F876
S1133860046F561CF8D101EB8C00002FCED02246F9
S1133870102C44A938BF102201EBC202A2F5C47275
S113388001467800043A01EB800051F8046B814250
S113389042F8046FF9D1B9E7102F41D92A68103FD3
S11338A0D007114610D521F00102052B2A6001939F
S11338B028465BD021F0030140F8481B00F082F851
S11338C0019B002F4AD02A6851075BD4012B63D097
S11338D00F2C04D822A8019300F07CF8019B002F40
S11338E0ACD002A8019300F07DF8019BC4F1100252
S11338F0002AA96BA7DC2246102C44A838BF10224A
S113390000EBC202A2F5C4727800BBE723F01003F7
S11339102B6005F5E870019200F0B6F8019A0CE707
S11339202968C8071DD5284621F0010242F0020289
S113393040F8482B0193002700F04CF8019BC9E79D
S11339400430A86322A800F039F86CE723F00803D8
S11339502B6005F5A87000F06BF813E7012B3FF41A
S11339604DAF0F2C98BF0027B4D967E742F002028D
S113397040F8482B00F02EF8019B002FAAD02A68AB
S11339805107A5D5284622F0040240F8D02B019314
S113399000F028F8019B99E722A8019300F012F89F
S11339A0019BA3E700F1340191E838009C46A64648
S11339B04CF8045D90E8FF0FE54600BD90EC210B48
S11339C0704700BF80EC210B704700BF90EC200BC8
S11339D0704700BF80EC200B704700BFD0EC200B79
S11339E0704700BFC0EC200B704700BFF0EC020131
S11339F0F0EC0211F0EC0221F0EC0231F0EC0241A7
S1133A00F0EC0251F0EC0261F0EC0271F0EC028196
S1133A10F0EC0291F0EC02A1F0EC02B1F0EC02C186
S1133A20F0EC02D1F0EC02E1F0EC02F1704700BFDF
S1133A30E0EC0201E0EC0211E0EC0221E0EC0231E6
S1133A40E0EC0241E0EC0251E0EC0261E0EC0271D6
S1133A50E0EC0281E0EC0291E0EC02A1E0EC02B1C6
S1133A60E0EC02C1E0EC02D1E0EC02E1E0EC02F1B6
S1133A70704700BFB0FC0181B0FC0191B0FC01A112
S1133A80B0FC01B1704700BFA0FC0181A0FC019112
S1133A90A0FC01A1A0FC01B1704700BFEC4600B539
S1133AA02DE900502DE9FF1F4FF000032DE90C0014
S1133AB001A9FFF7BFFBDDF840E012B0704700BF7B
S1133AC0EC4600B52DE900502DE9FF1F4FF000032F
S1133AD02DE90C0001A9FFF7E7FBDDF840E012B087
S1133AE0704700BFEC4600B52DE900502DE9FF1FDB
S1133AF04FF000032DE90C0001A9FFF7F7FBDDF8F7
S1133B0040E012B0704700BFEC4600B52DE900500C
S1133B102DE9FF1F4FF000032DE90C0001ABFFF767
S1133B20B9FBDDF840E012B0704700BFEC4600B5C9
S1133B302DE900502DE9FF1F4FF000032DE90C0083
S1133B4001AAFFF735FCDDF840E012B0704700BF72
S1133B50037A1BB9437A43B9B02070475A1E0368ED
S1133B6002721A020260180E70474268013B10B4D8
S1133B70437213680321141D01721A024460026027
S1133B805DF8044B180E704700B585B003AB0021F7
S1133B9000930C220B46FFF7BBFB039805B05DF8BE
S1133BA004FB00BFF0E700BF2DE9F04306460D46D5
S1133BB085B04FF000082846FFF7CAFFB028044636
S1133BC000F0B58020F07F0111F0FF0120D000F05B
S1133BD0F003802B7AD0902B36D0A02B49D0B02B79
S1133BE05CD0C02B00F0898000F0F803D02B0BD1FF
S1133BF000F00702013242F400223046012105237D
S1133C00FFF77EFD0028D6D0092005B0BDE8F0837B
S1133C100DF10C090B468700CDF8009030460D22BB
S1133C20FFF776FBFFB2039B043760064FF00001F9
S1133C304CBFDF1BFF18CDF800900B4630460D2219
S1133C400397FFF78DFBB6E700F00D030D2BDBD0D8
S1133C5003AF002100F00F020B4600973046FFF738
S1133C6057FB002100970B4630460D22FFF778FBE7
S1133C70A1E7C3434FF47F6203F007031A4101072E
S1133C8002F47F624FF0000148BF42F480420B46C9
S1133C903046FFF735FD0028B6D18CE7B1284CD06B
S1133CA0B2285DD0B32800F08A8000F0FC03B42B66
S1133CB0AAD000F007020132012142F400220B468F
S1133CC03046FFF71DFD00289ED174E72846FFF714
S1133CD03FFF24022043B0F5004F95D0040100219A
S1133CE0A2B20B463046FFF70BFD00288CD114F42A
S1133CF0004F18BF4FF001085DE7C62872D0C728EF
S1133D007AD000F0F803C02B00F08980C82800F0B6
S1133D10A580C9287FF478AF2846FFF719FF00F083
S1133D200F02013200F0F00042EA003265E7B8F118
S1133D30000F00F08280002067E72846FFF708FFA5
S1133D40024600283FF460AF10F0F0017FF45CAF4E
S1133D5030460B46FFF7D4FC00287FF455AF2AE722
S1133D6000210DF10C090D220B46CDF800903046D0
S1133D70FFF7CEFA2846FFF7EBFE02064FF00204E7
S1133D800CD5039B00F07F00A04003442846039316
S1133D90FFF7DEFE030604F10704F2D4039B00F0F0
S1133DA07F00A04003F5017300211C18CDF800909A
S1133DB00B4630460D220394FFF7D2FAFBE6284661
S1133DC0FFF7C6FE00F00F02013200F0F0000121FF
S1133DD042EA00320B463046FFF792FC00287FF49B
S1133DE013AFE8E62846FFF7B3FE00F00F020132F6
S1133DF000F0F0000321EBE72846FFF7A9FE024696
S1133E0000283FF401AF10F0F0037FF4FDAE30461C
S1133E100421FFF775FC00287FF4F6AECBE600F032
S1133E200F020132032142F420220B463046FFF7F1
S1133E3067FC00287FF4E8AEBDE603AC41460E22E1
S1133E40434600943046FFF763FA009430464146F7
S1133E500F224346FFF784FA4046D6E62846FFF78A
S1133E6077FE00F0F00200F00F031032013343EA52
S1133E700232C2E610B5C36C84B003205A688DF8D0
S1133E800C00DC7912020833084601A901928DF86E
S1133E900D400293FFF788FE04B010BD08B5FFF78C
S1133EA081FE806C08BD00BF08B5FFF77BFEC36CC4
S1133EB0D87903EB8000083008BD00BF08B509F0CD
S1133EC0C6F900BF08B509F0C2F900BF09F05EBA2F
S1133ED010B50446024B036000F01CFC204610BDE4
S1133EE0C0E6000010B50446FFF7F2FF2046FFF7D6
S1133EF0EDFF204610BD2DE9F041069E8046964216
S1133F000F4615461C4603D1194600F017FB58B955
S1133F10D8F808003946036806961E6A2A462346DE
S1133F20B446BDE8F04160470620BDE8F0812DE9C4
S1133F30F14F0E4619468346174699460A9CDDF80A
S1133F402CA0DDF830800D9D00F0F8FA78B1002E39
S1133F502C602F7106DB3444A0450CBF06240124D9
S1133F60AC711EE002361CD10123AB7119E044454B
S1133F7004D15846514600F0E1FA88B9DBF808004C
S1133F80314603680A94CDF82CA0CDF830800D9505
S1133F90DC693A464B46A44601B0BDE8F04F6047A1
S1133FA06F71002001B0BDE8F08F2DE9F0410446A7
S1133FB00F4616461D4600F0C0FB48B9A0683946B6
S1133FC0036832469C692B46A446BDE8F04160472D
S1133FD0BDE8F08100231A4630B510F8015B05F006
S1133FE07F04944023432C0602F10702F5D40B60AE
S1133FF030BD00231A4630B510F8014B04F07F059C
S113400095402B43250602F10702F5D41F2A06D852
S1134010640642BF4FF0FF3404FA02F213430B600C
S113402030BD5028F7B505460F4614461E4605D147
S1134030D01C20F0030050F8043B33E000F00F03E1
S11340400C2B23D8DFE803F01A07121A1E222222AF
S1134050220C161A1E00204601A9FFF7BBFF03E03D
S1134060204601A9FFF7C5FF019B11E0204630F867
S1134070023B0DE0204630F9023B09E0204650F8AF
S1134080043B05E0204650F8083B01E009F0DFF866
S113409043B105F07002102A18BF3C462A06234497
S11340A048BF1B68336003B0F0BD08B50346FF2B5F
S11340B008461CD003F07003202B0ED003D8B3B1F4
S11340C0102B12D113E0402B0BD0502B0FD0302BE0
S11340D00BD1BDE80840FFF7F1BEBDE80840FFF78B
S11340E0F1BEBDE80840FFF7D9BE09F0B0F80020E2
S11340F008BD2DE9F04107460C46084639461646E8
S11341001D46FFF7D2FF324601462B462046BDE846
S1134110F041FFF786BF73B50E461446054610B14D
S1134120FFF7BCFEFFE720603178721CFF2905D041
S11341302846231DFFF7DDFF024600E06060137888
S1134140501CFF2B237507D01023237501A9FFF7FB
S113415041FF019B034400E00023E360037801A9CD
S113416063750130FFF736FF019B0344236102B0FE
S113417070BD1FB50A4603AB002100930B46FFF741
S1134180C7F8039805B05DF804FB00002DE9F04F73
S1134190002391B0049300F00303012B05460C4661
S11341A017460ED002D3022B02D0E0E0010713D54C
S11341B020463946FFF75EFE08B1092092E1082047
S11341C090E102070AD40E6A38460D21FFF7D1FFA9
S11341D0864203D1062602E0012600E0022610AB47
S11341E043F82C4D002105F0080500932E43384672
S11341F00C220B46FFF7B4F8062E0CD1D4F830800D
S1134200A56AB8F1000FD4F82C900CBF4FF0010A46
S11342104FF0030A05E13846FFF746FE81460028C1
S1134220C6D00AAA49463846FFF775FF39460546FF
S11342309DF83C00FFF739FF0F210C903846FFF73B
S113424098FF20F0010000F1FF380E9B9D4233D20D
S11342502A469DF83D1006AB0020FFF74AFF9DF863
S11342603D10024607AB0020FFF743FF08AB0246B0
S11342709DF83D100020FFF73CFF09A9FFF7AAFEB7
S11342800A9B069A05461344984501D20E9DDCE725
S1134290079A13449845D8D2089818B10B9B00EBA1
S11342A0030800E08046099810B10E9D01382844A7
S11342B0B8F1000F05D17BE74FF000084FF0010A79
S11342C00EE1002800F00A8116F0080512D04723F9
S11342D023704E2363705523A3704323E370462356
S11342E023714F2363715223A3710023E3714FF0B1
S11342F0000A19E0E379012B0CBF54F8203C04F1C7
S113430058030493F3E74FF0020E0D9A0C9903FB44
S11343101E2209ABFFF785FE0999002962D074BB00
S11343200898002862D0584407A9FFF762FE08A93C
S11343308346FFF75EFE079B002B50D026DD9DF8D9
S11343403C00FF2815D000F00702042A0FD801A171
S113435051F822F0794300006F4300000743000046
S113436079430000694300004FF0080ECDE708F0E0
S11343706EFF4FF0000EC8E74FF0040EC5E720466D
S1134380002204AB00F014F960BBC9E70D995A1C74
S1134390D4B1CDB9049BA1EB82020693A2F1040C23
S11343A05CF8041F61B161442046002206ABCDF8DD
S11343B00CC000F0FDF8DDF80CC00028F0D001219D
S11343C081F00101C9B207E06FF0030C0CFB02F2AB
S11343D08958B1FA81F149090029A1D002E04FF0CE
S11343E0010A9DE7079D4FF0030A06E0BAF1000FAA
S11343F03FF4DEAE05464FF0020AF30711D5BAF1D9
S1134400020F3FF4D5AE38460D21049EFFF7B1FEEE
S113441066622062A562C4F82C90C4F8308006203D
S113442060E016F0080608D0BAF1010F01D100F0DF
S113443069F8002D24DA00F077F8BAF1010F02D1FF
S1134440204600F0DEF9002D1ADA0AAA4946384659
S1134450FFF761FE9DF83C003946FFF726FE6FF03A
S1134460030305FB03330D9A0C90134453F82620E1
S11344700AB10136FAE70422A662E06222636363AA
S113448010AB002143F8244D0A46009338460B46EE
S1134490FEF766FF10AB43F8205D00210122009374
S11344A038460B46FEF75CFF0F213846FFF761FEE6
S11344B000F0010010AB40EA080043F81C0D002195
S11344C0009338460F220B46FEF74AFFBAF1020F5B
S11344D002D1204600F0C8F8072003E04FF0020A9A
S11344E000258AE711B0BDE8F08F00BF08B580470A
S11344F008F0ADFE024B1868BFF35F8F704700BF32
S11345001800002008B5FFF7F5FFFFF7EFFF08B527
S11345108047FFF7F7FF0000024B1868BFF35F8F77
S1134520704700BF1C00002008B5FFF7F5FFFFF738
S1134530EEFF70470020704700207047814208B5A5
S11345400ED0406803782A2B0CD049680B782A2BAC
S113455008BF013109F062F8B0FA80F0400908BDE3
S1134560012008BD002008BD1EB400F09AF81EBC4E
S1134570FFF7A6FA0378472B17D143784E2B14D1B3
S11345808378552B11D1C378432B0ED10379432B58
S11345900BD143792B2B08D183792B2B05D1C079EF
S11345A001288CBF002001207047002070470000C4
S11345B02DE9F3411E4603780446472B8846C57906
S11345C014D143784E2B11D18378552B0ED1C37857
S11345D0432B0BD10379462B08D143794F2B05D1BB
S11345E08379522B02D10DB9012005E02046FFF753
S11345F0C1FF00282FD0002000230022019278B9A7
S113460083B9012D0ABF54F8203CA4F12003783B60
S1134610012D0CBF54F8204C58341F68019402E05B
S11346200F4F00E00F4F3B6838469B68984720B116
S1134630019B02241B68019300E00124D8F8003098
S113464040461D69394601AA0123A84728B1019BA8
S11346502046336001E00123CFE702B0BDE8F081DA
S1134660E8E7000014E8000070B5044600F032F9F1
S113467005462046A4F12006FFF77CFF50B154F80C
S1134680043C0133012B44F8043C08D1AB6844F8E2
S1134690083C03E0AB680BB1FFF734FFAE600120C8
S11346A070BD70B500F016F9846805460CB9FFF7C3
S11346B029FF04F120063046FFF75CFF38B1E369B7
S11346C0013BE36123B9A269AA60A36100E0A86089
S11346D0304670BD7FB5102302930368002415464D
S11346E09E6900946B468DF8044003941268B047A9
S11346F09DF8043003F00603062B11BF2046009BEF
S113470001202B6004B070BD009890420CBF0620BD
S11347100120704710B50446024B0360FFF709FF00
S1134720204610BD38E7000010B50446FFF7F2FF3D
S11347302046FFF7CBFB204610BD38B515461C4676
S1134740FFF7FCFE20B10823E360062325602371F4
S113475038BD2DE9F04106460C4615461F46FFF7C5
S1134760EDFE48B9032F07D82368204631462A4670
S1134770BDE8F0415B691847BDE8F0812DE9F041DF
S1134780069E1F46089B80469E421546099C03D1FF
S11347900799FFF7D3FE48B940463946FFF7CEFEE6
S11347A028B1012326602571A37100E06571002002
S11347B0BDE8F08108B503491B22022008F05AFF26
S11347C0FFF7A0FE8AE700000378472B17D1437850
S11347D04E2B14D18378552B11D1C378432B0ED192
S11347E00379432B0BD143792B2B08D183792B2BC2
S11347F005D1C07901288CBF00200120704700201A
S1134800704710B5044648B100F03BF82046FFF766
S1134810DBFF18B154F8140CFFF768FEFFF772FEC3
S113482070B50646FFF7D0FF18B156F8184C0025AE
S113483001E004460125304600F023F80DB1FFF7EE
S113484073FE2046FFF763FE0378472B17D14378A6
S11348504E2B14D18378552B11D1C378432B0ED111
S11348600379432B0BD143792B2B08D183792B2B41
S113487005D1C07901288CBF002001207047002099
S11348807047F8B5054600F025F806460468284642
S1134890A5F12007FFF7D8FF20B90CB1FFF732FECE
S11348A0376015E055F80C3C2846002BB4BFC3F123
S11348B00103013345F80C3C7368A74203F1FF334D
S11348C073601CBF45F8104C37606C6AFEF718FD26
S11348D02046F8BD00487047C40000201F4BF7B5C0
S11348E01A781F4D12B12B681E4831E001221A704C
S11348F008F0A0FC50B34468002123784FF0FF3245
S11349002A2B08BF013402AB43F8042D20460A4683
S113491008F01EFC2B680646D968134808F006FD0B
S1134920019B0F4F13B93B68304601E020463B68BA
S1134930D96808F0FBFC2B680C48D96808F0F6FC31
S1134940019B43B9304608F021FD04E02B68084878
S1134950D96808F0EBFC08F07AFC00BFD000002016
S1134960800000201CE800003AE800006BE800002A
S11349706EE8000070B44C1E4A2C2CD8DFE804F01A
S11349803C3C3C3C2B2B2B2B26263C262626262641
S1134990262626262626262B2727272727272727A6
S11349A03C26262626262B26273D3C2B3C27273D26
S11349B02B2B26263C3C3C3C3C263C3C263C2B2BCF
S11349C02626262B2B2B2626263C3C00CAB14469DE
S11349D08569AC4202DB002070BC704704EB4405DF
S11349E006690134AD00446174190CD071556260DC
S11349F0A360204670BC70471AB1002BE7D118465B
S1134A00EAE71046E8E72046E6E700BF30B443692A
S1134A108469A34209DA03EB430405690133A40062
S1134A2043612B1901D001B112B930BC0020704789
S1134A300020285559609A60184630BC704700BF62
S1134A40F8B5C368154604460E461A780F4616E0B4
S1134A50562A24D04B2A2FD1236B002D03F10603B1
S1134A60E160236314BF1E211B210022134620464C
S1134A70FFF780FF3860F0B1E368071D1A78722AE7
S1134A8003F10101E4D1226B002D03F1010302F1D2
S1134A900902E360226314BF1C211921E5E7226B9C
S1134AA0002D03F1010302F10902E360226314BF44
S1134AB01D211A21D9E7F8BDADB9462A13D1B74251
S1134AC011D01D201E211C2207E01B2B0DD0192BF9
S1134AD000D132700436B74205D0366833781A2BC9
S1134AE0F3D13070F6E73846F8BD3170F2E700BF15
S1134AF010B4C3680A46197852290FD04F2903D03D
S1134B0010465DF8044B7047046B202103340463A2
S1134B100133C3605DF8044B00232BE7046B1F21B2
S1134B2002340463F4E700BFC2681378532B01D046
S1134B30002070472DE9F041531CC3605378EBB15A
S1134B40931CC36054785F2C26D10023026A9342DD
S1134B5011D2826AC1690132826251F82300BDE830
S1134B60F0810121424B03F1C4051A78A2423CD0E2
S1134B701C33AB42F9D10020BDE8F0811C468368A8
S1134B801B07EED40029EDD0C368197843390129F5
S1134B908CBF00210121E5E7A4F13005EBB2092B1C
S1134BA060D800210DE0303B9942E4D8C268147803
S1134BB0511C1CB1C16014785F2C14D01946A4F1A7
S1134BC03005EDB2A4F1410201EBC103092DD2B2CB
S1134BD004EB8303E7D9192ACDD801EBC10204EB16
S1134BE08203373BE0E70133B0E75A69002A34D047
S1134BF044698569D3F818C0AC422CDA04EB440646
S1134C00D0F810E0B60001341EEB0607446127D04B
S1134C104FF018080EF806803E467A60C7F808C0C0
S1134C20C662A9B1DE681969026BA5420A4402632F
S1134C30A1DD04EB44020569631C92004361AB18D7
S1134C4099D01820A8545E6099601846BDE8F08198
S1134C505E689968E8E70026E2E785694469E0E769
S1134C603E46DDE7A4F14103192B9AD987E700BF3B
S1134C709CE8000070B505460E461446002A48D04C
S1134C802378013B4A2B2AD8DFE803F03535353E3B
S1134C9029292626353535353535353535353535F6
S1134CA035353529353535353535353535352E2ECA
S1134CB035352935353535353535353529263535C7
S1134CC0353535353535353535352929352A2A2AC9
S1134CD02A29353535353500A468002CD0D170BD6E
S1134CE06468002CCCD1FAE762681378052B03D1F1
S1134CF0336801333360626828463146FFF7BAFFF0
S1134D00A468002CBCD1EAE72B6801332B606268ED
S1134D10F2E770BDD0F8003170B5FF2B04460D46A4
S1134D2006D05A1CC4F80021E55484F8045170BD1F
S1134D3000261946D0F80C21D0F8083180F8FF601D
S1134D4098473346D4F8201101221144C4F82011A5
S1134D50C4F80021E55484F8045170BD70B40368AC
S1134D6019786E291AD000252E46A1F13003092B9B
S1134D7088BF00230DD8026800230132026003EBD0
S1134D80830301EB43031178303BA1F13004092C78
S1134D90F3D983EA0600284470BC70475A1C0260A9
S1134DA0597801254FF0FF36DFE700BF4369826978
S1134DB0934214DA03EB43020169920010B5013304
S1134DC08C18436108D040238B540C30FFF7C6FF86
S1134DD023466060184610BD2346184610BD0023C4
S1134DE01846704710B5C36804461A785F2A0BD07A
S1134DF06E2A06D00C30FFF7B1FFE3681A785F2AF9
S1134E0006D04FF0FF3010BD00200133E36010BD29
S1134E100130FAE738B5C36804461A78542A01D039
S1134E20002038BD0133C360FFF7DCFF051EF7DB4C
S1134E30A26A6369A16901328B42A262F0DA03EBD0
S1134E40430221690133920063618B18E8D0052481
S1134E508C545D60184638BD08B5C3681A785F2A5B
S1134E6001D0012008BD013340F80C3FFFF776FF65
S1134E70C043C00F08BD00BF70B504460C30FFF737
S1134E806DFF061E32DDE56863685B1B9E422FDC06
S1134E90A268AB195207E36015D4092E0CDD28462D
S1134EA01449082208F07AFA30B92B7A2E2B10D044
S1134EB05F2B0ED0242B0CD0294632462046FFF718
S1134EC0A5FDE06270BDAA5D242A04BF0133E3603E
S1134ED0E3E76B7A4E2BEFD1236B204616339E1BF0
S1134EE0266305491522FFF791FDEAE7002070BD0E
S1134EF00020E6E7D4EF0000E0EF000038B50446F8
S1134F0029B9C3681A7832B15A1CC2601978682961
S1134F1012D0762901D0002038BD04F10C052846B2
S1134F20FFF71CFFE3681A785F2AF4D10133E360CA
S1134F302846FFF713FF03E004F10C00FFF70EFF10
S1134F40E3681A785F2AE6D10133E360012038BDB3
S1134F50D0F810310246C3B15A680B68906870B13A
S1134F6002782F2A0DD1002B04DC09E002782F2AC5
S1134F7007D143B18068013B0028F7D170477047DF
S1134F8001D0002070474068704701211846C2F8DC
S1134F901811704738B505460C4691B323784A2B4F
S1134FA027D8DFE803F02E26262626302E2B2B26A4
S1134FB026262626262626262626262626262E2685
S1134FC0262626262626262626262626262E262675
S1134FD0262626262626262E2B2626262626262660
S1134FE026262626262E262626262E262E26262E3D
S1134FF02E0028466168FFF7CDFF18B9A468002C7D
S1135000CCD1002038BD2846211DFFF7A1FF002880
S1135010F7D003782F2BF4D138BD00BFF0B5536817
S1135020946801330B44A34283B015460E460746E9
S113503013D8EC680CB103B0F0BD95E80900324612
S11350403946184408F0BAF92B686A6833449C540A
S11350506B681E446E6003B0F0BDD268002AEAD1CA
S11350601CB9022B4FF0020402D96400A342FCD8FD
S11350702868214608F050FA10B12860AC60D8E7DF
S11350800190286808F082F9019B01222B606B6073
S1135090AB60EA60CFE700BF2DE9F0410446084663
S11350A00D4608F0C5FA50B3D4F800112F184FF08C
S11350B0000809E00B46BD4201F10101C4F80011EA
S11350C0E65484F804611AD0FF2915F8016BF1D174
S11350D0D4F8083184F8FF802046D4F80C2198478E
S11350E0D4F8203101210B44C4F82031BD424FF0E3
S11350F00003C4F80011E65484F80461E4D1BDE867
S1135100F08100BF2DE9F04188B00A4604461B49EE
S113511001A808F05FFA01A808F08AFA58B301ADB3
S1135120D4F800112F184FF0000809E00B46BD42D7
S113513001F10101C4F80011E65484F804611AD0A5
S1135140FF2915F8016BF1D1D4F8083184F8FF80F8
S11351502046D4F80C219847D4F8203101210B447F
S1135160C4F82031BD424FF00003C4F80011E654E6
S113517084F80461E4D108B0BDE8F081F8EF0000E0
S113518013782DE9F047033B1546044688462A2B3D
S113519000F2B981DFE813F05100B701B701B7019C
S11351A0B701B701B701B701B701B701B701B7013B
S11351B0B701B701B701B701B701B701B701B7012B
S11351C0B701B70155007B00A10055007B00A10089
S11351D0C600DE00160128012E01310134015901F7
S11351E0B701B701B701B7017E01B7012B00DD4E4E
S11351F0D0F8001106F10A0A4FF0000909E00B4645
S113520001315645C4F80011E75484F8047100F0E4
S11352108681FF2916F8017BF1D1D4F8083184F88E
S1135220FF902046D4F80C219847D4F8203101216E
S11352300B44C4F820310023E3E76A68BDE8F04773
S113524014E2C94DD0F8001105F109074FF0000828
S113525009E00B460131BD42C4F80011E65484F85C
S1135260046100F06E81FF2915F8016FF1D1D4F8C3
S1135270083184F8FF802046D4F80C219847D4F8EC
S1135280203101210B44C4F820310023E3E7B74D5A
S1135290D0F8001105F109074FF0000809E00B46AA
S11352A00131BD42C4F80011E65484F8046100F0F1
S11352B04A81FF2915F8016FF1D1D4F8083184F837
S11352C0FF802046D4F80C219847D4F820310121DE
S11352D00B44C4F820310023E3E7A54DD0F80011B6
S11352E0AF1D4FF0000809E00B460131BD42C4F880
S11352F00011E65484F8046100F00981FF2915F8CF
S1135300016BF1D1D4F8083184F8FF802046D4F839
S11353100C219847D4F8203101210B44C4F82031E2
S11353200023E3E7D0F80031FF2B00F04C81591C37
S11353302022C4F80011E25484F80421FF2900F06B
S113534021814A1C2623C4F80021635484F80431C3
S1135350BDE8F087D0F80031FF2B00F05681591CCE
S11353602022C4F80011E25484F80421814D4FF046
S11353700008AF1C09E00B46BD4201F10101C4F86D
S11353800011E65484F804611AD0FF2915F8016B62
S1135390F1D1D4F8083184F8FF802046D4F80C21E8
S11353A09847D4F8203101210B44C4F82031BD4280
S11353B04FF00003C4F80011E65484F80461E4D10A
S11353C0BDE8F087D0F80011FF2900F0EC804A1CFA
S11353D02023C4F80021635484F804314146AA68A8
S11353E02046BDE8F04741E111F0040800F0AD802B
S11353F0BDE8F087D0F80011A0E7D0F80011B5E7B8
S11354005D4DD0F8001105F108074FF0000808E0E1
S11354100B460131BD42C4F80011E65484F804611E
S113542077D0FF2915F8016FF2D1D4F8083184F848
S1135430FF802046D4F80C219847D4F8203101216C
S11354400B44C4F820310023E4E74C4DD0F800119C
S113545005F10A074FF0000808E00B460131BD4290
S1135460C4F80011E65484F8046156D0FF2915F8F5
S1135470016BF2D1D4F8083184F8FF802046D4F8C7
S11354800C219847D4F8203101210B44C4F8203171
S11354900023E4E790F80431282B0BD0D0F8001156
S11354A0FF2900F0C3804A1C2023C4F80021635460
S11354B084F804316A68324D4146204600F0D6F83B
S11354C0EF1CD4F800114FF0000808E00B4601313E
S11354D0BD42C4F80011E65484F804611BD0FF29CE
S11354E015F8016BF2D1D4F8083184F8FF80204616
S11354F0D4F80C219847D4F8203101210B44C4F886
S113550020310023E4E72A46BDE8F047AEE0BDE8D9
S1135510F087BDE8F087BDE8F087BDE8F087414635
S11355206A68204600F0A2F8D4F80011FF295BD085
S11355304A1C2923C4F80021635484F80431BDE8CB
S1135540F087BDE8F087BDE8F087D0F80011FF29A7
S11355507CD04A1C2A23C4F80021635484F8043103
S1135560BDE8F0873CF00000FBEF000007F000000E
S113557014F000001CF000001FF000002CF00000EC
S113558038F000000025D4F80831D4F80C2184F850
S1135590FF5020469847D4F820310122134429466D
S11355A0C4F82031CEE60026D0F80831D4F80C2116
S11355B080F8FF609847D4F8203101221344314623
S11355C0C4F8203104E700251946D4F80C21D0F89A
S11355D0083180F8FF509847D4F8202101210A446B
S11355E02B46C4F82021A3E60025D4F80831D4F8CA
S11355F00C2184F8FF5020469847D4F8203101222A
S113560013442946C4F8203193E700251946D4F8F9
S11356100C21D0F8083180F8FF509847D4F82021A5
S113562001210A442B46C4F8202199E60026D0F82B
S11356300831D4F80C2180F8FF609847D4F8203161
S1135640012213443146C4F820312DE7D0F8083143
S1135650D4F80C2180F8FF809847D4F82031012237
S113566013444146C4F8203174E700BF2DE9F04FDC
S1135670044695B01546002A00F09D80D0F81831F4
S1135680002B40F0908013780E464B2B01F20880DB
S1135690DFE813F022060C060C064E06D805C005FA
S11356A07C0577056D056305590546053C053205FE
S11356B028051E051405410737072D072307FC0796
S11356C0D607FC06D306BC07BC07BC07AA07AA0773
S11356D0AA07AA07AA07AA07AA0778077807AA07A2
S11356E0AA074B070F05FA048D04710459037104CA
S11356F0310331039C030703E002B902B502A3029C
S11357000004EB03B303AF03AF034C004C004A04A3
S11357109A028D022002F901D201AB01840106082C
S11357205E0166023701EB00C10097006A681178D8
S1135730272941F07B815268177C5FB1062F41F223
S11357407F84072F06D1AA68117819B991680129B5
S113575001F05A86D4F80011FF2901F057844A1C3D
S11357602823C4F80021635484F8043131466A685C
S11357702046FFF77BFFD4F80011FF2901F03384A2
S11357804A1C2923C4F80021635484F804312B787B
S11357903C2B01F00585082F204601F0F3843146A7
S11357A0AA68FFF763FF15B0BDE8F08FB8F1000FEA
S11357B001D0C4F810710123C4F8183115B0BDE844
S11357C0F08FCD4F6A68FFF751FF07F1080AD4F84C
S11357D000114FF000090AE00B4601315745C4F8A7
S11357E0001104F8038084F8048100F09587FF29F0
S11357F017F8018FF0D1D4F8083184F8FF902046CF
S1135800D4F80C219847D4F8203101210B44C4F872
S113581020310023E2E7B94F6A68FFF727FF07F159
S1135820050AD4F800114FF000090AE00B460131D3
S11358305745C4F8001104F8038084F8048100F08B
S1135840D187FF2917F8018BF0D1D4F8083184F8F7
S1135850FF902046D4F80C219847D4F82031012138
S11358600B44C4F820310023E2E76968FFF792FB98
S11358704FF00008002801F0A08503782F2B41F099
S1135880CD804368002B01F0C980806808F10108CD
S11358900028F2D16B6800930027B94608F1FF3362
S11358A0DFF878A20193C4F81C7120463146009AAF
S11358B0FFF7DCFE019B9F4280F21D87D4F80011A4
S11358C0DFF85CB209E00B460131D345C4F800119E
S11358D0E55484F8045100F00E87FF291BF8015B9E
S11358E0F1D1D4F8083184F8FF902046D4F80C2183
S11358F09847D4F8203101210B44C4F82031002307
S1135900E3E77F4FD0F8001107F11A0A4FF00009BE
S11359100AE00B4601315745C4F8001104F803802E
S113592084F8048100F06987FF2917F8018FF0D10A
S1135930D4F8083184F8FF902046D4F80C21984715
S1135940D4F8203101210B44C4F820310023E2E7CC
S11359506C4ED0F8001106F10E094FF0000809E072
S11359600B4601314E45C4F80011E75484F8047124
S113597000F09B87FF2916F8017FF1D1D4F8083194
S113598084F8FF802046D4F80C219847D4F82031BD
S113599001210B44C4F820310023E3E75A4FD0F827
S11359A0001107F1080A4FF000090AE00B46013123
S11359B05745C4F8001104F8038084F8048100F00A
S11359C0B087FF2917F8018FF0D1D4F8083184F893
S11359D0FF902046D4F80C219847D4F820310121B7
S11359E00B44C4F820310023E2E7484FD0F80011FB
S11359F007F11C0A4FF000090AE00B460131574534
S1135A00C4F8001104F8038084F8048100F0E386EC
S1135A10FF2917F8018FF0D1D4F8083184F8FF90EA
S1135A202046D4F80C219847D4F8203101210B44A6
S1135A30C4F820310023E2E7354FD0F8001107F114
S1135A401D0A4FF000090AE00B4601315745C4F81E
S1135A50001104F8038084F8048100F0D287FF2940
S1135A6017F8018FF0D1D4F8083184F8FF9020465C
S1135A70D4F80C219847D4F8203101210B44C4F800
S1135A8020310023E2E7234FD0F8001107F10A0A7E
S1135A904FF000090AE00B4601315745C4F80011E4
S1135AA004F8038084F8048100F08286FF2917F843
S1135AB0018BF0D1D4F8083184F8FF902046D4F853
S1135AC00C219847D4F8203101210B44C4F820312B
S1135AD00023E2E76A6804A80F4907F07BFD04A8E5
S1135AE007F0A6FD00283FF45EAE04ADD4F8001123
S1135AF02F184FF000081FE0BBF2000048F0000030
S1135B009FF10000ABF200009BF200007BF200006A
S1135B105BF200003CF20000F8EF0000D6F1000058
S1135B20D4F100000B460131BD42C4F80011E65423
S1135B3084F804613FF437AEFF2915F8016BF1D105
S1135B40D4F8083184F8FF802046D4F80C21984713
S1135B50D4F8203101210B44C4F820310023E3E7B9
S1135B60C44FD0F8001107F1160A4FF000090AE0FB
S1135B700B4601315745C4F8001104F8038084F83A
S1135B80048100F08B86FF2917F8018FF0D1D4F837
S1135B90083184F8FF902046D4F80C219847D4F8B3
S1135BA0203101210B44C4F820310023E2E7D0F86E
S1135BB000112D79FF2901F0AD814B1CC4F800318F
S1135BC0655484F80451EEE56A68FFF74FFD2046FA
S1135BD03146AA68FFF74AFDE5E56F68AD683B7892
S1135BE0312B01F08280332B01F0C1803A4601F061
S1135BF0B1FF204631462A4601F0EAFFD3E56A6840
S1135C0001F0A8FFCFE59C4FD0F8001107F1090A75
S1135C104FF000090AE00B4601315745C4F8001162
S1135C2004F8038084F8048100F0EE85FF2917F856
S1135C30018FF0D1D4F8083184F8FF902046D4F8CD
S1135C400C219847D4F8203101210B44C4F82031A9
S1135C500023E2E7884FD0F8001107F1090A4FF05A
S1135C6000090AE00B4601315745C4F8001104F855
S1135C70038084F8048100F0CE85FF2917F8018F92
S1135C80F0D1D4F8083184F8FF902046D4F80C21E0
S1135C909847D4F8203101210B44C4F82031002363
S1135CA0E2E7D5F80480754DD8F80870D0F80011F3
S1135CB005F1080A4FF0000909E00B46013155458A
S1135CC0C4F80011E65484F8046100F0AB85FF29A0
S1135CD015F8016FF1D1D4F8083184F8FF9020460B
S1135CE0D4F80C219847D4F8203101210B44C4F88E
