:1000000000000220AD010000D9010000D90100006C
:10001000D9010000D9010000D9010000D901000078
:10002000D9010000D9010000D9010000D901000068
:10003000D9010000D9010000D9010000D901000058
:10004000D9010000D9010000D11F0000D901000032
:10005000D9010000D9010000D9010000D901000038
:10006000D9010000D9010000D9010000D901000028
:10007000D9010000D9010000D90100008D21000044
:1000800095220000D9010000D9010000D90100002B
:10009000D9010000D9010000D9010000D9010000F8
:1000A000D9010000D9010000D9010000D9010000E8
:1000B000D9010000D9010000D9010000D9010000D8
:1000C000D9010000D9010000D9010000D9010000C8
:1000D000D9010000D9010000D901000010B5054C7C
:1000E000237833B9044B13B10448AFF300800123E4
:1000F000237010BD8C000020000000008C06010061
:10010000084B10B51BB108480849AFF300800848F8
:10011000036803B910BD074B002BFBD0BDE81040AE
:10012000184700BF000000008C060100900000206E
:100130008800002000000000154B002B08BF134B67
:100140009D46A3F5803A00218B460F461348144A7A
:10015000121A0EF048F80F4B002B00D098470E4BA8
:10016000002B00D098470020002104000D000D480E
:10017000002802D00C48AFF300800DF0EBFF200008
:10018000290001F01DFA0DF073FF00BF0000080008
:100190000000022000000000000000008C00002091
:1001A000F800002000000000000000000648804722
:1001B0000649074A074B9A42BEBF51F8040B42F862
:1001C000040BF8E7FFF7B8FF59030000240B010008
:1001D000000000208C000020FEE700BF80B400AFCC
:1001E000044BDB6C1B0EDBB21846BD465DF8047B8E
:1001F000704700BFB081E00F80B582B000AF00F063
:100200001FF87860074B5B6803F00F031A467B68A2
:10021000D3407B60044A7B6813607B6818460837CC
:10022000BD4680BD00800C400800002080B400AFB7
:10023000024B1846BD465DF8047B7047006CDC023B
:1002400080B582B000AF334BDB6A03F47053B3F573
:10025000805F0AD0B3F5005F03D0B3F5006F08D01C
:100260000BE02D4B1B687B6047E04FF400437B6045
:1002700043E02A4B1B687B603FE0264BDB6803F4BE
:10028000E063B3F5007F1BD0B3F5007F05D8002BEA
:1002900024D0B3F5807F16D02BE0B3F5806F09D062
:1002A000B3F5A06F03D0B3F5407F06D021E01C4B1F
:1002B0007B6021E01B4B7B601EE01B4B7B601BE0E7
:1002C0001A4B7B6018E0FFF789FF0346122B02D917
:1002D000174B7B6010E0174B7B600DE0FFF77EFF54
:1002E0000346122B02D9144B7B6005E0134B7B6055
:1002F00002E000237B6000BF00BF064B1B6803F4D5
:10030000E0339B0B01337A68B2FBF3F318460837EE
:10031000BD4680BD00800C4004000020000000208D
:10032000003FAB01406F4001809FD500C0D8A700BF
:1003300040B56400C0CF6A00804F120040420F00F9
:1003400080B400AF034B1B681846BD465DF8047BC4
:10035000704700BF0000002080B400AFBD465DF8CC
:10036000047B704780B400AF4FF400431846BD468D
:100370005DF8047B704700BF80B400AF4FF47A7320
:100380001846BD465DF8047B704700BF80B400AFDF
:10039000034B1B681846BD465DF8047B704700BFE1
:1003A0000400002080B582B000AF78607B68064A08
:1003B0001A600023002B02D0786804F091FC7B685F
:1003C00018460837BD4680BDA8F2000080B582B04F
:1003D00000AF78607868FFF7E5FF786804F080FC8C
:1003E0007B6818460837BD4680BD00BF80B483B027
:1003F00000AF78607B68044A1A607B6818460C3747
:10040000BD465DF8047B704788F2000080B582B07D
:1004100000AF78607B68064A1A600023002B02D088
:10042000786804F05DFC7B6818460837BD4680BDDF
:1004300088F2000080B582B000AF78607868FFF77E
:10044000E5FF786804F04CFC7B6818460837BD4629
:1004500080BD00BF80B483B000AF78607B68044A81
:100460001A607B6818460C37BD465DF8047B704700
:1004700070F2000080B582B000AF78607B68064AF9
:100480001A600023002B02D0786804F029FC7B68F6
:1004900018460837BD4680BD70F2000080B582B0B6
:1004A00000AF78607868FFF7E5FF786804F018FC23
:1004B0007B6818460837BD4680BD00BF80B582B056
:1004C00000AF78607B68084A1A607B681846FFF7BF
:1004D00069FF0023002B02D0786804F001FC7B68E0
:1004E00018460837BD4680BD50F3000080B582B085
:1004F00000AF78607868FFF7E1FF786804F0F0FB00
:100500007B6818460837BD4680BD00BF80B582B005
:1005100000AF78607B68084A1A607B681846FFF76E
:1005200041FF0023002B02D0786804F0D9FB7B68E0
:1005300018460837BD4680BDB8F3000080B582B0CC
:1005400000AF78607868FFF7E1FF786804F0C8FBD7
:100550007B6818460837BD4680BD00BF80B582B0B5
:1005600000AF78607B68064A1A600023002B02D037
:10057000786804F0B5FB7B6818460837BD4680BD37
:1005800050F2000080B582B000AF78607868FFF765
:10059000E5FF786804F0A4FB7B6818460837BD4681
:1005A00080BD00BF80B582B000AF78607B68184620
:1005B000FFF71CFF7B68034A1A607B681846083700
:1005C000BD4680BDB0F4000080B582B000AF786059
:1005D0007B68084A1A607B681846FFF717FF0023FC
:1005E000002B02D0786804F07BFB7B681846083744
:1005F000BD4680BDB0F4000080B582B000AF786029
:100600007868FFF7E1FF786804F06AFB7B681846BA
:100610000837BD4680BD00BF80B483B000AF7860AE
:100620007B68044A1A607B6818460C37BD465DF843
:10063000047B704738F2000080B582B000AF78606C
:100640007B68064A1A600023002B02D0786804F009
:1006500047FB7B6818460837BD4680BD38F200006E
:1006600080B582B000AF78607868FFF7E5FF786802
:1006700004F036FB7B6818460837BD4680BD00BFD6
:1006800080B582B000AF78607B681846FFF7C4FF82
:100690007B68034A1A607B6818460837BD4680BDF0
:1006A00040F4000080B582B000AF78607B68084AF3
:1006B0001A607B681846FFF7BFFF0023002B02D0AB
:1006C000786804F00DFB7B6818460837BD4680BD8E
:1006D00040F4000080B582B000AF78607868FFF722
:1006E000E1FF786804F0FCFA7B6818460837BD46DD
:1006F00080BD00BF80B582B000AF78607B68084ADB
:100700001A607B681846FFF729FF0023002B02D0F0
:10071000786804F0E5FA7B6818460837BD4680BD66
:10072000F0F3000080B582B000AF78607868FFF722
:10073000E1FF786804F0D4FA7B6818460837BD46B4
:1007400080BD00BF80B582B000AF78607B6818467E
:10075000FFF780FE7B68034A1A607B6818460837FB
:10076000BD4680BD78F4000080B582B000AF7860EF
:100770007B68084A1A607B681846FFF77BFE0023F7
:10078000002B02D0786804F0ABFA7B681846083773
:10079000BD4680BD78F4000080B582B000AF7860BF
:1007A0007868FFF7E1FF786804F09AFA7B681846EA
:1007B0000837BD4680BD00BF80B483B000AF78600D
:1007C0007B6818460C37BD465DF8047B704700BF58
:1007D00080B483B000AF78607B6818460C37BD46A4
:1007E0005DF8047B704700BF80B483B000AF7860D1
:1007F0007B6818460C37BD465DF8047B704700BF28
:1008000080B483B000AF78607B6800221A607B6898
:1008100018460C37BD465DF8047B704780B483B042
:1008200000AF78607B6818460C37BD465DF8047BE6
:10083000704700BF80B582B000AF78607B68184613
:1008400001F0B2F87B681033184601F0ADF87B6810
:100850002033184601F0A8F87B683033184601F0C1
:10086000A3F87B684033184601F09EF87B6817E0D8
:100870007B6830331846FFF73DFFFFE77B68203386
:100880001846FFF737FFFFE77B6810331846FFF77E
:1008900031FFFFE77B681846FFF72CFF04F06EFD81
:1008A00018460837BD4680BD80B582B000AF78607D
:1008B0007B6840331846FFF71DFF7B6830331846CE
:1008C000FFF718FF7B6820331846FFF713FF7B689C
:1008D00010331846FFF70EFF7B681846FFF70AFF34
:1008E0007B6818460837BD4680BD00BF80B582B022
:1008F00000AF78607B680433184600F00FFD7B681A
:100900003C33184600F022FC7B684C33184600F05C
:1009100093FC7B6858331846FFF7B2FE7B6864335C
:100920001846FFF73FFE7B6874331846FFF70AFF4F
:100930007B68E9331846FFF73FFF7B68EC331846C6
:1009400001F032F87B68FD33184601F023F97B682B
:1009500003F586731846FFF753FF7B6803F58A7328
:10096000184601F021F87B6803F59273184601F0F0
:100970001BF87B6803F59A731846FFF75BFF7B68EB
:1009800000221A707B68002283F838207B680022DE
:1009900083F860207B68002283F870207B68002247
:1009A00083F8E8207B68002283F8EA207B68002235
:1009B00083F8FC207B68002283F808217B680022F2
:1009C00083F81021786800F07FFB7B6847E07B6844
:1009D00003F59A731846FFF767FFFFE77B6803F597
:1009E00092731846FFF786FEFFE77B6803F58A736C
:1009F0001846FFF77FFEFFE77B6803F5867318460E
:100A0000FFF70CFF7B68FD331846FFF7EDFEFFE7AD
:100A10007B68EC331846FFF76DFEFFE77B68E93330
:100A20001846FFF7D5FE7B6874331846FFF79CFE27
:100A30007B6864331846FFF7C7FD7B685833184658
:100A4000FFF730FE7B684C331846FFF75FFDFFE78A
:100A50007B683C331846FFF731FD04F08FFC1846E5
:100A60000837BD4680BD00BFF0B591B000AF7860DB
:100A7000786800F075F87B681B7883F00103DBB2BF
:100A8000002B26D07B683C3307F10C021046194638
:100A900000F05CFC7B6807F10C0403F1040E04F128
:100AA000300C754626460FCE28606960AA60EB6060
:100AB00010340EF1100E6445F3D1724623461B88A4
:100AC00013807B681A1D7B684C331046194600F072
:100AD000ADFC7B68043318464437BD46F0BD00BF0B
:100AE00080B483B000AF786039607B6818460C37FB
:100AF000BD465DF8047B704780B582B000AF78607A
:100B000039607A683B6810461946FFF7E9FF3B6891
:100B10009A887B689A803B689A687B689A603B6891
:100B2000DA687B68DA607B6818460837BD4680BDA6
:100B300080B582B000AF786039607A683B68104653
:100B40001946FFF7CDFF3B689A887B689A803B681F
:100B50009A687B689A607B6818460837BD4680BDF6
:100B600090B58BB000AF7860786800F0DBF97868FA
:100B700000F040F87B6893F8383083F00103DBB273
:100B8000002B33D07B6803F13C047B6803F16402E3
:100B90007B68743307F10C01084611461A4600F0D1
:100BA000EBFA07F10C0320461946FFF7A5FF07F102
:100BB0000C031846FFF782FC7B6803F14C047B684A
:100BC000743307F11C021046194600F04BFB07F185
:100BD0001C0320461946FFF7ABFF07F11C0318461C
:100BE000FFF794FC7B68012283F838202C37BD4640
:100BF00090BD00BF80B483B000AF78600C37BD46B5
:100C00005DF8047B704700BF80B483B000AF7860AC
:100C100039607B6818460C37BD465DF8047B704729
:100C200080B582B000AF786039607A683B68104662
:100C30001946FFF7E9FF3B681A797B681A713B6830
:100C40005A797B685A713B689A797B689A713B68DC
:100C50009A687B689A603B681A7B7B681A733B686A
:100C60005A7B7B685A733B689A7B7B689A737B6874
:100C700018460837BD4680BD90B5ADB002AF78606C
:100C80007B6893F8FC3083F00103DBB2002B00F0AB
:100C9000ED8007F128020023009310460421022270
:100CA000042300F0A9FE07F1180201230093104667
:100CB000022107220B2300F09FFE07F10802012307
:100CC00000931046022106220B2300F095FE7B685C
:100CD00003F58A7407F138020123009310460121BD
:100CE0000922012300F088FE07F138032046194647
:100CF000FFF796FF07F138031846FFF7FBFC7B6808
:100D000003F5927407F14802012300931046012174
:100D10000A22012300F070FE07F14803204619461D
:100D2000FFF77EFF07F148031846FFF7E3FC7B68F7
:100D300003F59A7407F1580200230093104604212A
:100D40000022042300F058FE07F1580320461946FC
:100D5000FFF766FF07F158031846FFF7CBFC7B68E7
:100D600003F5A27407F168020023009310460421E2
:100D70000122042300F040FE07F1680320461946D3
:100D8000FFF74EFF07F168031846FFF7B3FC7B68D7
:100D900003F5AA7407F1780200230093104604219A
:100DA0000322042300F028FE07F1780320461946A9
:100DB000FFF736FF07F178031846FFF79BFC7B68C7
:100DC00003F5B27407F18802002300931046032153
:100DD0000D22042300F010FE07F188032046194677
:100DE000FFF71EFF07F188031846FFF783FC7B68B7
:100DF00003F5BA7407F1980200230093104603210B
:100E00000E22042300F0F8FD07F19803204619464E
:100E1000FFF706FF07F198031846FFF76BFC7B68A6
:100E2000012283F8FC2007F108031846FFF762FC53
:100E300007F118031846FFF75DFC07F12803184671
:100E4000FFF758FC12E007F108031846FFF752FCC1
:100E5000FFE707F118031846FFF74CFCFFE707F11F
:100E600028031846FFF746FC04F088FAAC37BD4665
:100E700090BD00BF80B483B000AF786039607B68FC
:100E800018460C37BD465DF8047B7047F0B583B05B
:100E900000AF786039607A683B6810461946FFF702
:100EA000E9FF3B685A687B685A603B681A7A7B683E
:100EB0001A723B685A7A7B685A723B685A897B6817
:100EC0005A813B689A897B689A817A683B680E33BD
:100ED00002F10E0003F1300402461946D1F800E099
:100EE0004E688D68C968C2F800E056609560D160B0
:100EF00010331030A342EFD102461B8813807A686A
:100F00003B6802F1400403F140050FCD0FC40FCD43
:100F10000FC40FCD0FC42B6823807B6818460C3795
:100F2000BD46F0BD90B5A1B000AF78607B6893F886
:100F3000E83083F00103DBB2002B21D07B6803F1A2
:100F4000740407F10C0318464FF4165101220023D4
:100F500001F084F807F10C0320461946FFF796FFCD
:100F600007F10C031846FFF7FFFB7B687433064854
:100F700006491A4601F0DCF97B68012283F8E82073
:100F80008437BD4690BD00BF1922000055210000E6
:100F900080B483B000AF786039607B6818460C3746
:100FA000BD465DF8047B704780B582B000AF7860C5
:100FB00039607A683B6810461946FFF7E9FF3B68DD
:100FC0005A687B685A607B6818460837BD4680BD02
:100FD00090B585B000AF78607B6893F8603083F09F
:100FE0000103DBB2002B17D07B6803F1580407F133
:100FF00008031846642100F081FF07F1080320462A
:101000001946FFF7D1FF07F108031846FFF74AFB1F
:101010007B68012283F860207B68583318461437B8
:10102000BD4690BD80B586B000AF78607B6893F810
:10103000083183F00103DBB2002B19D007F10C0358
:10104000184600F0A7FD7B6803F1FD0207F10C03D1
:1010500003CB1060516019889B781181937207F15E
:101060000C031846FFF7C0FB7B68012283F80821B8
:101070007B68FD3318461837BD4680BD80B584B007
:1010800000AF78607B6893F8103183F00103DBB226
:10109000002B12D007F10C031846052100F03AFE90
:1010A0007B68FA68C3F80C2107F10C031846FFF7B8
:1010B000B5FB7B68012283F810217B6803F58673FA
:1010C00018461037BD4680BD80B582B000AF78604D
:1010D0001120022101F006FC02200121012202F070
:1010E00067F81120042101F015FF0B48012101F0E0
:1010F0000FFD0A48012101F00BFD0948012101F013
:1011000007FD0848012101F003FD0748012101F016
:10111000FFFC0837BD4680BD00D204000012040069
:10112000005204000082040000B2040080B483B0C6
:1011300000AF78607B68044A1A607B6818460C37F9
:10114000BD465DF8047B7047A8F2000080B582B010
:1011500000AF78607B681846FFF7E8FF7B68054AB8
:101160001A607B6800229A807B6818460837BD4663
:1011700080BD00BF50F3000080B584B000AFF860C0
:10118000B9607A60FB681846FFF7D0FFFB68084A31
:101190001A60FB68BA689A60FB687A68DA60FB6874
:1011A00000229A80FB6818461037BD4680BD00BFFC
:1011B00050F3000080B483B000AF78607B689B88F8
:1011C0001BB218460C37BD465DF8047B704700BF64
:1011D00080B582B000AF78607B68DB681B681B68F5
:1011E0007A68D26810460349152298470837BD46E9
:1011F00080BD00BF18F3000080B582B000AF7860FA
:101200007B68DB681B681B687A68D26810460449F3
:101210001622984701231BB218460837BD4680BDE9
:1012200030F3000080B483B000AF78600C37BD4667
:101230005DF8047B704700BF80B582B000AF786076
:101240007B681846FFF772FF7B68054A1A607B6867
:1012500001229A807B6818460837BD4680BD00BFD2
:10126000B8F3000080B582B000AF786039607B6869
:101270001846FFF75BFF7B68064A1A607B6801220D
:101280009A807B683A689A607B6818460837BD4642
:1012900080BD00BFB8F3000080B483B000AF7860B9
:1012A0007B689B881BB218460C37BD465DF8047BF3
:1012B000704700BF80B582B000AF78607B689B68E4
:1012C0001B681B687A689268104603491422984785
:1012D0000837BD4680BD00BF80F3000080B582B0F6
:1012E00000AF78607B689B681B681B687A689268AF
:1012F000104604491522984700231BB218460837A8
:10130000BD4680BD98F3000080B483B000AF786024
:101310000C37BD465DF8047B704700BF80B483B0D6
:1013200000AF78607B6800229A857B6800229A6211
:101330007B680022DA857B6800221A867B68184663
:101340000C37BD465DF8047B704700BF80B582B0A6
:1013500000AF786039607B6800229A857B683A68C4
:101360009A627B684FF6FF72DA853B681B68083328
:101370001B683868984703461A4692B27B681A86FB
:101380007868396800F052F87B6818460837BD461F
:1013900080BD00BF80B582B000AF78607B68DA8D19
:1013A0007B681B8E12B21BB29A4217D07B689B6A75
:1013B0001B680C331B687A68926A104698477B68F2
:1013C0009B6A1B6808331B687A68926A10469847C4
:1013D00003461A4692B27B68DA850DE07B689B6A09
:1013E0001B6814331B687A68926A10469847034654
:1013F0001A4692B27B681A867B68DA8D7B681B8EF0
:1014000012B21BB29A420ED07B689B6A1B681033E3
:101410001B687A68926A10469847786800F020F84E
:1014200002467B689A620837BD4680BD80B483B0AF
:1014300000AF786039607B689B8D1AB27B68396831
:1014400043F822107B689B8D9BB29BB201339BB209
:101450009AB27B689A850C37BD465DF8047B70476D
:1014600080B584B000AF78600023FB8122E0FA8968
:101470007B6853F822301B6808331B68F9897A6847
:1014800052F821201046984703461A4692B27B68CC
:101490001B8E12B21BB29A420CBF01230023DBB297
:1014A000002B04D0FA897B6853F822300EE0FB89C8
:1014B0000133FB81FA897B689B8D1BB29A42D6DB94
:1014C0007B68DB8D1AB27B6853F8223018461037E0
:1014D000BD4680BD80B400AF044BDB6C1B0EDBB29D
:1014E0001846BD465DF8047B704700BFB081E00F31
:1014F00080B582B000AFFFF7EDFF0346FB713B1DE7
:10150000184602F00FFBFB790F2B0AD93B79022B0F
:1015100007D9054A044B1B6823F0500343F010031E
:1015200013600837BD4680BDC0800C4080B582B0D6
:1015300000AF78607B6803F59A731846FFF7B4F93B
:101540007B6803F592731846FFF7D4F87B6803F5C0
:101550008A731846FFF7CEF87B6803F58673184642
:10156000FFF75CF97B68FD331846FFF73DF97B68B0
:10157000EC331846FFF7BEF87B68E9331846FFF7EF
:1015800027F97B6874331846FFF7EEF87B686433FD
:101590001846FFF719F87B6858331846FFF782F8AA
:1015A0007B684C331846FEF7B1FF7B683C33184626
:1015B000FEF784FF7B6818460837BD4680BD00BF34
:1015C00080B5E8B000AFFFF793FF3B1D1846FFF76B
:1015D0008DF93B1D1846FFF747FA0346C7F89431CB
:1015E0003B1D1846FFF7F4FC0346C7F890313B1D3E
:1015F0001846FFF717FD0346C7F88C313B1D184608
:10160000FFF73CFD0346C7F888313B1D1846FFF73E
:1016100033FB00F0FFFC00F053FE00F039FBD7F87D
:101620008C012A210022042300F00CFBD7F8900142
:1016300000F08EFC0023C7F89C31002387F89B3113
:10164000D7F890311B6808331B68D7F8900198478A
:101650000246894B1A60D7F890311B680C331B681F
:10166000854A1268D7F89001114698470246834B85
:101670009A428CBF01230023DBB2002B00F0D680FE
:101680003B1D03F58A73184600F016FA0346002B3B
:1016900003D0D7F8880100F0EFFBD7F89401FFF7EB
:1016A00079FED7F890311B6808331B68D7F8900192
:1016B00098470246704B1A60002387F89B31D7F891
:1016C0009C31092B00F2908001A252F823F000BF58
:1016D000F91600001117000029170000411700003B
:1016E000591700007117000089170000A1170000AA
:1016F000B9170000D11700003B1D03F59A73184677
:1017000000F0F0F9D7F89C310133C7F89C318DE037
:101710003B1D03F59A73184600F0E4F9D7F89C31A5
:101720000133C7F89C3181E03B1D03F5A2731846D5
:1017300000F0D8F9D7F89C310133C7F89C3175E037
:101740003B1D03F5A273184600F0CCF9D7F89C3185
:101750000133C7F89C3169E03B1D03F5AA731846B5
:1017600000F0C0F9D7F89C310133C7F89C315DE037
:101770003B1D03F5AA73184600F0B4F9D7F89C3165
:101780000133C7F89C3151E03B1D03F5B273184695
:1017900000F0A8F9D7F89C310133C7F89C3145E037
:1017A0003B1D03F5B273184600F09CF9D7F89C3145
:1017B0000133C7F89C3139E03B1D03F5BA73184675
:1017C00000F090F9D7F89C310133C7F89C312DE037
:1017D0003B1D03F5BA73184600F084F9D7F89C3125
:1017E0000133C7F89C3121E00023C7F89C313B1D31
:1017F00003F59A73184600F08DF93B1D03F5A273AB
:10180000184600F087F93B1D03F5AA73184600F04F
:1018100081F93B1D03F5B273184600F07BF93B1DBF
:1018200003F5BA73184600F075F900BF3B1D03F5C8
:101830009273184600F040F9034683F00103DBB2CF
:10184000002B3FF408AF97F89B3183F00103DBB224
:10185000002B3FF400AFD7F88C012A21002204238B
:1018600000F0F0F9012387F89B31F4E63B1D1846A0
:10187000FFF75CFE03F082FDA80000203F420F004E
:1018800080B483B000AF78607B68044A1A607B68DC
:1018900018460C37BD465DF8047B704750F20000D7
:1018A00080B485B000AF786039607B6803F1047361
:1018B000DA003B6813449B00FB60FB681B6818461A
:1018C0001437BD465DF8047B704700BF80B582B019
:1018D00000AF03463960FB71FA791346DB0013440D
:1018E0009B001C3303F1804303F5C043184639685D
:1018F000FFF7D6FF034618460837BD4680BD00BF38
:1019000080B483B000AF03463960FB710949FA79AE
:101910003B68012000FA03F318461346DB0013442A
:101920009B000B44103358600C37BD465DF8047BB8
:10193000704700BF0060004080B483B000AF034632
:101940003960FB710949FA793B68012000FA03F319
:1019500018461346DB0013449B000B4410331860F9
:101960000C37BD465DF8047B704700BF0060004047
:1019700080B483B000AF03463960FB710949FA793E
:101980003B68012000FA03F318461346DB001344BA
:101990009B000B44183318600C37BD465DF8047B80
:1019A000704700BF0060004080B582B000AF786033
:1019B0007B681846FFF764FF7B680E4A1A607B68F5
:1019C00000221A717B6800225A717B6800229A718A
:1019D0007B6800229A607B6800221A737B68002271
:1019E0005A737B6800229A737B6818460837BD4695
:1019F00080BD00BFF0F3000080B584B000AFF86098
:101A00007A601A460B46FB721346BB72FB68184697
:101A1000FFF736FFFB68274A1A60FB6800221A713D
:101A2000FB6801225A71FB6800229A71FB687A6890
:101A30009A60FB68FA7A5A73FB68BA7A9A73BB7A2F
:101A4000002B08D0BB7A012B05D0BB7A022B02D029
:101A5000BB7A032B03D1FB6800221A7316E0BB7A12
:101A6000042B02D0BB7A052B03D1FB6801221A7329
:101A70000CE0BB7A062B02D0BB7A072B03D1FB68A4
:101A800003221A7302E0FB6802221A73FA7ABB7A05
:101A9000104679681A46BB6901F040FCFB6805E016
:101AA000FB681846FEF75AFD03F068FC184610372D
:101AB000BD4680BDF0F3000080B582B000AF786015
:101AC0007B685A7B7B689B6810461946FFF7FEFED1
:101AD0000346012B0CBF01230023DBB21846083755
:101AE000BD4680BD80B582B000AF78607B685A7B10
:101AF0007B689B6810461946FFF71EFF7B681B68D2
:101B000008331B6878689847034618460837BD466F
:101B100080BD00BF80B582B000AF78607B685A7B23
:101B20007B689B6810461946FFF7EAFE7B681B68D6
:101B300008331B6878689847034683F00103DBB2DB
:101B400018460837BD4680BD80B584B000AF7860C8
:101B50007B681B6808331B68786898470346FB60FE
:101B60007B685A7B7B689B6810461946FFF700FF2D
:101B70007B681B6808331B687868984703461A46D9
:101B8000FB689A4214BF01230023DBB218461037CA
:101B9000BD4680BD80B483B000AF78600A4A0A4B6E
:101BA0009B6B23F4E06343F400739363064A064B94
:101BB0009B6B43F0030393637B6818460C37BD4669
:101BC0005DF8047B704700BF00A0004080B58AB07C
:101BD00000AFF8607A603B600B467B817B893B827B
:101BE00097F838309BB27B827B687B613B8E3B836E
:101BF0003B68FB61BB8E3B8407F11003104819461C
:101C000001F01CFF034687F8273012E097F92730D0
:101C1000012B08D097F92730B3F1FF3F03D13B6880
:101C2000FF221A7009E0064801F0E2FC034687F83B
:101C3000273097F92730002BE8D12837BD4680BDE3
:101C400000A0004090B587B004AF78600846114608
:101C50001A460346FB700B46BB7013467B707B68CD
:101C6000BA781A70FB7899B27A687B685C1C012399
:101C70000093012301937B78029378682346FFF752
:101C8000A5FF7B685B7818460C37BD4690BD00BF4A
:101C900090B585B000AF064B3C460FCB84E80F00F3
:101CA0003B460448194601F067FC1437BD4690BD19
:101CB00024F4000000A0004080B483B000AF78603E
:101CC0004FF6FF7318460C37BD465DF8047B70472E
:101CD00080B584B000AFF860B9607A60F868FFF74B
:101CE000EBFFFA68BB681B01134438337A685A600B
:101CF0001037BD4680BD00BF80B582B000AF7860B0
:101D000039607868FFF7D8FF7B683A68DA6108378E
:101D1000BD4680BD80B58AB000AF786039607B6811
:101D20003A681A6000233B7700237B770023BB7758
:101D30000023FB77002387F82030002387F8213029
:101D4000002387F82230002387F82330002387F808
:101D50002430002387F82530002387F8263003231A
:101D600087F82230012387F8213007F11C031F4830
:101D700002211A4601F0A8FF1C4A1C4B9B6A43F43F
:101D8000803343F00403936218480A21FFF7B4FF3D
:101D90003B68164802211A46FFF79AFF01233B735E
:101DA00000237B730023BB730023FB7300233B746E
:101DB00000237B740023BB740023FB7400233B755A
:101DC00000237B750023BB750023FB7500233B7646
:101DD0000923BB7307F10C030448194601F006FF01
:101DE0007B6818462837BD4680BD00BF000C014007
:101DF00080B582B000AF786039607B681A683B6854
:101E0000D31A002B01DA00230DE07B681A683B68C7
:101E1000D21A7B681A607B681B68054802211A4643
:101E2000FFF756FF012318460837BD4680BD00BFA7
:101E3000000C014080B582B000AF786039607B68EB
:101E40001A683B6813440A2B01DD00230DE07B6810
:101E50001A683B681A447B681A607B681B680548EF
:101E600002211A46FFF734FF012318460837BD4602
:101E700080BD00BF000C014080B582B000AF78602B
:101E8000114B1B78002B0ED078680521FFF7D2FF8D
:101E90000346002B03D00C4B01221A7011E00A4BB1
:101EA00000221A700DE078680521FFF7A1FF0346B4
:101EB000002B03D0044B00221A7002E0024B0122D7
:101EC0001A700837BD4680BD0C00002080B483B076
:101ED00000AF0346FB71084997F907305B09FA79AF
:101EE00002F01F02012000FA02F241F823200C3711
:101EF000BD465DF8047B704700E100E080B582B02C
:101F000000AF786039607B681846FEF785FB7B6818
:101F10000B4A1A600B4A3B6813600B493A68134638
:101F20005B001344DB00CB617B6800225A60074BE7
:101F300000221A607B6818460837BD4680BD00BF86
:101F400040F40000B000002000000140AC00002080
:101F500080B483B000AF7860034B01225A600C3725
:101F6000BD465DF8047B70470000014080B483B03B
:101F700000AF7860054B1A687B685A607B685B68C5
:101F800018460C37BD465DF8047B7047AC00002056
:101F900080B483B000AF786039600B4B1B683A683F
:101FA0009A4207D9094B1A683B68D21A064B1B683C
:101FB000134403E0044B1A683B68D31A18460C37E5
:101FC000BD465DF8047B7047AC0000201000002087
:101FD00080B400AF0B4B01229A610B4B1A680B4B7C
:101FE0001B681344084A1360074B1A68084B1B68A8
:101FF0009A4202D3044B00221A60BD465DF8047B6E
:10200000704700BF00000140AC000020B00000207D
:102010001000002080B500AF034B0122DA600220DF
:10202000FFF754FF80BD00BF0000014080B483B0C3
:1020300000AF0346FB71084997F907305B09FA794D
:1020400002F01F02012000FA02F241F823200C37AF
:10205000BD465DF8047B704700E100E080B586B0C6
:1020600000AFF860B96011461A460B46FB71134683
:10207000BB71FB681846FEF7EDF9FB68244A1A604D
:10208000BB681B01234A92FBF3F3013B9A00FB68F8
:102090005A60214AFB685B689B015361FB68FA79CF
:1020A0001A72FB68BA795A72FB6800225A81FB687F
:1020B00000229A810023FB8207E0FB8AFA6813441E
:1020C00000229A73FB8A0133FB82FB8A312BF4D9FD
:1020D0000023BB8208E0BB8AFA681344002283F81D
:1020E0004020BB8A0133BB82BB8A312BF3D90A491A
:1020F000FB681B7A1A03FB685B7A1B02134343F0ED
:1021000005034B60FB6818461837BD4680BD00BF0D
:1021100078F4000000366E0100C4004080B483B043
:1021200000AF78600A4B1B6903F08003002B14BFDB
:1021300001230023DBB2002B03D0054BDB69DBB2AC
:1021400000E0302318460C37BD465DF8047B70472D
:1021500000C4004080B584B000AF78607B68002B7D
:102160000ED07B68FB60084BDB69DBB2FB72FB685F
:102170001B681B6807F10B02F8681146012298479B
:102180001037BD4680BD00BF00C4004080B500AF21
:10219000034B1B68034A12681046984780BD00BF76
:1021A000B8000020BC00002080B487B000AFF86009
:1021B000B9601346FB80FB68FA885A810023FB82D2
:1021C0000CE0FB8ABA681178FA6813440A469A73DD
:1021D000BB680133BB60FB8A0133FB82FA8AFB8850
:1021E0009A42EED3FB6801229A810A4B1B6903F0E5
:1021F0004003002B14BF01230023DBB2002B03D0CC
:10220000044AFB689B7B53631C37BD465DF8047B27
:10221000704700BF00C4004080B485B000AF786054
:102220007B68002B2FD07B68BB60BB685A89BB687A
:102230009B899A4219D9164B1B6903F04003002B66
:1022400014BF01230023DBB2002B1CD0104ABB6853
:102250009B891946BB680B449B7B5363BB689B8976
:1022600001339AB2BB689A810DE00023FB8107E03D
:10227000FB89BA68134400229A73FB890133FB81FE
:10228000FB89312BF4D91437BD465DF8047B7047C8
:1022900000C4004080B500AF064B1B68064A1268B8
:1022A00010469847054A054B9B6C43F00103936425
:1022B00080BD00BFB4000020BC00002000C400406E
:1022C00080B500AF184B14221A67174B0022DA674B
:1022D0000F20FFF7ABFE1020FFF7A8FE134A134BA9
:1022E000DB6843F4406343F00503D3600F4A0F4BB0
:1022F0001B6843F4C04313600C4A0C4B9B6C43F4C3
:10230000FF5343F019039364084A084B5B6D43F491
:10231000817343F001035365044A044BDB6C43F0C3
:102320000503D36480BD00BF0060004000C40040CE
:1023300080B485B000AFF860B9607A60064AFB6887
:102340001360064ABB681360054A7B681360143744
:10235000BD465DF8047B7047B4000020B800002043
:10236000BC00002080B582B000AF78607B689B68BD
:102370001B6810331B687A689268104698477B6820
:1023800000221A710837BD4680BD00BF80B582B0FB
:1023900000AF78607B689B681B680C331B687A68A9
:1023A0009268104698477B6801221A710837BD462B
:1023B00080BD00BF80B582B000AF78607B689B684D
:1023C0001B6814331B687A689268104698477B68CC
:1023D0001B7983F00103DAB27B681A710837BD46B6
:1023E00080BD00BF80B487B000AFF860B9607A608C
:1023F000FB6803F10473DA00BB6813449B007B6144
:102400007B697A681A601C37BD465DF8047B7047AB
:1024100080B485B000AF786039607B6803F10473E5
:10242000DA003B6813449B00FB60FB681B6818469E
:102430001437BD465DF8047B704700BF80B485B09B
:1024400000AF78607B68002B04D07B68B3F5004F49
:1024500000D800BF7B68B3FA83F3C3F11F03FB60AE
:10246000FB6818461437BD465DF8047B704700BF13
:1024700080B400AF044BDB6C1B0EDBB21846BD46CC
:102480005DF8047B704700BFB081E00F80B400AFFF
:10249000054BDB6C03F47F031B0CDBB21846BD4617
:1024A0005DF8047B704700BFB081E00F80B582B05B
:1024B00000AFFFF7EBFF03464A2B04D0792B02D085
:1024C000482B21D022E0144B1B699BB203F03F0341
:1024D0009BB21B02FB80104B9B6903F0F0039AB286
:1024E000FB881343FB800C4BDB6903F0F0031B09F3
:1024F0009AB2FB881343FB80FB88B3F5017F01D3BD
:10250000064B04E0064B02E0054B00E000231846B2
:102510000837BD4680BD00BFD0FF0FE000366E011A
:102520000048E80180B584B000AF78600123FB600B
:10253000FFF7BCFF02467B689A4204D30023FB608E
:102540000023BB600BE0FFF7B1FF03465A007B6836
:102550009A4202D30123BB6001E00223BB6008481A
:102560001E21FA68FFF73EFF0549054B5B6823F41F
:102570008072BB681B0213434B601037BD4680BDA1
:1025800000800C4080B582B000AF05481E21FFF7E7
:102590003FFF78607B6818460837BD4680BD00BFA6
:1025A00000800C4080B582B000AF214B5B6903F422
:1025B000E063B3F5007F1CD0B3F5007F05D8002B96
:1025C00025D0B3F5807F1FD02AE0B3F5C06F24D0AB
:1025D000B3F5E06F1ED0B3F5407F21D1FFF748FF80
:1025E0000346122B02D9134B7B601CE0124B7B601D
:1025F00019E0FFF73DFF0346122B02D90F4B7B601A
:1026000011E00F4B7B600EE00E4B7B600BE00E4B3E
:102610007B6008E00D4B7B6005E00D4B7B6002E0CA
:1026200000237B6000BF7B6818460837BD4680BD2D
:1026300000800C40804F120040420F0040B5640003
:10264000C0CF6A00C0D8A700809FD500406F40016E
:10265000003FAB0180B582B000AF0D4800F0ACFB8D
:102660000346FB70FB78072B05D0092B07D1FDF73C
:10267000E7FD786006E0FFF795FF786002E0002351
:102680007B6000BF7B6818460837BD4680BD00BF31
:1026900006000C0080B485B000AF78603960284B2C
:1026A000DB6B002B14BF01230023BB72244B41F6CC
:1026B0007132DA63224B5B6803F00703FB60FB684F
:1026C000012B01D9042B02D10023FB7202E001236C
:1026D000FB7200BF7B681B4A934207D9FB7A002B31
:1026E00001D0052300E00423FB6016E07B68154A57
:1026F00093420BD87B68144A934207D9FB7A002B8C
:1027000001D0032300E00123FB6006E0FB7A002BED
:1027100001D0022300E00023FB600949084B5B68FD
:1027200023F00702FB6813434B60BB7A002B02D0F7
:10273000034B0022DA631437BD465DF8047B704713
:1027400000000C400048E8010024F40080B500AF10
:10275000FDF76CFD034618460021FFF79BFF80BD87
:1027600080B582B000AF7860396078683968FFF76B
:1027700091FF0837BD4680BD90B585B000AF786049
:102780000023BB607B68344A934203D0334A9342B0
:1027900000D000E000BF786800F00EFB0346FB604D
:1027A0007B682D4A934203D02C4A934206D00CE01A
:1027B0002B4B9B6A03F00303FB6006E0284B9B6AEC
:1027C00003F00C039B08FB6000BFFB68032B3AD8A7
:1027D00001A252F823F000BF0F280000E9270000F3
:1027E000F1270000F9270000FDF7BCFDB8602DE0DF
:1027F000FDF7CCFDB86029E0FDF7FEFC0446FFF7CD
:10280000C1FE0346013324FA03F3BB601EE000233C
:10281000BB607B68104A934203D07B680F4A9342A7
:1028200010D10F4B9A6A7B680B498B4201D1102360
:1028300000E0142322FA03F3002B03D0FDF79CFDE4
:10284000B86003E002E00023BB6000BFBB6818462D
:102850001437BD4690BD00BF02001A0003001C00E3
:1028600000800C4080B483B000AF7860094B5B6D92
:1028700003F00103002B00D006E000BF054B1A6DEA
:102880007B681340002BF9D10C37BD465DF8047B03
:10289000704700BF00800C4080B582B000AF104888
:1028A00000F08AFA0346FB70FB78032B07D0092B54
:1028B00009D0022B0BD1FDF769FD78600AE0FDF726
:1028C00051FD786006E0FDF7BBFC786002E0002374
:1028D0007B6000BF7B6818460837BD4680BD00BFDF
:1028E00007232200B0B584B000AF786039607B6800
:1028F0001B0903F00F03FB60FB68013B062B00F292
:10290000F48001A252F823F025290000EB2A0000F0
:10291000EB2A00005B29000085290000D329000074
:10292000972A00003B68002B03D03B68082B00D897
:1029300000BFFFF70BFF6F496E4B1B6823F4E032BB
:102940003B68013B9B0313430B60FDF755FCB860EC
:10295000B8680021FFF704FFC8E03B68002B04D0F3
:102960003B68B3F5007F00D800BF3868FFF766FD0D
:10297000386060495F4B9B6823F00F023B6813434C
:102980008B60B3E03B68002B04D03B68B3F5007F5D
:1029900000D800BFFFF7DAFEFDF752FC02463B68A5
:1029A000B2FBF3F31846FFF7BDFD3868FFF746FDAD
:1029B000386050494F4B5B6823F00F023B6813436C
:1029C0004B60FDF719FCB860B8680021FFF7C8FE3E
:1029D0008CE07B68484A93421ED0474A934203D812
:1029E000464A934207D055E0454A934225D0454A8E
:1029F00093423FD04EE00420FFF734FF3868FFF7E2
:102A00001DFD38603B493B4B9B6E23F0F0023B6859
:102A10001B0113438B663DE00420FFF723FF38685A
:102A2000FFF70CFD38603349324B9B6E23F4706224
:102A30003B681B0213438B662CE03B680F2B03D9CA
:102A40003B68802B00D800BF0420FFF70BFF3868DD
:102A5000FFF7F4FC3860274D264B9B6E23F440545F
:102A60001020FFF7EBFC02463B689B1A1B03234335
:102A7000AB660FE00420FFF7F5FE3868FFF7DEFCD9
:102A800038601C491B4B9B6E23F003023B681343C9
:102A90008B6600BF2AE07B681B4A934203D01B4A27
:102AA000934210D020E04020FFF7DCFE3868FFF7AB
:102AB000C5FC38600F490F4B1B6F23F003023B68C6
:102AC00013430B6710E04020FFF7CCFE3868FFF798
:102AD000B5FC38600749074B1B6F23F030023B6899
:102AE0001B0113430B6700BF00E000BF1037BD465A
:102AF000B0BD00BF00800C406026140060161000BE
:102B00006000260060062A00700716007017180083
:102B100080B586B000AF78600B46FB7000233B6148
:102B20007B681B0A03F00F03013B092B45D801A268
:102B300052F823F0712B0000772B00005D2B000072
:102B4000BB2B0000BB2B00007D2B0000872B00005F
:102B5000BB2B0000BB2B0000912B0000194B7B61AD
:102B6000194800F03DF803461846FFF7DBFC12E079
:102B7000164B7B610FE0164B7B610CE0154B7B61C4
:102B800001233B6107E0144B7B6110233B6102E0B2
:102B9000124B7B6100BF7B681B0B03F01F03FB60C4
:102BA0003B69002B02D03869FFF75CFEFB7878693F
:102BB000F9681A46FFF716FC00E000BF1837BD465B
:102BC00080BD00BF40800C400043020008800C40E4
:102BD00044800C4058800C4060800C4078800C4051
:102BE00090B585B000AF78607B6803F47813B3F5D7
:102BF000B01F00F0AB80B3F5B01F1AD8B3F5402F6B
:102C000000F0BF80B3F5402F08D8B3F5003F3CD0AB
:102C1000B3F5802F2DD0002B27D0BEE0B3F5801F59
:102C20003CD0B3F5A01F47D0B3F5602F00F0AD80C6
:102C3000B3E0B3F5081F00F0AC80B3F5081F0AD865
:102C4000B3F5D01F25D0B3F5E01F7AD0B3F5C01F80
:102C500000F08980A1E0B3F5201F4ED0B3F5281F06
:102C600062D0B3F5181F35D097E0FDF7E9FAF860A8
:102C700096E0FDF7E5FAF8604C4B9B6803F00F0314
:102C80001A46FB68D340FB608AE0FDF7B5FAF860AE
:102C900086E04748FFF770FDF86081E04448FFF7A1
:102CA0006BFDF860414B9B6E03F0F0031B091A4665
:102CB000FB68D340FB6073E03D48FFF75DFDF860C3
:102CC0003A4B9B6E03F470631B0A1A46FB68D340B1
:102CD000FB6065E03648FFF74FFDF860334B9B6EB5
:102CE00003F440531C0B1020FFF7A8FB03462344BA
:102CF0001A46FB68D340FB6052E02D48FFF73CFDCD
:102D0000F8602A4B9B6E03F440531B0B1A46FB687A
:102D1000D340FB60254BDB6F03F007030133FA68F8
:102D2000B2FBF3F3FB603BE02148FFF725FDF860C1
:102D30001E4B9B6E03F003031A46FB68D340FB60F7
:102D40002EE01C48FFF718FDF86029E01948FFF74E
:102D500013FDF860154B1B6F03F003031A46FB6865
:102D6000D340FB601CE01348FFF706FDF8600F4BF3
:102D70001B6F03F030031B091A46FB68D340FB604E
:102D80000EE0FFF767FCF8600AE0FFF70BFCF86065
:102D900006E0FFF781FDF86002E00023FB6000BF62
:102DA000FB6818461437BD4690BD00BF00800C403C
:102DB00002001A0003001C0080B485B000AF7860E8
:102DC0000123FB737B6803F00F03BB60BB68013B0F
:102DD000062B00F2938001A252F823F0F92D000097
:102DE0002F2E00006B2E0000FD2E0000FD2E000097
:102DF000A72E0000C92E0000454BDB6A03F4705378
:102E0000B3F5805F09D0B3F5005F03D0B3F5006F71
:102E100006D008E00223FB7308E00323FB7305E000
:102E20000423FB7302E00523FB7300BF69E0384B0A
:102E30009B6A03F00303022B06D0032B07D0012B60
:102E400008D10323FB730FE00223FB730CE006237E
:102E5000FB7309E02E4B9B6A03F48033002B02D0F6
:102E60000A23FB7300E000BF4BE0294B9B6A03F091
:102E70000C03082B06D00C2B07D0042B08D10323FE
:102E8000FB730FE00223FB730CE00623FB7309E0E6
:102E90001F4B9B6A03F48013002B02D00A23FB73A1
:102EA00000E000BF2DE01A4B1B6803F08053002B9D
:102EB00003D0B3F1805F03D023E00723FB7302E06C
:102EC0000923FB7300BF1CE0114BDB6A03F4603382
:102ED000B3F5803F08D0B3F5003F08D0B3F5004FFD
:102EE00008D10923FB7308E00223FB7305E00323E9
:102EF000FB7302E00123FB7300BF02E00023FB73BE
:102F000000BFFB7B18461437BD465DF8047B704755
:102F100000800C4080B588B000AF78600B46FB7035
:102F20000323FB610323FB7600233B617B6803F0F3
:102F30000F03FB60FB68013B062B00F2288101A216
:102F400052F823F0612F00003730000037300000C6
:102F50008F3100008F310000FD300000273100006C
:102F6000FB78023B082B00F2148101A252F823F0F7
:102F7000952F00009F2F0000A92F0000EB2F0000CD
:102F80009331000093310000933100009331000031
:102F9000933100000423FB610023FB7631E003231F
:102FA000FB610123FB762CE00223FB610223FB760D
:102FB000FFF77CFA034601331846FFF7B3FAFDF733
:102FC000BFF90246764B9A4206D9764A754B1B6882
:102FD00043F06003136014E0724A724B1B6823F0E5
:102FE000600343F0200313600BE00123FB61032324
:102FF000FB76FFF75BFA034601331846FFF792FAB8
:1030000000BFFB7E18460121012200F0D1F8FFF736
:103010009DFB644AFB6953626348FFF7E1FD034689
:103020001846FFF77FFAFDF7E7F8B860B8680021A7
:10303000FFF796FBB0E0FB78013B092B00F2AB8079
:1030400001A252F823F000BF713000007730000079
:103050008730000097310000973100009730000062
:10306000973100009731000097310000B330000025
:1030700000237B6122E000200121012200F098F86A
:1030800002237B611AE001200121012200F090F867
:1030900001237B6112E0FDF7AFF8B860B868FFF775
:1030A00041FA424804210122FFF79CF903237B6186
:1030B00004E000237B6101233B6100BFFB68022B1E
:1030C0000DD13849374B9B6A23F4803323F0030337
:1030D0007A691A433B691B0413438B625CE03149F4
:1030E000304B9B6A23F4801323F00C037A6992001F
:1030F0001A433B691B0513438B624DE0FB78072B9A
:1031000002D0092B07D047E0264A264B1B6823F044
:103110008053136006E0234A224B1B6843F0805320
:10312000136000BF38E0FB78032B14D0092B22D0AA
:10313000022B00D030E000200121012200F038F8FD
:10314000184B40225A6200BF164BDB6A03F48033EF
:10315000002BF9D01AE001200121012200F028F80B
:10316000104B60225A6200BF0E4BDB6A03F400333F
:10317000002BF9D00AE00B4B20225A6200BF094B0A
:10318000DB6A03F40043002BF9D000BF04E000BF6A
:1031900002E000BF00E000BF2037BD4680BD00BF99
:1031A0000048E80100800C400043020040800C40D1
:1031B00080B586B000AF0346FB710B46BB7113466A
:1031C0007B71FB79042B48D801A252F823F000BF91
:1031D0001D3200000F320000F3310000E531000025
:1031E0000132000001233B610223FB6001237B616C
:1031F0001DE004233B610823FB6003237B6116E091
:1032000010233B612023FB6005237B610FE04023FB
:103210003B618023FB6007237B6108E04FF48073F0
:103220003B614FF40073FB6009237B6100BFBB79F6
:10323000002B0ED00B4A3B6913627B79002B0DD01B
:1032400000BF09487969FFF7E3F80346002BF8D07F
:1032500004E0044AFB68136200E000BF1837BD4673
:1032600080BD00BF00800C402C800C4080B483B037
:1032700000AF03463960FB71FB79002B0DD0FB7961
:10328000012B0AD0FB79022B07D0FB79032B04D04A
:10329000FB79042B01D0FB79052B0949FA793B68AE
:1032A000012000FA03F318461346DB0013449B0089
:1032B0000B44103358600C37BD465DF8047B7047F3
:1032C0000060004080B483B000AF03463960FB71FA
:1032D000FB79002B0DD0FB79012B0AD0FB79022B57
:1032E00007D0FB79032B04D0FB79042B01D0FB79A9
:1032F000052B0949FA793B68012000FA03F31846C7
:103300001346DB0013449B000B44103318600C374A
:10331000BD465DF8047B70470060004090B585B005
:1033200000AFB9607B600346FB731346BB73FB7B46
:10333000002B0DD0FB7B012B0AD0FB7B022B07D08F
:10334000FB7B032B04D0FB7B042B01D0FB7B052BE9
:10335000BB7B002B0DD07B68002B05D0FB7B184678
:10336000B968FFF7AFFF04E0FB7B1846B968FFF7C9
:103370007DFFBB68072B1CD82A4CFA7B2948F97BB8
:103380000B46DB000B449B0003445968BB689B0061
:1033900018460F238340DB430B40B97BB86880009D
:1033A000814019431346DB0013449B0023445960BA
:1033B00024E01C4CFA7B1B48F97B0B46DB000B44DA
:1033C0009B00034408331968BB6803F18043083B42
:1033D0009B0018460F238340DB431940B87BBB6832
:1033E00003F18043083B9B0000FA03F319431346A3
:1033F000DB0013449B00234408331960BB7B002B84
:103400000DD17B68002B05D0FB7B1846B968FFF710
:1034100059FF04E0FB7B1846B968FFF727FF143714
:10342000BD4690BD0060004080B487B000AFF8603A
:10343000B9607A60FB6803F10473DA00BB68134477
:103440009B007B617B697A681A601C37BD465DF81A
:10345000047B704780B485B000AFF860B9607A60D3
:10346000FB681A68BB68DB431A407B681A43FB6839
:103470001A601437BD465DF8047B704780B588B08C
:1034800000AFF860B9607A60FB707B68002B00D1F8
:103490005FE0FB681B6823F44072FB681A60FA68FF
:1034A000FB781B0210464FF440711A46FFF7D2FF1B
:1034B000BB68002B03D12848FFF792FBB8604FF0A0
:1034C000FF33BB61FB681B6803F00203002B11D0C4
:1034D000FB78012B07D0022B08D0002B00D008E08E
:1034E0001E4BBB6105E01E4BBB6102E01D4BBB6187
:1034F00000BF10E0FB78012B07D0022B08D0002B77
:1035000000D008E0184BBB6105E0184BBB6102E03E
:10351000174BBB6100BFFB78164AD35C7B617B68AD
:103520009B00BA68D21A7B69796801FB03F3B2FB8E
:10353000F3F3013BFB61FB681B6803F00203002B04
:1035400004D0FB69002B01D10123FB61FA69FB6800
:103550001A612037BD4680BD4081040040164000FE
:10356000C0D8A7008050740180841E004054890098
:10357000002D3101D8F4000080B582B000AF786032
:1035800039607B68174A934203D07B68164A93429E
:1035900000D100BF7B6800225A637B68134A1A631C
:1035A0007A683B685B78002B01D0002300E00123A0
:1035B000104601211A46FFF737FF3B6859683B6800
:1035C0009A683B681B7B7868FFF758FF7A683B680E
:1035D0001B78104600211A46FFF726FF0837BD4624
:1035E00080BD00BF00A0004000A40040CFFF01004C
:1035F00080B489B000AF78607B689D4A934203D065
:103600007B689C4A934200D100BF7B68984A9342F2
:1036100002D1994BBB6108E07B68964A934202D184
:10362000964BBB6101E0FC2300E2BB699B687B61B8
:103630007B689B6A3B613B6903F4C063002B14D039
:103640003B6903F40073002B03D0BB69FD225A7061
:1036500007E03B6903F48063002B02D0BB69FE22C4
:103660005A70BB6909221A70CCE1BB691B78082B20
:1036700000F2C08101A252F823F000BFA136000081
:10368000F336000079370000CB3700001D3800000A
:10369000813800000939000047390000D93900009D
:1036A0007B695B8803F01003002B09D07B691B88C2
:1036B0001B0A9BB203F0060343F0F003FB610EE02C
:1036C0007B691B8803F0FE03FB617B695B8803F069
:1036D0000203002B03D0FB6943F00103FB61BB69CC
:1036E00001221A707B68FA695A627B6801225A606B
:1036F00088E13B6903F08003002B0CD07B688022BB
:103700001A63BB69FF225A70BB6908221A707B6872
:1037100002225A602FE03B6903F04003002B2AD0BD
:103720007B6840221A637B695B8803F01003002BDF
:1037300008D0BB6902221A707B691B88DAB27B68E9
:103740005A6218E07B695B8803F00203002B0ED0FD
:10375000BB6907221A70BB691B797A69DB001344C5
:103760001B89012B07D17B6808225A604AE1BB699B
:1037700005221A7045E145E13B6903F08003002B07
:103780000CD07B6880221A63BB69FF225A70BB6928
:1037900008221A707B6802225A6015E03B6903F028
:1037A0004003002B10D07B6840221A637B695B8842
:1037B00003F00203002B03D0BB6903221A7020E13F
:1037C000BB6905221A701CE11CE17B695B8803F070
:1037D0001003002B09D07B691B881B0A9BB203F0E6
:1037E000060343F0F003FB6104E07B691B8803F0F0
:1037F000FE03FB617B695B8803F00403002B03D0AD
:10380000FB6943F00103FB61BB6904221A707B680A
:1038100001225A607B68FA695A62F3E03B6903F05F
:103820008003002B0CD07B6880221A63BB69FF22C7
:103830005A70BB6908221A707B6802225A6015E030
:103840003B6903F04003002B10D07B6840221A63D1
:103850007B695B8803F00403002B03D0BB6907225C
:103860001A7003E0BB6905221A70CAE0CAE000BF03
:1038700000A0004000A40040C0000020CC000020B8
:10388000BB695A88BB691B797969DB000B441B89CA
:103890009A4224D3BB6900225A80BB691B79013349
:1038A000DAB2BB691A717B695B8803F00403002BF1
:1038B00003D0BB6903221A70A3E07B695B8803F025
:1038C0000103002B03D1BB691B79012B06D9BB690E
:1038D00008221A707B6802225A6093E091E0BB696B
:1038E0001B797A69DB0013445A68BB695B88591CF1
:1038F00088B2B969488013441B781A467B685A62BB
:10390000BB6906221A707DE03B6903F08003002B3F
:103910000CD07B6880221A63BB69FF225A70BB6996
:1039200008221A707B6802225A600BE03B6903F0A0
:103930004003002B06D07B6840221A63BB69052236
:103940001A705EE05EE03B6903F02003002B42D07A
:10395000BB691B797A69DB0013441B89FB607B68B8
:10396000DB69FB72BB695B881A46FB689A420ED220
:10397000BB691B797A69DB0013445A68BB695B88B1
:10398000591C88B2B96948801344FA7A1A70BB6925
:103990005B881A46FB689A420CD3FB68012B02D164
:1039A0007B6808225A60BB6908221A707B68022271
:1039B0005A6010E07B6804225A60FB68012B0AD928
:1039C000BB695B881A46FB68013B9A4203D17B685E
:1039D00008225A6016E015E03B6903F48073002B5F
:1039E00007D07B684FF480721A63BB6909221A7092
:1039F00008E007E0BB69FB225A70BB6909221A7014
:103A000000E015E6BB691B78092B0BD17B6800220F
:103A10005A63BB695B785BB2012B05D1BB6900229D
:103A20005A7001E0012301E0BB695B785BB2184684
:103A30002437BD465DF8047B704700BF80B584B075
:103A400000AF786039607B68314A934203D07B686D
:103A5000304A934200D100BF7B682D4A934202D185
:103A60002D4BFB6008E07B682A4A934202D12B4B26
:103A7000FB6001E0FC2345E07B689B6803F00103E9
:103A8000002B02D07B6820225A603B685B8803F0E1
:103A90000203002B03D03B681B89002B09D03B6835
:103AA0005B8803F00403002B05D03B681B8A002BC6
:103AB00001D1FC2326E0FB6800221A70FB6801227A
:103AC0005A70FB6800225A80FB6800221A71FB685A
:103AD0003A689A607B68C0225A607B689B6A03F0F0
:103AE0002003002B01D07B68DB697B680C4A1A63DA
:103AF0007B685B6B43F4FC627B685A637868FFF712
:103B000077FD03465BB218461037BD4680BD00BF47
:103B100000A0004000A40040C0000020CC00002015
:103B2000CFFF010080B485B000AF78601A4B5B69AD
:103B3000DBB203F00F03DBB29B00FB73164B1B6978
:103B400003F0C0039B09DAB2FB7B1343FB737B6872
:103B5000FA7B9A70104B1B69DBB203F03F03DAB2B9
:103B60007B685A700C4B9B6903F0F0031B09DBB2B6
:103B70001B01FB73084BDB6903F0F0031B09DAB28E
:103B8000FB7B1343FB737B68FA7B1A701437BD46CB
:103B90005DF8047B704700BFD0FF0FE080B483B0B6
:103BA00000AF78607B680D4A93420BD07B680C4A6B
:103BB000934207D07B680B4A934203D07B680A4A42
:103BC000934201D1012300E0002303F00103DBB2A3
:103BD00018460C37BD465DF8047B70470000014075
:103BE0000004014000080140000C014080B582B093
:103BF00000AF786039607868FFF7D0FF3B681B78CA
:103C000083F00103DBB2002B02D07B6802225A60F2
:103C10007B6800225A623B689B781A063B68DB7817
:103C20001B041A433B689B799B021A433B68DB7970
:103C30001B0213433A68127A1A433B685B78002BE5
:103C400001D0402300E000231A433B685B7A002B3D
:103C500001D0802300E000231A433B689B7A002BAD
:103C600001D0202300E000231A433B68DB7A002BBD
:103C700001D0102300E000231A433B681B79002B7E
:103C800002D04FF4005300E000231A433B685B79F5
:103C9000002B02D04FF0805300E000231A433B6812
:103CA0001B7B002B01D0082300E000231A437B6814
:103CB0001A603B681B78002B02D07B6801225A6097
:103CC0000837BD4680BD00BF80B584B000AFF86046
:103CD000B9607A60F868FFF761FF7B681B789A0625
:103CE0007B685B781B061A437B689B781B041A432E
:103CF0007B68DB781B031A437B681B799B021A43A2
:103D00007B685B791B0213437A6892791A437B685C
:103D1000DB79002B02D04FF4001300E000231A439C
:103D20007B681B7A002B02D04FF4801300E0002345
:103D30001A437B685B7A002B01D0102300E000233C
:103D40001A437B689B7A002B01D0042300E00023F8
:103D50001A43F968BB6803331B010B441A60103720
:103D6000BD4680BD03685A004CBF43F0004323F0BA
:103D700000431844704700BF2DE9F04F83B099B35A
:103D80004B1E1746054698460193002606EB08048D
:103D900004EBD47464104FEAC40A05EB0A0B5846CE
:103DA000FFF7E0FF019B8146A3420AF10800284487
:103DB0000ED0FFF7D7FFB94500F1FF3004D9B44268
:103DC0000CD004F1FF38E1E7B84203D2661CDDE70E
:103DD000B945F4D8584603B0BDE8F08F4FF0000B5A
:103DE000584603B0BDE8F08F8B46584603B0BDE897
:103DF000F08F00BF012807D0022807D0044B00280D
:103E00000CBF1846002070470248704702487047B0
:103E1000094500000D4500001145000030B5254B57
:103E200083B004468D1E7BB3284601A9AFF3008002
:103E300020B301992A46FFF79FFF0546F0B1FFF72F
:103E400091FF6B68A064012B12D0002B05F10400D8
:103E500021DBFFF787FF0023E06423650368002B65
:103E60001DDBFFF77FFF00232061184603B030BD44
:103E7000002323610523184603B030BD00232361CE
:103E80000923184603B030BD0B490C4B0846591A9C
:103E9000C9100191CEE70123E0642365DEE7C3F397
:103EA0000360FFF7A7FF002820610CBF0923002350
:103EB000DBE700BF00000000CC080100240B01007C
:103EC000036810B5DA07044606D49B0700F14800E2
:103ED00009D500F085FC2368590709D51A070ED5C6
:103EE000DB0613D510BD00F073FC23685907F5D429
:103EF00004F1D00000F07CFC23681A07F0D404F52C
:103F0000A87000F07DFC2368DB06EBD404F5E870B4
:103F1000BDE8104000F0B8BC03680BB1184470470E
:103F20001846704709207047704700BF70B50446B7
:103F30000D4608E02A6C23696261012021462A4669
:103F40009847082808D12046296CFFF767FF0646E6
:103F50000028EFD00AF085F80728FBD13046296CFD
:103F6000FFF7E2FF281D00F027FC00BF2DE9F04716
:103F70000646ADF5727D03AD0C1D17460FCC0FC57F
:103F80000FCC0FC50FCC0FC594E80F0002AC4FF05B
:103F9000000ED6F80C80D6F8189085E80F00304651
:103FA000216CC4F800E0FFF739FF0546002F0CBF75
:103FB00009270A277DB1A36B47F010018DE8100295
:103FC0000120636432463346C04778BB28460DF56E
:103FD000727DBDE8F087236C214673614FF4F07267
:103FE0007AA80AF0F5F8336931467AAA3846984734
:103FF000889B82468DE81002394663640120324670
:104000003346C04790B920467AA94FF4F0720AF0BF
:10401000DFF8BAF1080F06D13046216CFFF7FEFE3B
:1040200009270546C6E7BAF1070F04D009200DF5A8
:10403000727DBDE8F0872846216CFFF775FF03A865
:1040400000F0BAFB406C7047F0B5CB6BF9B00B6475
:104050000E1D01AD0F4604460FCE0FC50FCE0FC586
:104060000FCE0FC596E80F004FF0FF3685E80F0022
:10407000009606E0236921466A46984708280546C7
:1040800008D120461099FFF7C9FE0028F2D0092078
:1040900079B0F0BD6846FFF713FF062DF7D1204633
:1040A0003946FFF743FF00BF30B4DD6BC16082616A
:1040B00019461D64002230BC58E700BF70B5436943
:1040C000C66804460D460B6426B10122FFF74EFF79
:1040D00009F0C7FF0369214602202A4698470728AE
:1040E00007D0082803D120462946FFF71FFF09F013
:1040F000B8FF3046296CFFF717FF281D00F05CFB66
:10410000C26832B110B4CC6B00220C645DF8044B71
:104110002CE799E7704700BF836813B1014601207F
:104120001847704700B5042907D8DFE801F00309F4
:10413000060909000BB90F2A05D902205DF804FB16
:1041400001205DF804FB00EB820252681846019BD7
:104150001A605DF804FB00BF00B585B00A4603ABEA
:10416000002100930B46FFF7DDFF039805B05DF8D3
:1041700004FB00BF00B5042907D8DFE801F00309FC
:10418000060909000BB90F2A05D902205DF804FBC6
:1041900001205DF804FB019900EB820209681846D2
:1041A00051605DF804FB00BF10B50C4684B004AB51
:1041B00043F8042D0021009322460B46FFF7DAFF57
:1041C00004B010BDF0B5D36BADF50F7D1364151DB4
:1041D00017AC07460E460FCD0FC40FCD0FC40FCD41
:1041E0000FC495E80F004FF0FF3584E80F001695D7
:1041F00011E016A86A46FFF7D7FF16A83146B84760
:1042000080B9049B0820694616AA984705280446E9
:1042100009D0092806D026996846FFF7FFFD0C2132
:104220000028E6D0092416A8FFF74AFE20460DF51F
:104230000F7DF0BD2DE9F04FCC6C904622688BB01D
:1042400004340D460792089400F003091E46002B23
:1042500064D11202032307928DF825608DF8243073
:104260002B6DB9F1020F08BFAC6B13F0010343D102
:1042700000F00800C2B2039201932768002F3DD0DE
:10428000022E47D02788B4F802A00434AB6C2AF081
:10429000010B40460F219B44FFF75EFF834537D853
:1042A00027F001039B4458452CBF002001200AF051
:1042B000010A07F0010747EA4A0ABAF1010F43D0A1
:1042C0003AD3BAF1020F1FD1236823F000420292C1
:1042D000B9F1000F7BD138B1039A002A00F0838036
:1042E000029A002A00F0A680002B7ADB029B03F1E1
:1042F000010A04EB8A04C0E700230193022E40DD8B
:10430000FFF710FE002842D009200BB0BDE8F08F67
:104310000020CCE7D4F804A00834B7E7022B9FDCD8
:10432000130CDFB2120402218DF8253004EB870450
:1043300007928DF8241093E7B9F1000F02D00028FE
:1043400040F0AD80043498E7B9F1000F26D1B0B148
:1043500094E80C00D70F9A1CD6D005F1580201330F
:10436000069200F09280201DFFF7D6FD3A460146E6
:1043700006AB284601F026F8002840F0B580083446
:104380007BE7404607A900F019FB0028BCD1019B40
:10439000002B59D108200BB0BDE8F08F40460D210D
:1043A0002F6AFFF7D9FE8742E9D1AB6A9C42E6D17A
:1043B0002046FFF7D7FC0F2102464046FFF7F4FEE8
:1043C00040462A460021FFF7EFFE07209DE74046C2
:1043D0000D212F6AFFF7C0FE874245D02368002BCE
:1043E00084DA043482E7029B23B305F1580305966F
:1043F000039F04F1040ADDF808B0CDF810901E46C2
:1044000002E0D9454F4615D050460696FFF784FD89
:104410000022014606AB284600F0D4FF07F101094F
:104420000AF1040A0028ECD0029BDDF810909F42AC
:10443000059ED3D140460D21FFF78EFE069B2862D4
:10444000AC626B62062060E70F214046FFF784FEF6
:104450000E2102464046FFF7A7FE40460F21294A9B
:10446000FFF7A2FE072050E7AB6A9C42B6D10422B8
:1044700002990027A318A962EF622A636B6323687D
:10448000BB421FDB0123019330E740460D21FFF7BC
:1044900063FE2862069B6B62AC62062035E720460D
:1044A000FFF760FC04340646AC63284600F0E6FFE4
:1044B00000283FF429AF404632460F21FFF774FE33
:1044C000072022E70846013004EB8000FFF74AFC92
:1044D0000F2102464046FFF767FE404639462A460E
:1044E000FFF762FE072010E707460D214046FFF761
:1044F00033FE022F2862CDD12B46069A43F82C2F8B
:104500006B62C9E735560000002393E6012391E66C
:1045100002238FE6F0B50546C5B004290CD8DFE8C4
:1045200001F056030B300E00012B4FEA124496B2F5
:1045300065D0052B00F08380022045B0F0BD002B34
:10454000FAD1102AF8D82B68DC0600F1E98022AEF7
:104550003046019200F0A2F9A86B019A00230124D1
:1045600004FA03F1114203D00168043046F8231025
:104570000133042BF4D1A863304600F085F9002004
:10458000DBE7032BD8D1140C97B23B19102BD3D8EF
:104590002B681E0700F1E48022AE30467F0000F059
:1045A00051F906EBC4027B1EAC6B57B12146043AAD
:1045B00051F8040B013B42F8040F581CF8D104EBEE
:1045C00087043046AC6300F01BF90020B5E7002BF0
:1045D000B2D1AC6B97B2281D012606FA03F139421D
:1045E00003F1010302D0216804340160102B00F1B3
:1045F0000400F2D112F400501FD1AC639DE73219D0
:10460000102A99D80F2C97D829680027C80754D4A6
:1046100022A8019300F0E0F8019B19E00846374614
:10462000012B00F097800F2CA86302D822A800F07D
:10463000D7F817B102A800F0DBF800207DE73719A2
:10464000202F3FF679AF0F2C30D93746002E44D1BA
:10465000A96B3246002EE1D000278E4644A84FEACF
:10466000420C00EBC4000CF1FF328C385EF8046B96
:10467000013A40F8046F561CF8D101EB8C00002F72
:10468000CED02246102C44A938BF102201EBC20222
:10469000A2F5C47201467800043A01EB800051F89B
:1046A000046B814242F8046FF9D1B9E7102F41D968
:1046B0002A68103FD007114610D521F00102052BC2
:1046C0002A60019328465BD021F0030140F8481B83
:1046D00000F082F8019B002F4AD02A6851075BD472
:1046E000012B63D00F2C04D822A8019300F07CF892
:1046F000019B002FACD002A8019300F07DF8019B34
:10470000C4F11002002AA96BA7DC2246102C44A891
:1047100038BF102200EBC202A2F5C4727800BBE7DA
:1047200023F010032B6005F5E870019200F0B6F855
:10473000019A0CE72968C8071DD5284621F0010217
:1047400042F0020240F8482B0193002700F04CF899
:10475000019BC9E70430A86322A800F039F86CE790
:1047600023F008032B6005F5A87000F06BF813E741
:10477000012B3FF44DAF0F2C98BF0027B4D967E74A
:1047800042F0020240F8482B00F02EF8019B002F67
:10479000AAD02A685107A5D5284622F0040240F87D
:1047A000D02B019300F028F8019B99E722A80193F0
:1047B00000F012F8019BA3E700F1340191E8380002
:1047C0009C46A6464CF8045D90E8FF0FE54600BD08
:1047D00090EC210B704700BF80EC210B704700BFAD
:1047E00090EC200B704700BF80EC200B704700BF9F
:1047F000D0EC200B704700BFC0EC200B704700BF0F
:10480000F0EC0201F0EC0211F0EC0221F0EC0231CC
:10481000F0EC0241F0EC0251F0EC0261F0EC0271BC
:10482000F0EC0281F0EC0291F0EC02A1F0EC02B1AC
:10483000F0EC02C1F0EC02D1F0EC02E1F0EC02F19C
:10484000704700BFE0EC0201E0EC0211E0EC022155
:10485000E0EC0231E0EC0241E0EC0251E0EC0261FC
:10486000E0EC0271E0EC0281E0EC0291E0EC02A1EC
:10487000E0EC02B1E0EC02C1E0EC02D1E0EC02E1DC
:10488000E0EC02F1704700BFB0FC0181B0FC019187
:10489000B0FC01A1B0FC01B1704700BFA0FC0181D8
:1048A000A0FC0191A0FC01A1A0FC01B1704700BFD8
:1048B000EC4600B52DE900502DE9FF1F4FF0000335
:1048C0002DE90C0001A9FFF7BFFBDDF840E012B0B5
:1048D000704700BFEC4600B52DE900502DE9FF1FE1
:1048E0004FF000032DE90C0001A9FFF7E7FBDDF80D
:1048F00040E012B0704700BFEC4600B52DE9005013
:104900002DE9FF1F4FF000032DE90C0001A9FFF76F
:10491000F7FBDDF840E012B0704700BFEC4600B591
:104920002DE900502DE9FF1F4FF000032DE90C0089
:1049300001ABFFF7B9FBDDF840E012B0704700BFF4
:10494000EC4600B52DE900502DE9FF1F4FF00003A4
:104950002DE90C0001AAFFF735FCDDF840E012B0AC
:10496000704700BF037A1BB9437A43B9B020704740
:104970005A1E036802721A020260180E70474268DB
:10498000013B10B4437213680321141D01721A0213
:10499000446002605DF8044B180E704700B585B0A6
:1049A00003AB002100930C220B46FFF7BBFB0398DF
:1049B00005B05DF804FB00BFF0E700BF2DE9F04350
:1049C00006460D4685B04FF000082846FFF7CAFF9F
:1049D000B028044600F0B58020F07F0111F0FF01FF
:1049E00020D000F0F003802B7AD0902B36D0A02B73
:1049F00049D0B02B5CD0C02B00F0898000F0F803C8
:104A0000D02B0BD100F00702013242F400223046D5
:104A100001210523FFF77EFD0028D6D0092005B02F
:104A2000BDE8F0830DF10C090B468700CDF800902E
:104A300030460D22FFF776FBFFB2039B043760067A
:104A40004FF000014CBFDF1BFF18CDF800900B4664
:104A500030460D220397FFF78DFBB6E700F00D03FC
:104A60000D2BDBD003AF002100F00F020B460097A7
:104A70003046FFF757FB002100970B4630460D22CA
:104A8000FFF778FBA1E7C3434FF47F6203F007030E
:104A90001A41010702F47F624FF0000148BF42F45F
:104AA00080420B463046FFF735FD0028B6D18CE733
:104AB000B1284CD0B2285DD0B32800F08A8000F035
:104AC000FC03B42BAAD000F007020132012142F40A
:104AD00000220B463046FFF71DFD00289ED174E7EB
:104AE0002846FFF73FFF24022043B0F5004F95D042
:104AF00004010021A2B20B463046FFF70BFD00284F
:104B00008CD114F4004F18BF4FF001085DE7C628A0
:104B100072D0C7287AD000F0F803C02B00F089804B
:104B2000C82800F0A580C9287FF478AF2846FFF791
:104B300019FF00F00F02013200F0F00042EA0032EB
:104B400065E7B8F1000F00F08280002067E7284693
:104B5000FFF708FF024600283FF460AF10F0F001B5
:104B60007FF45CAF30460B46FFF7D4FC00287FF49F
:104B700055AF2AE700210DF10C090D220B46CDF8A7
:104B800000903046FFF7CEFA2846FFF7EBFE02060C
:104B90004FF002040CD5039B00F07F00A0400344BB
:104BA00028460393FFF7DEFE030604F10704F2D460
:104BB000039B00F07F00A04003F5017300211C1847
:104BC000CDF800900B4630460D220394FFF7D2FA41
:104BD000FBE62846FFF7C6FE00F00F02013200F0A8
:104BE000F000012142EA00320B463046FFF792FC0A
:104BF00000287FF413AFE8E62846FFF7B3FE00F085
:104C00000F02013200F0F0000321EBE72846FFF726
:104C1000A9FE024600283FF401AF10F0F0037FF434
:104C2000FDAE30460421FFF775FC00287FF4F6AE98
:104C3000CBE600F00F020132032142F420220B46A2
:104C40003046FFF767FC00287FF4E8AEBDE603AC12
:104C500041460E22434600943046FFF763FA009423
:104C6000304641460F224346FFF784FA4046D6E6D7
:104C70002846FFF777FE00F0F00200F00F03103235
:104C8000013343EA0232C2E610B5C36C84B003209C
:104C90005A688DF80C00DC7912020833084601A925
:104CA00001928DF80D400293FFF788FE04B010BD0D
:104CB00008B5FFF781FE806C08BD00BF08B5FFF79F
:104CC0007BFEC36CD87903EB8000083008BD00BFC1
:104CD00008B509F0C6F900BF08B509F0C2F900BF70
:104CE00009F05EBA10B50446024B036000F01CFCEC
:104CF000204610BDE8F4000010B50446FFF7F2FFAF
:104D00002046FFF7EDFF204610BD2DE9F041069E3D
:104D1000804696420F4615461C4603D1194600F0C0
:104D200017FB58B9D8F808003946036806961E6A7A
:104D30002A462346B446BDE8F04160470620BDE858
:104D4000F0812DE9F14F0E461946834617469946E4
:104D50000A9CDDF82CA0DDF830800D9D00F0F8FAFB
:104D600078B1002E2C602F7106DB3444A0450CBFB7
:104D700006240124AC711EE002361CD10123AB7164
:104D800019E0444504D15846514600F0E1FA88B98B
:104D9000DBF80800314603680A94CDF82CA0CDF862
:104DA00030800D95DC693A464B46A44601B0BDE81B
:104DB000F04F60476F71002001B0BDE8F08F2DE922
:104DC000F04104460F4616461D4600F0C0FB48B9A8
:104DD000A0683946036832469C692B46A446BDE864
:104DE000F0416047BDE8F08100231A4630B510F865
:104DF000015B05F07F04944023432C0602F1070277
:104E0000F5D40B6030BD00231A4630B510F8014BC5
:104E100004F07F0595402B43250602F10702F5D4E7
:104E20001F2A06D8640642BF4FF0FF3404FA02F28C
:104E300013430B6030BD5028F7B505460F461446A6
:104E40001E4605D1D01C20F0030050F8043B33E08F
:104E500000F00F030C2B23D8DFE803F01A07121A17
:104E60001E222222220C161A1E00204601A9FFF73C
:104E7000BBFF03E0204601A9FFF7C5FF019B11E03E
:104E8000204630F8023B0DE0204630F9023B09E0B5
:104E9000204650F8043B05E0204650F8083B01E06E
:104EA00009F0DFF843B105F07002102A18BF3C4644
:104EB0002A06234448BF1B68336003B0F0BD08B521
:104EC0000346FF2B08461CD003F07003202B0ED0A6
:104ED00003D8B3B1102B12D113E0402B0BD0502BC1
:104EE0000FD0302B0BD1BDE80840FFF7F1BEBDE875
:104EF0000840FFF7F1BEBDE80840FFF7D9BE09F052
:104F0000B0F8002008BD2DE9F04107460C460846E0
:104F1000394616461D46FFF7D2FF324601462B465C
:104F20002046BDE8F041FFF786BF73B50E46144634
:104F3000054610B1FFF7BCFEFFE720603178721C18
:104F4000FF2905D02846231DFFF7DDFF024600E0BC
:104F500060601378501CFF2B237507D01023237536
:104F600001A9FFF741FF019B034400E00023E36038
:104F7000037801A963750130FFF736FF019B0344F5
:104F8000236102B070BD1FB50A4603AB0021009338
:104F90000B46FFF7C7F8039805B05DF804FB000067
:104FA0002DE9F04F002391B0049300F00303012B8F
:104FB00005460C4617460ED002D3022B02D0E0E085
:104FC000010713D520463946FFF75EFE08B10920D8
:104FD00092E1082090E102070AD40E6A38460D21BA
:104FE000FFF7D1FF864203D1062602E0012600E04A
:104FF000022610AB43F82C4D002105F00805009364
:105000002E4338460C220B46FFF7B4F8062E0CD17F
:10501000D4F83080A56AB8F1000FD4F82C900CBFFA
:105020004FF0010A4FF0030A05E13846FFF746FE4C
:1050300081460028C6D00AAA49463846FFF775FFC0
:10504000394605469DF83C00FFF739FF0F210C90CB
:105050003846FFF798FF20F0010000F1FF380E9B63
:105060009D4233D22A469DF83D1006AB0020FFF743
:105070004AFF9DF83D10024607AB0020FFF743FFB3
:1050800008AB02469DF83D100020FFF73CFF09A940
:10509000FFF7AAFE0A9B069A05461344984501D2DB
:1050A0000E9DDCE7079A13449845D8D2089818B1AA
:1050B0000B9B00EB030800E08046099810B10E9DA1
:1050C00001382844B8F1000F05D17BE74FF0000804
:1050D0004FF0010A0EE1002800F00A8116F00805E1
:1050E00012D0472323704E2363705523A3704323AC
:1050F000E370462323714F2363715223A37100236E
:10510000E3714FF0000A19E0E379012B0CBF54F86A
:10511000203C04F158030493F3E74FF0020E0D9A7C
:105120000C9903FB1E2209ABFFF785FE09990029A4
:1051300062D074BB0898002862D0584407A9FFF7D2
:1051400062FE08A98346FFF75EFE079B002B50D046
:1051500026DD9DF83C00FF2815D000F00702042A48
:105160000FD801A151F822F08D51000083510000A9
:105170001B5100008D5100007D5100004FF0080EC2
:10518000CDE708F06EFF4FF0000EC8E74FF0040EB9
:10519000C5E72046002204AB00F014F960BBC9E764
:1051A0000D995A1CD4B1CDB9049BA1EB8202069390
:1051B000A2F1040C5CF8041F61B161442046002296
:1051C00006ABCDF80CC000F0FDF8DDF80CC00028EF
:1051D000F0D0012181F00101C9B207E06FF0030CAA
:1051E0000CFB02F28958B1FA81F149090029A1D0DA
:1051F00002E04FF0010A9DE7079D4FF0030A06E029
:10520000BAF1000F3FF4DEAE05464FF0020AF30795
:1052100011D5BAF1020F3FF4D5AE38460D21049EE8
:10522000FFF7B1FE66622062A562C4F82C90C4F854
:105230003080062060E016F0080608D0BAF1010FB1
:1052400001D100F069F8002D24DA00F077F8BAF106
:10525000010F02D1204600F0DEF9002D1ADA0AAA69
:1052600049463846FFF761FE9DF83C003946FFF796
:1052700026FE6FF0030305FB03330D9A0C901344D5
:1052800053F826200AB10136FAE70422A662E0624A
:105290002263636310AB002143F8244D0A46009358
:1052A00038460B46FEF766FF10AB43F8205D002141
:1052B0000122009338460B46FEF75CFF0F2138466B
:1052C000FFF761FE00F0010010AB40EA080043F870
:1052D0001C0D0021009338460F220B46FEF74AFFB3
:1052E000BAF1020F02D1204600F0C8F8072003E00F
:1052F0004FF0020A00258AE711B0BDE8F08F00BF29
:1053000008B5804708F0ADFE024B1868BFF35F8F09
:10531000704700BF1400002008B5FFF7F5FFFFF746
:10532000EFFF08B58047FFF7F7FF0000024B186852
:10533000BFF35F8F704700BF1800002008B5FFF76C
:10534000F5FFFFF7EEFF7047002070470020704721
:10535000814208B50ED0406803782A2B0CD04968EA
:105360000B782A2B08BF013109F062F8B0FA80F0FF
:10537000400908BD012008BD002008BD1EB400F092
:105380009AF81EBCFFF7A6FA0378472B17D143788B
:105390004E2B14D18378552B11D1C378432B0ED1CA
:1053A0000379432B0BD143792B2B08D183792B2BFA
:1053B00005D1C07901288CBF002001207047002052
:1053C000704700002DE9F3411E4603780446472B41
:1053D0008846C57914D143784E2B11D18378552B4B
:1053E0000ED1C378432B0BD10379462B08D14379D7
:1053F0004F2B05D18379522B02D10DB9012005E045
:105400002046FFF7C1FF00282FD0002000230022F4
:10541000019278B983B9012D0ABF54F8203CA4F158
:105420002003783B012D0CBF54F8204C58341F68E2
:10543000019402E00F4F00E00F4F3B6838469B6835
:10544000984720B1019B02241B68019300E00124CE
:10545000D8F8003040461D69394601AA0123A84703
:1054600028B1019B2046336001E00123CFE702B061
:10547000BDE8F08110F600003CF6000070B504466F
:1054800000F032F905462046A4F12006FFF77CFF24
:1054900050B154F8043C0133012B44F8043C08D1CA
:1054A000AB6844F8083C03E0AB680BB1FFF734FF8E
:1054B000AE60012070BD70B500F016F98468054635
:1054C0000CB9FFF729FF04F120063046FFF75CFF17
:1054D00038B1E369013BE36123B9A269AA60A36122
:1054E00000E0A860304670BD7FB5102302930368CA
:1054F000002415469E6900946B468DF80440039481
:105500001268B0479DF8043003F00603062B11BF64
:105510002046009B01202B6004B070BD0098904293
:105520000CBF06200120704710B50446024B0360F3
:10553000FFF709FF204610BD60F5000010B50446D6
:10554000FFF7F2FF2046FFF7CBFB204610BD38B532
:1055500015461C46FFF7FCFE20B10823E360062336
:105560002560237138BD2DE9F04106460C461546ED
:105570001F46FFF7EDFE48B9032F07D823682046E2
:1055800031462A46BDE8F0415B691847BDE8F08125
:105590002DE9F041069E1F46089B80469E42154617
:1055A000099C03D10799FFF7D3FE48B94046394615
:1055B000FFF7CEFE28B1012326602571A37100E01C
:1055C00065710020BDE8F08108B503491B22022067
:1055D00008F05AFFFFF7A0FEB2F500000378472B52
:1055E00017D143784E2B14D18378552B11D1C37822
:1055F000432B0ED10379432B0BD143792B2B08D1AD
:1056000083792B2B05D1C07901288CBF0020012084
:1056100070470020704710B5044648B100F03BF8D1
:105620002046FFF7DBFF18B154F8140CFFF768FEB3
:10563000FFF772FE70B50646FFF7D0FF18B156F8B7
:10564000184C002501E004460125304600F023F8FF
:105650000DB1FFF773FE2046FFF763FE0378472B7B
:1056600017D143784E2B14D18378552B11D1C378A1
:10567000432B0ED10379432B0BD143792B2B08D12C
:1056800083792B2B05D1C07901288CBF0020012004
:10569000704700207047F8B5054600F025F806462B
:1056A00004682846A5F12007FFF7D8FF20B90CB100
:1056B000FFF732FE376015E055F80C3C2846002B0A
:1056C000B4BFC3F10103013345F80C3C7368A74232
:1056D00003F1FF3373601CBF45F8104C37606C6AF0
:1056E000FEF718FD2046F8BD00487047D80000209E
:1056F0001F4BF7B51A781F4D12B12B681E4831E0C9
:1057000001221A7008F0A0FC50B3446800212378ED
:105710004FF0FF322A2B08BF013402AB43F8042DAF
:1057200020460A4608F01EFC2B680646D968134836
:1057300008F006FD019B0F4F13B93B68304601E0AE
:1057400020463B68D96808F0FBFC2B680C48D968F8
:1057500008F0F6FC019B43B9304608F021FD04E057
:105760002B680848D96808F0EBFC08F07AFC00BF09
:10577000E40000207C00002044F6000062F60000F7
:1057800093F6000096F6000070B44C1E4A2C2CD8FC
:10579000DFE804F03C3C3C3C2B2B2B2B26263C2604
:1057A00026262626262626262626262B2727272790
:1057B000272727273C26262626262B26273D3C2B37
:1057C0003C27273D2B2B26263C3C3C3C3C263C3CA6
:1057D000263C2B2B2626262B2B2B2626263C3C0034
:1057E000CAB144698569AC4202DB002070BC7047D5
:1057F00004EB440506690134AD00446174190CD012
:1058000071556260A360204670BC70471AB1002BCE
:10581000E7D11846EAE71046E8E72046E6E700BF8A
:1058200030B443698469A34209DA03EB4304056990
:105830000133A40043612B1901D001B112B930BC6E
:10584000002070470020285559609A60184630BCE7
:10585000704700BFF8B5C368154604460E461A786F
:105860000F4616E0562A24D04B2A2FD1236B002D49
:1058700003F10603E160236314BF1E211B210022F4
:1058800013462046FFF780FF3860F0B1E368071D3C
:105890001A78722A03F10101E4D1226B002D03F181
:1058A000010302F10902E360226314BF1C211921E4
:1058B000E5E7226B002D03F1010302F10902E36029
:1058C000226314BF1D211A21D9E7F8BDADB9462ABC
:1058D00013D1B74211D01D201E211C2207E01B2B23
:1058E0000DD0192B00D132700436B74205D036687E
:1058F00033781A2BF3D13070F6E73846F8BD3170A3
:10590000F2E700BF10B4C3680A46197852290FD0D5
:105910004F2903D010465DF8044B7047046B2021DB
:10592000033404630133C3605DF8044B00232BE7A9
:10593000046B1F2102340463F4E700BFC2681378CC
:10594000532B01D0002070472DE9F041531CC36058
:105950005378EBB1931CC36054785F2C26D100239D
:10596000026A934211D2826AC1690132826251F89D
:105970002300BDE8F0810121424B03F1C4051A78F0
:10598000A2423CD01C33AB42F9D10020BDE8F081EB
:105990001C4683681B07EED40029EDD0C368197834
:1059A000433901298CBF00210121E5E7A4F130052D
:1059B000EBB2092B60D800210DE0303B9942E4D8CE
:1059C000C2681478511C1CB1C16014785F2C14D0CB
:1059D0001946A4F13005EDB2A4F1410201EBC10377
:1059E000092DD2B204EB8303E7D9192ACDD801EBF4
:1059F000C10204EB8203373BE0E70133B0E75A69A9
:105A0000002A34D044698569D3F818C0AC422CDA36
:105A100004EB4406D0F810E0B60001341EEB060794
:105A2000446127D04FF018080EF806803E467A6091
:105A3000C7F808C0C662A9B1DE681969026BA54241
:105A40000A440263A1DD04EB44020569631C920071
:105A50004361AB1899D01820A8545E60996018462D
:105A6000BDE8F0815E689968E8E70026E2E78569AD
:105A70004469E0E73E46DDE7A4F14103192B9AD9DA
:105A800087E700BFC4F6000070B505460E46144611
:105A9000002A48D02378013B4A2B2AD8DFE803F0BC
:105AA0003535353E292926263535353535353535D3
:105AB00035353535353535293535353535353535A2
:105AC00035352E2E353529353535353535353535A0
:105AD00029263535353535353535353535352929A9
