:1000000000000220AD010000D9010000D90100006C
:10001000D9010000D9010000D9010000D901000078
:10002000D9010000D9010000D9010000D901000068
:10003000D9010000D9010000D9010000D901000058
:10004000D9010000D9010000D9010000D901000048
:10005000D9010000D9010000D9010000D901000038
:10006000D9010000D9010000D9010000D901000028
:10007000D9010000D9010000D9010000D901000018
:10008000D9010000D9010000D9010000D901000008
:10009000D9010000D9010000D9010000D9010000F8
:1000A000D9010000D9010000D9010000D9010000E8
:1000B000D9010000D9010000D9010000D9010000D8
:1000C000D9010000D9010000D9010000D9010000C8
:1000D000D9010000D9010000D901000010B5054C7C
:1000E000237833B9044B13B10448AFF300800123E4
:1000F000237010BD78000020000000004CD30000E9
:10010000084B10B51BB108480849AFF300800848F8
:10011000036803B910BD074B002BFBD0BDE81040AE
:10012000184700BF000000004CD300007C000020F6
:100130007400002000000000154B002B08BF134B7B
:100140009D46A3F5803A00218B460F461348144A7A
:10015000121A0AF04AFF0F4B002B00D098470E4BA3
:10016000002B00D098470020002104000D000D480E
:10017000002802D00C48AFF300800AF0EDFE20000A
:10018000290000F0D7FB0AF075FE00BF0000080050
:1001900000000220000000000000000078000020A5
:1001A000B400002000000000000000000648804766
:1001B0000649074A074B9A42BEBF51F8040B42F862
:1001C000040BF8E7FFF7B8FFDD01000040D50000A1
:1001D0000000002078000020FEE700BF80B400AFE0
:1001E000BD465DF8047B704780B582B000AF786093
:1001F0007B68064A1A600023002B02D0786801F061
:1002000071FC7B6818460837BD4680BD58C00000A9
:1002100080B582B000AF78607868FFF7E5FF786856
:1002200001F060FC7B6818460837BD4680BD00BF02
:1002300080B582B000AF78607B68084A1A607B683E
:100240001846FFF7D1FF0023002B02D0786801F099
:1002500049FC7B6818460837BD4680BD98C0000041
:1002600080B582B000AF78607868FFF7E1FF78680A
:1002700001F038FC7B6818460837BD4680BD00BFDA
:1002800080B582B000AF78607B68084A1A607B68EE
:100290001846FFF7A9FF0023002B02D0786801F071
:1002A00021FC7B6818460837BD4680BDD0C00000E1
:1002B00080B582B000AF78607868FFF7E1FF7868BA
:1002C00001F010FC7B6818460837BD4680BD00BFB2
:1002D00080B483B000AF78607B68044A1A607B68A2
:1002E00018460C37BD465DF8047B704740C00000DF
:1002F00080B582B000AF78607B68064A1A60002340
:10030000002B02D0786801F0EDFB7B6818460837B7
:10031000BD4680BD40C0000080B582B000AF7860AF
:100320007868FFF7E5FF786801F0DCFB7B6818462A
:100330000837BD4680BD00BF80B582B000AF786091
:100340007B681846FFF7C4FF7B68034A1A607B6826
:1003500018460837BD4680BD70C1000080B582B028
:1003600000AF78607B68084A1A607B681846FFF720
:10037000BFFF0023002B02D0786801F0B3FB7B683D
:1003800018460837BD4680BD70C1000080B582B0F8
:1003900000AF78607868FFF7E1FF786801F0A2FBB2
:1003A0007B6818460837BD4680BD00BF80B582B067
:1003B00000AF78607B680433184600F055F97B681D
:1003C0001833184600F0C8F87B682033184600F050
:1003D00007F97B6828331846FFF7AEFF7B680022D9
:1003E0001A707B6800221A757B68002283F834201B
:1003F0007B6806E07B6818331846FFF719FF01F0A9
:10040000BFFE18460837BD4680BD00BF90B587B017
:1004100000AF7860786800F05BF87B681B7883F049
:100420000103DBB2002B19D07B68183307F10802F7
:100430001046194600F030F97B681C1D07F10803CF
:1004400007CB20606160A2601B88A3817B681A1DB6
:100450007B6820331046194600F08AF97B68043324
:1004600018461C37BD4690BD80B483B000AF78609D
:1004700039607B6818460C37BD465DF8047B7047D1
:1004800080B582B000AF786039607A683B6810460A
:100490001946FFF7E9FF3B689A887B689A807B687A
:1004A00018460837BD4680BD80B582B000AF786081
:1004B00039607A683B6810461946FFF7D5FF3B68FC
:1004C0009A887B689A807B6818460837BD4680BD4D
:1004D00090B587B000AF78607B681B7D83F0010327
:1004E000DBB2002B25D07B6803F1180407F1080369
:1004F000184600F031F807F1080320461946FFF7C7
:10050000BFFF07F108031846FFF792FE7B6803F16F
:10051000200407F11003184600F062F807F11003F9
:1005200020461946FFF7C0FF07F110031846FFF7F2
:10053000A7FE1C37BD4690BD80B483B000AF786085
:100540007B68044A1A607B6818460C37BD465DF824
:10055000047B704758C0000080B582B000AF78605F
:100560007B681846FFF7E8FF7B68054A1A607B68DE
:1005700000229A807B6818460837BD4680BD00BFC0
:1005800098C0000080B483B000AF78607B689B881F
:100590001BB218460C37BD465DF8047B704700BFA0
:1005A00080B483B000AF78600C37BD465DF8047B43
:1005B000704700BF80B483B000AF786000231BB2E7
:1005C00018460C37BD465DF8047B704780B483B095
:1005D00000AF78600C37BD465DF8047B704700BF04
:1005E00080B582B000AF78607B681846FFF7A4FF43
:1005F0007B68054A1A607B6801229A807B681846EE
:100600000837BD4680BD00BFD0C0000080B483B0B5
:1006100000AF78607B689B881BB218460C37BD46DC
:100620005DF8047B704700BF80B483B000AF786092
:100630000C37BD465DF8047B704700BF80B483B0C3
:1006400000AF786001231BB218460C37BD465DF839
:10065000047B704780B483B000AF78600C37BD4630
:100660005DF8047B704700BF80B483B000AF786052
:100670007B6800221A817B6800225A607B68002216
:100680005A817B6800229A817B6818460C37BD46E8
:100690005DF8047B704700BF80B582B000AF786022
:1006A00039607B6800221A817B683A685A607B68EF
:1006B0004FF6FF725A813B681B6808331B68386825
:1006C000984703461A4692B27B689A817B6818461F
:1006D0000837BD4680BD00BF80B582B000AF7860EE
:1006E0007B685A897B689B8912B21BB29A421CD0E4
:1006F0007B685B681B680C331B687A68526810461D
:100700009847786800F04EF802467B685A607B682C
:100710005B681B6808331B687A6852681046984704
:1007200003461A4692B27B685A817B685B681B68F5
:1007300014331B687A6852681046984703461A4675
:1007400092B27B689A817B685A897B689B8912B2D6
:100750001BB29A4208D07B685B681B6810331B6829
:100760007A685268104698470837BD4680BD00BF7A
:1007700080B483B000AF786039607B681B891AB29F
:100780007B68396843F822107B681B899BB29BB257
:1007900001339BB29AB27B681A810C37BD465DF873
:1007A000047B704780B584B000AF78600023FB8184
:1007B00022E0FA897B6853F822301B6808331B68F3
:1007C000F9897A6852F821201046984703461A465C
:1007D00092B27B689B8912B21BB29A420CBF012372
:1007E0000023DBB2002B04D0FA897B6853F8223057
:1007F0000BE0FB890133FB81FB89002BD9D07B689F
:100800005B891AB27B6853F8223018461037BD4610
:1008100080BD00BF80B400AF044BDB6C1B0EDBB2AD
:100820001846BD465DF8047B704700BFB081E00FFD
:1008300080B582B000AFFFF7EDFF0346FB713B1DB3
:10084000184600F055F9FB790F2B0AD93B79022B9A
:1008500007D9054A044B1B6823F0500343F01003EB
:1008600013600837BD4680BDC0800C4080B582B0A3
:1008700000AF78607B68064A1A600023002B02D024
:10088000786801F02FF97B6818460837BD4680BDAF
:1008900008C1000080B582B000AF78607868FFF7CB
:1008A000E5FF786801F01EF97B6818460837BD46F9
:1008B00080BD00BF80B582B000AF78607B68084A19
:1008C0001A607B681846FFF7D1FF0023002B02D087
:1008D000786801F007F97B6818460837BD4680BD87
:1008E00038C1000080B582B000AF78607868FFF74B
:1008F000E1FF786801F0F6F87B6818460837BD46D6
:1009000080BD00BF80B582B000AF78607B682833BF
:100910001846FFF723FD7B6820331846FFF7B0FC2D
:100920007B6818331846FFF783FC7B681846083746
:10093000BD4680BD80B592B000AFFFF779FF184B80
:100940004FF400525A6407F14003184600F0B6F81D
:100950003B461846FFF72AFD3B461846FFF756FD73
:1009600003467B6407F1380318460221042200F095
:1009700029F8786CFFF7B0FEFBE707F1380318465B
:10098000FFF798FFFFE73B461846FFF7BBFFFFE77F
:1009900007F14003184600F09FF801F0F1FB00BF9B
:1009A00000800C4080B483B000AF78607B68044A5C
:1009B0001A607B6818460C37BD465DF8047B7047AB
:1009C00008C1000080B584B000AF78600B467B8022
:1009D00013463B807B681846FFF7E4FF7B68144AA8
:1009E0001A607B687A88DA807B6800221A717B88BB
:1009F000FB603B88BB600F493A881346DB00134419
:100A00009B000B444FF4A8425A600A493A887B88FD
:100A1000012000FA03F318461346DB0013449B0041
:100A20000B44103318607B6818461037BD4680BDF4
:100A300038C100000060004080B483B000AF78602F
:100A40007B6800221A710C37BD465DF8047B704745
:100A500080B483B000AF78607B6801221A710C37D4
:100A6000BD465DF8047B704780B483B000AF78600A
:100A70000C37BD465DF8047B704700BF80B483B07F
:100A800000AF78607B6800229A607B689B6818469C
:100A90000C37BD465DF8047B704700BF80B483B05F
:100AA00000AF78607B6800225A607B689B681846BC
:100AB0000C37BD465DF8047B704700BF80B483B03F
:100AC00000AF78607B6800221A607B6818460C379C
:100AD000BD465DF8047B704780B483B000AF78609A
:100AE0007B6818460C37BD465DF8047B704700BF35
:100AF00080B485B000AF78601A4B5B69DBB203F05D
:100B00000F03DBB29B00FB73164B1B6903F0C003A2
:100B10009B09DAB2FB7B1343FB737B68FA7B9A7009
:100B2000104B1B69DBB203F03F03DAB27B685A70EB
:100B30000C4B9B6903F0F0031B09DBB21B01FB7339
:100B4000084BDB6903F0F0031B09DAB2FB7B1343AC
:100B5000FB737B68FA7B1A701437BD465DF8047B23
:100B6000704700BFD0FF0FE003685A004CBF43F04E
:100B7000004323F000431844704700BF2DE9F04FB5
:100B800083B099B34B1E174605469846019300263D
:100B900006EB080404EBD47464104FEAC40A05EBB6
:100BA0000A0B5846FFF7E0FF019B8146A3420AF17A
:100BB000080028440ED0FFF7D7FFB94500F1FF30F9
:100BC00004D9B4420CD004F1FF38E1E7B84203D2B3
:100BD000661CDDE7B945F4D8584603B0BDE8F08F90
:100BE0004FF0000B584603B0BDE8F08F8B465846D7
:100BF00003B0BDE8F08F00BF012807D0022807D05E
:100C0000044B00280CBF184600207047024870476C
:100C1000024870470D130000111300001513000067
:100C200030B5254B83B004468D1E7BB3284601A901
:100C3000AFF3008020B301992A46FFF79FFF0546D6
:100C4000F0B1FFF791FF6B68A064012B12D0002B6D
:100C500005F1040021DBFFF787FF0023E064236533
:100C60000368002B1DDBFFF77FFF00232061184680
:100C700003B030BD002323610523184603B030BD07
:100C8000002323610923184603B030BD0B490C4BE8
:100C90000846591AC9100191CEE70123E064236583
:100CA000DEE7C3F30360FFF7A7FF002820610CBF56
:100CB00009230023DBE700BF0000000018D4000078
:100CC00040D50000036810B5DA07044606D49B0738
:100CD00000F1480009D500F085FC2368590709D5C3
:100CE0001A070ED5DB0613D510BD00F073FC236880
:100CF0005907F5D404F1D00000F07CFC23681A07F2
:100D0000F0D404F5A87000F07DFC2368DB06EBD47A
:100D100004F5E870BDE8104000F0B8BC03680BB102
:100D2000184470471846704709207047704700BF45
:100D300070B504460D4608E02A6C23696261012003
:100D400021462A469847082808D12046296CFFF7F3
:100D500067FF06460028EFD00AF085F80728FBD188
:100D60003046296CFFF7E2FF281D00F027FC00BF8A
:100D70002DE9F0470646ADF5727D03AD0C1D174613
:100D80000FCC0FC50FCC0FC50FCC0FC594E80F00CB
:100D900002AC4FF0000ED6F80C80D6F8189085E81B
:100DA0000F003046216CC4F800E0FFF739FF05461C
:100DB000002F0CBF09270A277DB1A36B47F0100154
:100DC0008DE810020120636432463346C04778BB89
:100DD00028460DF5727DBDE8F087236C21467361CE
:100DE0004FF4F0727AA80AF0F5F8336931467AAA1E
:100DF00038469847889B82468DE8100239466364DE
:100E0000012032463346C04790B920467AA94FF4B4
:100E1000F0720AF0DFF8BAF1080F06D13046216C03
:100E2000FFF7FEFE09270546C6E7BAF1070F04D013
:100E300009200DF5727DBDE8F0872846216CFFF78B
:100E400075FF03A800F0BAFB406C7047F0B5CB6BA0
:100E5000F9B00B640E1D01AD0F4604460FCE0FC551
:100E60000FCE0FC50FCE0FC596E80F004FF0FF361F
:100E700085E80F00009606E0236921466A469847F8
:100E80000828054608D120461099FFF7C9FE00281A
:100E9000F2D0092079B0F0BD6846FFF713FF062DA8
:100EA000F7D120463946FFF743FF00BF30B4DD6B72
:100EB000C160826119461D64002230BC58E700BF42
:100EC00070B54369C66804460D460B6426B101221D
:100ED000FFF74EFF09F0C7FF0369214602202A46AB
:100EE0009847072807D0082803D120462946FFF74E
:100EF0001FFF09F0B8FF3046296CFFF717FF281DC8
:100F000000F05CFBC26832B110B4CC6B00220C6400
:100F10005DF8044B2CE799E7704700BF836813B175
:100F2000014601201847704700B5042907D8DFE8BB
:100F300001F00309060909000BB90F2A05D902209F
:100F40005DF804FB01205DF804FB00EB82025268AF
:100F50001846019B1A605DF804FB00BF00B585B020
:100F60000A4603AB002100930B46FFF7DDFF039811
:100F700005B05DF804FB00BF00B5042907D8DFE821
:100F800001F00309060909000BB90F2A05D902204F
:100F90005DF804FB01205DF804FB019900EB82027F
:100FA0000968184651605DF804FB00BF10B50C4697
:100FB00084B004AB43F8042D0021009322460B4675
:100FC000FFF7DAFF04B010BDF0B5D36BADF50F7DC0
:100FD0001364151D17AC07460E460FCD0FC40FCD79
:100FE0000FC40FCD0FC495E80F004FF0FF3584E814
:100FF0000F00169511E016A86A46FFF7D7FF16A84E
:101000003146B84780B9049B0820694616AA98471C
:101010000528044609D0092806D026996846FFF716
:10102000FFFD0C210028E6D0092416A8FFF74AFE90
:1010300020460DF50F7DF0BD2DE9F04FCC6C9046AC
:1010400022688BB004340D460792089400F003091F
:101050001E46002B64D11202032307928DF82560EF
:101060008DF824302B6DB9F1020F08BFAC6B13F073
:10107000010343D100F00800C2B203920193276834
:10108000002F3DD0022E47D02788B4F802A00434A8
:10109000AB6C2AF0010B40460F219B44FFF75EFF2B
:1010A000834537D827F001039B4458452CBF0020C7
:1010B00001200AF0010A07F0010747EA4A0ABAF1DB
:1010C000010F43D03AD3BAF1020F1FD1236823F0A6
:1010D00000420292B9F1000F7BD138B1039A002A85
:1010E00000F08380029A002A00F0A680002B7ADBB1
:1010F000029B03F1010A04EB8A04C0E70023019379
:10110000022E40DDFFF710FE002842D009200BB070
:10111000BDE8F08F0020CCE7D4F804A00834B7E78E
:10112000022B9FDC130CDFB2120402218DF8253054
:1011300004EB870407928DF8241093E7B9F1000FB0
:1011400002D0002840F0AD80043498E7B9F1000FD8
:1011500026D1B0B194E80C00D70F9A1CD6D005F177
:1011600058020133069200F09280201DFFF7D6FD51
:101170003A46014606AB284601F026F8002840F022
:10118000B58008347BE7404607A900F019FB00282A
:10119000BCD1019B002B59D108200BB0BDE8F08FCA
:1011A00040460D212F6AFFF7D9FE8742E9D1AB6A8D
:1011B0009C42E6D12046FFF7D7FC0F21024640466D
:1011C000FFF7F4FE40462A460021FFF7EFFE072016
:1011D0009DE740460D212F6AFFF7C0FE874245D0AC
:1011E0002368002B84DA043482E7029B23B305F1E1
:1011F00058030596039F04F1040ADDF808B0CDF802
:1012000010901E4602E0D9454F4615D0504606962E
:10121000FFF784FD0022014606AB284600F0D4FF0C
:1012200007F101090AF1040A0028ECD0029BDDF85D
:1012300010909F42059ED3D140460D21FFF78EFEB0
:10124000069B2862AC626B62062060E70F21404675
:10125000FFF784FE0E2102464046FFF7A7FE4046F8
:101260000F21294AFFF7A2FE072050E7AB6A9C42F4
:10127000B6D1042202990027A318A962EF622A635B
:101280006B632368BB421FDB0123019330E74046B9
:101290000D21FFF763FE2862069B6B62AC6206209D
:1012A00035E72046FFF760FC04340646AC63284669
:1012B00000F0E6FF00283FF429AF404632460F21F8
:1012C000FFF774FE072022E70846013004EB800098
:1012D000FFF74AFC0F2102464046FFF767FE4046F3
:1012E00039462A46FFF762FE072010E707460D2120
:1012F0004046FFF733FE022F2862CDD12B46069AD7
:1013000043F82C2F6B62C9E739240000002393E6D1
:10131000012391E602238FE6F0B50546C5B0042906
:101320000CD8DFE801F056030B300E00012B4FEA1A
:10133000124496B265D0052B00F08380022045B0A0
:10134000F0BD002BFAD1102AF8D82B68DC0600F18A
:10135000E98022AE3046019200F0A2F9A86B019A12
:101360000023012404FA03F1114203D00168043080
:1013700046F823100133042BF4D1A863304600F063
:1013800085F90020DBE7032BD8D1140C97B23B1969
:10139000102BD3D82B681E0700F1E48022AE304614
:1013A0007F0000F051F906EBC4027B1EAC6B57B115
:1013B0002146043A51F8040B013B42F8040F581C33
:1013C000F8D104EB87043046AC6300F01BF9002031
:1013D000B5E7002BB2D1AC6B97B2281D012606FAF7
:1013E00003F1394203F1010302D0216804340160A2
:1013F000102B00F10400F2D112F400501FD1AC63A5
:101400009DE73219102A99D80F2C97D82968002700
:10141000C80754D422A8019300F0E0F8019B19E01A
:1014200008463746012B00F097800F2CA86302D89E
:1014300022A800F0D7F817B102A800F0DBF80020CE
:101440007DE73719202F3FF679AF0F2C30D937467B
:10145000002E44D1A96B3246002EE1D000278E46E3
:1014600044A84FEA420C00EBC4000CF1FF328C3868
:101470005EF8046B013A40F8046F561CF8D101EB9A
:101480008C00002FCED02246102C44A938BF102249
:1014900001EBC202A2F5C47201467800043A01EBE6
:1014A000800051F8046B814242F8046FF9D1B9E72A
:1014B000102F41D92A68103FD007114610D521F0CE
:1014C0000102052B2A60019328465BD021F003011D
:1014D00040F8481B00F082F8019B002F4AD02A6890
:1014E00051075BD4012B63D00F2C04D822A80193A1
:1014F00000F07CF8019B002FACD002A8019300F013
:101500007DF8019BC4F11002002AA96BA7DC2246DA
:10151000102C44A838BF102200EBC202A2F5C472FE
:101520007800BBE723F010032B6005F5E87001920B
:1015300000F0B6F8019A0CE72968C8071DD52846BF
:1015400021F0010242F0020240F8482B01930027EB
:1015500000F04CF8019BC9E70430A86322A800F012
:1015600039F86CE723F008032B6005F5A87000F04C
:101570006BF813E7012B3FF44DAF0F2C98BF0027FA
:10158000B4D967E742F0020240F8482B00F02EF889
:10159000019B002FAAD02A685107A5D5284622F022
:1015A000040240F8D02B019300F028F8019B99E742
:1015B00022A8019300F012F8019BA3E700F1340187
:1015C00091E838009C46A6464CF8045D90E8FF0F71
:1015D000E54600BD90EC210B704700BF80EC210B6D
:1015E000704700BF90EC200B704700BF80EC200BD1
:1015F000704700BFD0EC200B704700BFC0EC200B41
:10160000704700BFF0EC0201F0EC0211F0EC022197
:10161000F0EC0231F0EC0241F0EC0251F0EC02612E
:10162000F0EC0271F0EC0281F0EC0291F0EC02A11E
:10163000F0EC02B1F0EC02C1F0EC02D1F0EC02E10E
:10164000F0EC02F1704700BFE0EC0201E0EC0211A7
:10165000E0EC0221E0EC0231E0EC0241E0EC02516E
:10166000E0EC0261E0EC0271E0EC0281E0EC02915E
:10167000E0EC02A1E0EC02B1E0EC02C1E0EC02D14E
:10168000E0EC02E1E0EC02F1704700BFB0FC018148
:10169000B0FC0191B0FC01A1B0FC01B1704700BFEA
:1016A000A0FC0181A0FC0191A0FC01A1A0FC01B162
:1016B000704700BFEC4600B52DE900502DE9FF1F33
:1016C0004FF000032DE90C0001A9FFF7BFFBDDF887
:1016D00040E012B0704700BFEC4600B52DE9005065
:1016E0002DE9FF1F4FF000032DE90C0001A9FFF7C2
:1016F000E7FBDDF840E012B0704700BFEC4600B5F4
:101700002DE900502DE9FF1F4FF000032DE90C00DB
:1017100001A9FFF7F7FBDDF840E012B0704700BF0A
:10172000EC4600B52DE900502DE9FF1F4FF00003F6
:101730002DE90C0001ABFFF7B9FBDDF840E012B07A
:10174000704700BFEC4600B52DE900502DE9FF1FA2
:101750004FF000032DE90C0001AAFFF735FCDDF87E
:1017600040E012B0704700BF037A1BB9437A43B917
:10177000B02070475A1E036802721A020260180EE7
:1017800070474268013B10B4437213680321141D73
:1017900001721A02446002605DF8044B180E704733
:1017A00000B585B003AB002100930C220B46FFF778
:1017B000BBFB039805B05DF804FB00BFF0E700BF7A
:1017C0002DE9F04306460D4685B04FF00008284647
:1017D000FFF7CAFFB028044600F0B58020F07F0173
:1017E00011F0FF0120D000F0F003802B7AD0902B75
:1017F00036D0A02B49D0B02B5CD0C02B00F0898014
:1018000000F0F803D02B0BD100F00702013242F4B4
:101810000022304601210523FFF77EFD0028D6D0A7
:10182000092005B0BDE8F0830DF10C090B468700D7
:10183000CDF8009030460D22FFF776FBFFB2039BF8
:10184000043760064FF000014CBFDF1BFF18CDF8D6
:1018500000900B4630460D220397FFF78DFBB6E74D
:1018600000F00D030D2BDBD003AF002100F00F02C1
:101870000B4600973046FFF757FB002100970B46B9
:1018800030460D22FFF778FBA1E7C3434FF47F6298
:1018900003F007031A41010702F47F624FF00001D1
:1018A00048BF42F480420B463046FFF735FD002822
:1018B000B6D18CE7B1284CD0B2285DD0B32800F067
:1018C0008A8000F0FC03B42BAAD000F0070201329A
:1018D000012142F400220B463046FFF71DFD00288F
:1018E0009ED174E72846FFF73FFF24022043B0F55E
:1018F000004F95D004010021A2B20B463046FFF7FD
:101900000BFD00288CD114F4004F18BF4FF00108D4
:101910005DE7C62872D0C7287AD000F0F803C02B44
:1019200000F08980C82800F0A580C9287FF478AF2E
:101930002846FFF719FF00F00F02013200F0F00017
:1019400042EA003265E7B8F1000F00F08280002023
:1019500067E72846FFF708FF024600283FF460AF1C
:1019600010F0F0017FF45CAF30460B46FFF7D4FC7B
:1019700000287FF455AF2AE700210DF10C090D2254
:101980000B46CDF800903046FFF7CEFA2846FFF719
:10199000EBFE02064FF002040CD5039B00F07F0023
:1019A000A040034428460393FFF7DEFE030604F13C
:1019B0000704F2D4039B00F07F00A04003F50173FD
:1019C00000211C18CDF800900B4630460D220394E0
:1019D000FFF7D2FAFBE62846FFF7C6FE00F00F023B
:1019E000013200F0F000012142EA00320B4630469D
:1019F000FFF792FC00287FF413AFE8E62846FFF7D4
:101A0000B3FE00F00F02013200F0F0000321EBE71B
:101A10002846FFF7A9FE024600283FF401AF10F068
:101A2000F0037FF4FDAE30460421FFF775FC00287B
:101A30007FF4F6AECBE600F00F020132032142F450
:101A400020220B463046FFF767FC00287FF4E8AE03
:101A5000BDE603AC41460E22434600943046FFF7F4
:101A600063FA0094304641460F224346FFF784FA5A
:101A70004046D6E62846FFF777FE00F0F00200F079
:101A80000F031032013343EA0232C2E610B5C36CD1
:101A900084B003205A688DF80C00DC7912020833F8
:101AA000084601A901928DF80D400293FFF788FEC8
:101AB00004B010BD08B5FFF781FE806C08BD00BF03
:101AC00008B5FFF77BFEC36CD87903EB80000830C4
:101AD00008BD00BF08B509F0C6F900BF08B509F098
:101AE000C2F900BF09F05EBA10B50446024B0360AC
:101AF00000F01CFC204610BDA8C1000010B5044633
:101B0000FFF7F2FF2046FFF7EDFF204610BD2DE95D
:101B1000F041069E804696420F4615461C4603D16C
:101B2000194600F017FB58B9D8F808003946036881
:101B300006961E6A2A462346B446BDE8F041604731
:101B40000620BDE8F0812DE9F14F0E461946834687
:101B5000174699460A9CDDF82CA0DDF830800D9DD3
:101B600000F0F8FA78B1002E2C602F7106DB3444B7
:101B7000A0450CBF06240124AC711EE002361CD126
:101B80000123AB7119E0444504D15846514600F099
:101B9000E1FA88B9DBF80800314603680A94CDF809
:101BA0002CA0CDF830800D95DC693A464B46A44612
:101BB00001B0BDE8F04F60476F71002001B0BDE893
:101BC000F08F2DE9F04104460F4616461D4600F001
:101BD000C0FB48B9A0683946036832469C692B4669
:101BE000A446BDE8F0416047BDE8F08100231A46F5
:101BF00030B510F8015B05F07F04944023432C06B8
:101C000002F10702F5D40B6030BD00231A4630B54F
:101C100010F8014B04F07F0595402B43250602F197
:101C20000702F5D41F2A06D8640642BF4FF0FF34DE
:101C300004FA02F213430B6030BD5028F7B5054695
:101C40000F4614461E4605D1D01C20F0030050F864
:101C5000043B33E000F00F030C2B23D8DFE803F044
:101C60001A07121A1E222222220C161A1E002046C1
:101C700001A9FFF7BBFF03E0204601A9FFF7C5FF5D
:101C8000019B11E0204630F8023B0DE0204630F980
:101C9000023B09E0204650F8043B05E0204650F89E
:101CA000083B01E009F0DFF843B105F07002102AAB
:101CB00018BF3C462A06234448BF1B68336003B064
:101CC000F0BD08B50346FF2B08461CD003F0700397
:101CD000202B0ED003D8B3B1102B12D113E0402B20
:101CE0000BD0502B0FD0302B0BD1BDE80840FFF7A5
:101CF000F1BEBDE80840FFF7F1BEBDE80840FFF7C0
:101D0000D9BE09F0B0F8002008BD2DE9F041074622
:101D10000C460846394616461D46FFF7D2FF3246A6
:101D200001462B462046BDE8F041FFF786BF73B55C
:101D30000E461446054610B1FFF7BCFEFFE72060D3
:101D40003178721CFF2905D02846231DFFF7DDFFDF
:101D5000024600E060601378501CFF2B237507D00B
:101D60001023237501A9FFF741FF019B034400E005
:101D70000023E360037801A963750130FFF736FFA4
:101D8000019B0344236102B070BD1FB50A4603AB3B
:101D9000002100930B46FFF7C7F8039805B05DF8E4
:101DA00004FB00002DE9F04F002391B0049300F0F4
:101DB0000303012B05460C4617460ED002D3022B17
:101DC00002D0E0E0010713D520463946FFF75EFE5A
:101DD00008B1092092E1082090E102070AD40E6AB6
:101DE00038460D21FFF7D1FF864203D1062602E0D7
:101DF000012600E0022610AB43F82C4D002105F02F
:101E0000080500932E4338460C220B46FFF7B4F822
:101E1000062E0CD1D4F83080A56AB8F1000FD4F8A2
:101E20002C900CBF4FF0010A4FF0030A05E1384631
:101E3000FFF746FE81460028C6D00AAA4946384622
:101E4000FFF775FF394605469DF83C00FFF739FF5F
:101E50000F210C903846FFF798FF20F0010000F1A9
:101E6000FF380E9B9D4233D22A469DF83D1006ABAB
:101E70000020FFF74AFF9DF83D10024607AB002007
:101E8000FFF743FF08AB02469DF83D100020FFF727
:101E90003CFF09A9FFF7AAFE0A9B069A05461344D0
:101EA000984501D20E9DDCE7079A13449845D8D295
:101EB000089818B10B9B00EB030800E080460998D6
:101EC00010B10E9D01382844B8F1000F05D17BE711
:101ED0004FF000084FF0010A0EE1002800F00A81DF
:101EE00016F0080512D0472323704E236370552344
:101EF000A3704323E370462323714F23637152235E
:101F0000A3710023E3714FF0000A19E0E379012B7C
:101F10000CBF54F8203C04F158030493F3E74FF04E
:101F2000020E0D9A0C9903FB1E2209ABFFF785FEEA
:101F30000999002962D074BB0898002862D05844DF
:101F400007A9FFF762FE08A98346FFF75EFE079B1D
:101F5000002B50D026DD9DF83C00FF2815D000F066
:101F60000702042A0FD801A151F822F0911F0000A6
:101F7000871F00001F1F0000911F0000811F00002D
:101F80004FF0080ECDE708F06EFF4FF0000EC8E7E7
:101F90004FF0040EC5E72046002204AB00F014F910
:101FA00060BBC9E70D995A1CD4B1CDB9049BA1EB14
:101FB00082020693A2F1040C5CF8041F61B1614433
:101FC0002046002206ABCDF80CC000F0FDF8DDF88D
:101FD0000CC00028F0D0012181F00101C9B207E056
:101FE0006FF0030C0CFB02F28958B1FA81F1490938
:101FF0000029A1D002E04FF0010A9DE7079D4FF0B4
:10200000030A06E0BAF1000F3FF4DEAE05464FF0DA
:10201000020AF30711D5BAF1020F3FF4D5AE3846E4
:102020000D21049EFFF7B1FE66622062A562C4F82E
:102030002C90C4F83080062060E016F0080608D026
:10204000BAF1010F01D100F069F8002D24DA00F097
:1020500077F8BAF1010F02D1204600F0DEF9002D29
:102060001ADA0AAA49463846FFF761FE9DF83C0095
:102070003946FFF726FE6FF0030305FB03330D9A85
:102080000C90134453F826200AB10136FAE70422D3
:10209000A662E0622263636310AB002143F8244D23
:1020A0000A46009338460B46FEF766FF10AB43F82E
:1020B000205D00210122009338460B46FEF75CFFAD
:1020C0000F213846FFF761FE00F0010010AB40EA37
:1020D000080043F81C0D0021009338460F220B46E0
:1020E000FEF74AFFBAF1020F02D1204600F0C8F80D
:1020F000072003E04FF0020A00258AE711B0BDE88F
:10210000F08F00BF08B5804708F0ADFE024B18689D
:10211000BFF35F8F704700BF0000002008B5FFF7D6
:10212000F5FFFFF7EFFF08B58047FFF7F7FF000067
:10213000024B1868BFF35F8F704700BF0400002098
:1021400008B5FFF7F5FFFFF7EEFF70470020704777
:1021500000207047814208B50ED0406803782A2BD2
:102160000CD049680B782A2B08BF013109F062F8BE
:10217000B0FA80F0400908BD012008BD002008BD6C
:102180001EB400F09AF81EBCFFF7A6FA0378472B9E
:1021900017D143784E2B14D18378552B11D1C378A6
:1021A000432B0ED10379432B0BD143792B2B08D131
:1021B00083792B2B05D1C07901288CBF0020012009
:1021C00070470020704700002DE9F3411E46037858
:1021D0000446472B8846C57914D143784E2B11D13C
:1021E0008378552B0ED1C378432B0BD10379462B23
:1021F00008D143794F2B05D18379522B02D10DB9E8
:10220000012005E02046FFF7C1FF00282FD0002065
:1022100000230022019278B983B9012D0ABF54F836
:10222000203CA4F12003783B012D0CBF54F8204C36
:1022300058341F68019402E00F4F00E00F4F3B68D5
:1022400038469B68984720B1019B02241B68019384
:1022500000E00124D8F8003040461D69394601AA43
:102260000123A84728B1019B2046336001E00123E8
:10227000CFE702B0BDE8F081D0C20000FCC2000090
:1022800070B5044600F032F905462046A4F1200658
:10229000FFF77CFF50B154F8043C0133012B44F8A4
:1022A000043C08D1AB6844F8083C03E0AB680BB1D0
:1022B000FFF734FFAE60012070BD70B500F016F975
:1022C000846805460CB9FFF729FF04F12006304663
:1022D000FFF75CFF38B1E369013BE36123B9A26911
:1022E000AA60A36100E0A860304670BD7FB51023EE
:1022F00002930368002415469E6900946B468DF88E
:10230000044003941268B0479DF8043003F00603BC
:10231000062B11BF2046009B01202B6004B070BD2E
:10232000009890420CBF06200120704710B504466B
:10233000024B0360FFF709FF204610BD20C20000DA
:1023400010B50446FFF7F2FF2046FFF7CBFB20460F
:1023500010BD38B515461C46FFF7FCFE20B108231A
:10236000E36006232560237138BD2DE9F041064660
:102370000C4615461F46FFF7EDFE48B9032F07D858
:102380002368204631462A46BDE8F0415B6918477C
:10239000BDE8F0812DE9F041069E1F46089B80466E
:1023A0009E421546099C03D10799FFF7D3FE48B911
:1023B00040463946FFF7CEFE28B10123266025713D
:1023C000A37100E065710020BDE8F08108B5034904
:1023D0001B22022008F05AFFFFF7A0FE72C2000085
:1023E0000378472B17D143784E2B14D18378552B84
:1023F00011D1C378432B0ED10379432B0BD14379F1
:102400002B2B08D183792B2B05D1C07901288CBFC8
:102410000020012070470020704710B5044648B1E5
:1024200000F03BF82046FFF7DBFF18B154F8140C1E
:10243000FFF768FEFFF772FE70B50646FFF7D0FFA4
:1024400018B156F8184C002501E004460125304625
:1024500000F023F80DB1FFF773FE2046FFF763FE8F
:102460000378472B17D143784E2B14D18378552B03
:1024700011D1C378432B0ED10379432B0BD1437970
:102480002B2B08D183792B2B05D1C07901288CBF48
:1024900000200120704700207047F8B5054600F085
:1024A00025F8064604682846A5F12007FFF7D8FF5F
:1024B00020B90CB1FFF732FE376015E055F80C3C3F
:1024C0002846002BB4BFC3F10103013345F80C3C8F
:1024D0007368A74203F1FF3373601CBF45F8104CCB
:1024E00037606C6AFEF718FD2046F8BD004870475B
:1024F000940000201F4BF7B51A781F4D12B12B68BE
:102500001E4831E001221A7008F0A0FC50B3446864
:10251000002123784FF0FF322A2B08BF013402AB91
:1025200043F8042D20460A4608F01EFC2B68064698
:10253000D968134808F006FD019B0F4F13B93B689B
:10254000304601E020463B68D96808F0FBFC2B6868
:102550000C48D96808F0F6FC019B43B9304608F0F6
:1025600021FD04E02B680848D96808F0EBFC08F06E
:102570007AFC00BFA00000206800002004C3000017
:1025800022C3000053C3000056C3000070B44C1EA9
:102590004A2C2CD8DFE804F03C3C3C3C2B2B2B2B6A
:1025A00026263C2626262626262626262626262BB0
:1025B00027272727272727273C26262626262B2698
:1025C000273D3C2B3C27273D2B2B26263C3C3C3CE7
:1025D0003C263C3C263C2B2B2626262B2B2B26262A
:1025E000263C3C00CAB144698569AC4202DB00204C
:1025F00070BC704704EB440506690134AD004461CA
:1026000074190CD071556260A360204670BC70478D
:102610001AB1002BE7D11846EAE71046E8E7204652
:10262000E6E700BF30B443698469A34209DA03EBEB
:10263000430405690133A40043612B1901D001B1A2
:1026400012B930BC002070470020285559609A60AC
:10265000184630BC704700BFF8B5C368154604463D
:102660000E461A780F4616E0562A24D04B2A2FD150
:10267000236B002D03F10603E160236314BF1E21C9
:102680001B21002213462046FFF780FF3860F0B17F
:10269000E368071D1A78722A03F10101E4D1226B65
:1026A000002D03F1010302F10902E360226314BF6C
:1026B0001C211921E5E7226B002D03F1010302F132
:1026C0000902E360226314BF1D211A21D9E7F8BD76
:1026D000ADB9462A13D1B74211D01D201E211C22AC
:1026E00007E01B2B0DD0192B00D132700436B742F6
:1026F00005D0366833781A2BF3D13070F6E73846B8
:10270000F8BD3170F2E700BF10B4C3680A4619780B
:1027100052290FD04F2903D010465DF8044B704763
:10272000046B2021033404630133C3605DF8044B60
:1027300000232BE7046B1F2102340463F4E700BF7E
:10274000C2681378532B01D0002070472DE9F04167
:10275000531CC3605378EBB1931CC36054785F2C57
:1027600026D10023026A934211D2826AC1690132E2
:10277000826251F82300BDE8F0810121424B03F150
:10278000C4051A78A2423CD01C33AB42F9D10020D8
:10279000BDE8F0811C4683681B07EED40029EDD00C
:1027A000C3681978433901298CBF00210121E5E76D
:1027B000A4F13005EBB2092B60D800210DE0303BCD
:1027C0009942E4D8C2681478511C1CB1C1601478D5
:1027D0005F2C14D01946A4F13005EDB2A4F14102EA
:1027E00001EBC103092DD2B204EB8303E7D9192A07
:1027F000CDD801EBC10204EB8203373BE0E70133A4
:10280000B0E75A69002A34D044698569D3F818C002
:10281000AC422CDA04EB4406D0F810E0B6000134E8
:102820001EEB0607446127D04FF018080EF806800B
:102830003E467A60C7F808C0C662A9B1DE68196969
:10284000026BA5420A440263A1DD04EB4402056960
:10285000631C92004361AB1899D01820A8545E60A5
:1028600099601846BDE8F0815E689968E8E700263F
:10287000E2E785694469E0E73E46DDE7A4F141030C
:10288000192B9AD987E700BF84C3000070B50546AD
:102890000E461446002A48D02378013B4A2B2AD8FA
:1028A000DFE803F03535353E29292626353535351F
:1028B00035353535353535353535352935353535D4
:1028C0003535353535352E2E3535293535353535D2
:1028D00035353535292635353535353535353535C3
:1028E00035352929352A2A2A2A293535353535001D
:1028F000A468002CD0D170BD6468002CCCD1FAE75C
:1029000062681378052B03D1336801333360626842
:1029100028463146FFF7BAFFA468002CBCD1EAE78D
:102920002B6801332B606268F2E770BDD0F800318C
:1029300070B5FF2B04460D4606D05A1CC4F8002182
:10294000E55484F8045170BD00261946D0F80C21D6
:10295000D0F8083180F8FF6098473346D4F820114A
:1029600001221144C4F82011C4F80021E55484F870
:10297000045170BD70B4036819786E291AD000250F
:102980002E46A1F13003092B88BF00230DD8026821
:1029900000230132026003EB830301EB4303117850
:1029A000303BA1F13004092CF3D983EA0600284416
:1029B00070BC70475A1C0260597801254FF0FF36F1
:1029C000DFE700BF43698269934214DA03EB4302F5
:1029D0000169920010B501338C18436108D040237F
:1029E0008B540C30FFF7C6FF23466060184610BDBD
:1029F0002346184610BD00231846704710B5C3681B
:102A000004461A785F2A0BD06E2A06D00C30FFF7E6
:102A1000B1FFE3681A785F2A06D04FF0FF3010BD8F
:102A200000200133E36010BD0130FAE738B5C36818
:102A300004461A78542A01D0002038BD0133C360FF
:102A4000FFF7DCFF051EF7DBA26A6369A1690132AB
:102A50008B42A262F0DA03EB430221690133920058
:102A600063618B18E8D005248C545D60184638BD2E
:102A700008B5C3681A785F2A01D0012008BD013368
:102A800040F80C3FFFF776FFC043C00F08BD00BF02
:102A900070B504460C30FFF76DFF061E32DDE568A9
:102AA00063685B1B9E422FDCA268AB195207E36090
:102AB00015D4092E0CDD28461449082208F07AFAAC
:102AC00030B92B7A2E2B10D05F2B0ED0242B0CD0AC
:102AD000294632462046FFF7A5FDE06270BDAA5D9B
:102AE000242A04BF0133E360E3E76B7A4E2BEFD176
:102AF000236B204616339E1B266305491522FFF7DC
:102B000091FDEAE7002070BD0020E6E7BCCA0000A6
:102B1000C8CA000038B5044629B9C3681A7832B16A
:102B20005A1CC2601978682912D0762901D0002079
:102B300038BD04F10C052846FFF71CFFE3681A783E
:102B40005F2AF4D10133E3602846FFF713FF03E067
:102B500004F10C00FFF70EFFE3681A785F2AE6D154
:102B60000133E360012038BDD0F810310246C3B113
:102B70005A680B68906870B102782F2A0DD1002B2B
:102B800004DC09E002782F2A07D143B18068013BB9
:102B90000028F7D17047704701D000207047406887
:102BA000704701211846C2F81811704738B505461C
:102BB0000C4691B323784A2B27D8DFE803F02E2662
:102BC000262626302E2B2B26262626262626262689
:102BD0002626262626262E2626262626262626268D
:102BE00026262626262E2626262626262626262E75
:102BF0002B2626262626262626262626262E262668
:102C000026262E262E26262E2E0028466168FFF721
:102C1000CDFF18B9A468002CCCD1002038BD2846BF
:102C2000211DFFF7A1FF0028F7D003782F2BF4D147
:102C300038BD00BFF0B55368946801330B44A3421C
:102C400083B015460E46074613D8EC680CB103B0A6
:102C5000F0BD95E8090032463946184408F0BAF943
:102C60002B686A6833449C546B681E446E6003B0E2
:102C7000F0BDD268002AEAD11CB9022B4FF0020441
:102C800002D96400A342FCD82868214608F050FA13
:102C900010B12860AC60D8E70190286808F082F98C
:102CA000019B01222B606B60AB60EA60CFE700BF45
:102CB0002DE9F041044608460D4608F0C5FA50B328
:102CC000D4F800112F184FF0000809E00B46BD4260
:102CD00001F10101C4F80011E65484F804611AD02E
:102CE000FF2915F8016BF1D1D4F8083184F8FF8081
:102CF0002046D4F80C219847D4F8203101210B4408
:102D0000C4F82031BD424FF00003C4F80011E6546E
:102D100084F80461E4D1BDE8F08100BF2DE9F04101
:102D200088B00A4604461B4901A808F05FFA01A8CA
:102D300008F08AFA58B301ADD4F800112F184FF0FB
:102D4000000809E00B46BD4201F10101C4F8001181
:102D5000E65484F804611AD0FF2915F8016BF1D10B
:102D6000D4F8083184F8FF802046D4F80C21984725
:102D7000D4F8203101210B44C4F82031BD424FF07A
:102D80000003C4F80011E65484F80461E4D108B0EB
:102D9000BDE8F081E0CA000013782DE9F047033B5D
:102DA0001546044688462A2B00F2B981DFE813F065
:102DB0005100B701B701B701B701B701B701B701BA
:102DC000B701B701B701B701B701B701B701B70143
:102DD000B701B701B701B701B701B70155007B00D3
:102DE000A10055007B00A100C600DE0016012801ED
:102DF0002E01310134015901B701B701B701B70103
:102E00007E01B7012B00DD4ED0F8001106F10A0A51
:102E10004FF0000909E00B4601315645C4F8001196
:102E2000E75484F8047100F08681FF2916F8017BCD
:102E3000F1D1D4F8083184F8FF902046D4F80C2161
:102E40009847D4F8203101210B44C4F820310023E5
:102E5000E3E76A68BDE8F04714E2C94DD0F8001115
:102E600005F109074FF0000809E00B460131BD42AA
:102E7000C4F80011E65484F8046100F06E81FF2963
:102E800015F8016FF1D1D4F8083184F8FF8020469D
:102E9000D4F80C219847D4F8203101210B44C4F810
:102EA00020310023E3E7B74DD0F8001105F1090701
:102EB0004FF0000809E00B460131BD42C4F8001193
:102EC000E65484F8046100F04A81FF2915F8016F87
:102ED000F1D1D4F8083184F8FF802046D4F80C21D1
:102EE0009847D4F8203101210B44C4F82031002345
:102EF000E3E7A54DD0F80011AF1D4FF0000809E041
:102F00000B460131BD42C4F80011E65484F8046157
:102F100000F00981FF2915F8016BF1D1D4F80831CF
:102F200084F8FF802046D4F80C219847D4F820314B
:102F300001210B44C4F820310023E3E7D0F800312D
:102F4000FF2B00F04C81591C2022C4F80011E254E0
:102F500084F80421FF2900F021814A1C2623C4F8AB
:102F60000021635484F80431BDE8F087D0F80031C3
:102F7000FF2B00F05681591C2022C4F80011E254A6
:102F800084F80421814D4FF00008AF1C09E00B4686
:102F9000BD4201F10101C4F80011E65484F8046156
:102FA0001AD0FF2915F8016BF1D1D4F8083184F853
:102FB000FF802046D4F80C219847D4F82031012115
:102FC0000B44C4F82031BD424FF00003C4F8001197
:102FD000E65484F80461E4D1BDE8F087D0F800112C
:102FE000FF2900F0EC804A1C2023C4F80021635420
:102FF00084F804314146AA682046BDE8F04741E123
:1030000011F0040800F0AD80BDE8F087D0F80011A1
:10301000A0E7D0F80011B5E75D4DD0F8001105F13B
:1030200008074FF0000808E00B460131BD42C4F824
:103030000011E65484F8046177D0FF2915F8016F78
:10304000F2D1D4F8083184F8FF802046D4F80C215E
:103050009847D4F8203101210B44C4F820310023D3
:10306000E4E74C4DD0F8001105F10A074FF00008D5
:1030700008E00B460131BD42C4F80011E65484F863
:10308000046156D0FF2915F8016BF2D1D4F808314C
:1030900084F8FF802046D4F80C219847D4F82031DA
:1030A00001210B44C4F820310023E4E790F80431F7
:1030B000282B0BD0D0F80011FF2900F0C3804A1C48
:1030C0002023C4F80021635484F804316A68324D27
:1030D0004146204600F0D6F8EF1CD4F800114FF01E
:1030E000000808E00B460131BD42C4F80011E65467
:1030F00084F804611BD0FF2915F8016BF2D1D4F8D4
:10310000083184F8FF802046D4F80C219847D4F881
:10311000203101210B44C4F820310023E4E72A4682
:10312000BDE8F047AEE0BDE8F087BDE8F087BDE858
:10313000F087BDE8F08741466A68204600F0A2F8B3
:10314000D4F80011FF295BD04A1C2923C4F80021C0
:10315000635484F80431BDE8F087BDE8F087BDE82A
:10316000F087D0F80011FF297CD04A1C2A23C4F82C
:103170000021635484F80431BDE8F08724CB0000BB
:10318000E3CA0000EFCA0000FCCA000004CB000044
:1031900007CB000014CB000020CB00000025D4F8A2
:1031A0000831D4F80C2184F8FF5020469847D4F811
:1031B0002031012213442946C4F82031CEE60026EE
:1031C000D0F80831D4F80C2180F8FF609847D4F883
:1031D0002031012213443146C4F8203104E7002590
:1031E0001946D4F80C21D0F8083180F8FF509847E0
:1031F000D4F8202101210A442B46C4F82021A3E65B
:103200000025D4F80831D4F80C2184F8FF5020466A
:103210009847D4F82031012213442946C4F82031BC
:1032200093E700251946D4F80C21D0F8083180F82E
:10323000FF509847D4F8202101210A442B46C4F8B6
:10324000202199E60026D0F80831D4F80C2180F826
:10325000FF609847D4F82031012213443146C4F866
:1032600020312DE7D0F80831D4F80C2180F8FF8008
:103270009847D4F82031012213444146C4F8203144
:1032800074E700BF2DE9F04F044695B01546002ABB
:1032900000F09D80D0F81831002B40F0908013781A
:1032A0000E464B2B01F20880DFE813F022060C06D5
:1032B0000C064E06D805C0057C0577056D0563052F
:1032C000590546053C05320528051E05140541072C
:1032D00037072D072307FC07D607FC06D306BC07D4
:1032E000BC07BC07AA07AA07AA07AA07AA07AA0732
:1032F000AA0778077807AA07AA074B070F05FA0459
:103300008D04710459037104310331039C030703D5
:10331000E002B902B502A3020004EB03B303AF035A
:10332000AF034C004C004A049A028D022002F901BE
:10333000D201AB01840106085E0166023701EB0091
:10334000C10097006A681178272941F07B81526893
:10335000177C5FB1062F41F27F84072F06D1AA6840
:10336000117819B99168012901F05A86D4F8001131
:10337000FF2901F057844A1C2823C4F80021635414
:1033800084F8043131466A682046FFF77BFFD4F8A1
:103390000011FF2901F033844A1C2923C4F80021BD
:1033A000635484F804312B783C2B01F00585082FF9
:1033B000204601F0F3843146AA68FFF763FF15B099
:1033C000BDE8F08FB8F1000F01D0C4F810710123EF
:1033D000C4F8183115B0BDE8F08FCD4F6A68FFF71B
:1033E00051FF07F1080AD4F800114FF000090AE074
:1033F0000B4601315745C4F8001104F8038084F8E6
:10340000048100F09587FF2917F8018FF0D1D4F8D7
:10341000083184F8FF902046D4F80C219847D4F85E
:10342000203101210B44C4F820310023E2E7B94FD9
:103430006A68FFF727FF07F1050AD4F800114FF07B
:1034400000090AE00B4601315745C4F8001104F8A1
:10345000038084F8048100F0D187FF2917F8018BDD
:10346000F0D1D4F8083184F8FF902046D4F80C212C
:103470009847D4F8203101210B44C4F820310023AF
:10348000E2E76968FFF792FB4FF00008002801F0BF
:10349000A08503782F2B41F0CD804368002B01F0ED
:1034A000C980806808F101080028F2D16B68009398
:1034B0000027B94608F1FF33DFF878A20193C4F87A
:1034C0001C7120463146009AFFF7DCFE019B9F42AB
:1034D00080F21D87D4F80011DFF85CB209E00B46DA
:1034E0000131D345C4F80011E55484F8045100F0CB
:1034F0000E87FF291BF8015BF1D1D4F8083184F85D
:10350000FF902046D4F80C219847D4F820310121AF
:103510000B44C4F820310023E3E77F4FD0F80011BB
:1035200007F11A0A4FF000090AE00B46013157452E
:10353000C4F8001104F8038084F8048100F069875E
:10354000FF2917F8018FF0D1D4F8083184F8FF90E3
:103550002046D4F80C219847D4F8203101210B449F
:10356000C4F820310023E2E76C4ED0F8001106F1D8
:103570000E094FF0000809E00B4601314E45C4F832
:103580000011E75484F8047100F09B87FF2916F8B6
:10359000017FF1D1D4F8083184F8FF802046D4F8B7
:1035A0000C219847D4F8203101210B44C4F8203174
:1035B0000023E3E75A4FD0F8001107F1080A4FF053
:1035C00000090AE00B4601315745C4F8001104F820
:1035D000038084F8048100F0B087FF2917F8018F79
:1035E000F0D1D4F8083184F8FF902046D4F80C21AB
:1035F0009847D4F8203101210B44C4F8203100232E
:10360000E2E7484FD0F8001107F11C0A4FF000091B
:103610000AE00B4601315745C4F8001104F8038055
:1036200084F8048100F0E386FF2917F8018FF0D1B8
:10363000D4F8083184F8FF902046D4F80C2198473C
:10364000D4F8203101210B44C4F820310023E2E7F3
:10365000354FD0F8001107F11D0A4FF000090AE0BC
:103660000B4601315745C4F8001104F8038084F873
:10367000048100F0D287FF2917F8018FF0D1D4F828
:10368000083184F8FF902046D4F80C219847D4F8EC
:10369000203101210B44C4F820310023E2E7234FFD
:1036A000D0F8001107F10A0A4FF000090AE00B46B2
:1036B00001315745C4F8001104F8038084F80481EF
:1036C00000F08286FF2917F8018BF0D1D4F8083179
:1036D00084F8FF902046D4F80C219847D4F8203184
:1036E00001210B44C4F820310023E2E76A6804A8F2
:1036F0000F4907F07BFD04A807F0A6FD00283FF462
:103700005EAE04ADD4F800112F184FF000081FE092
:10371000A3CD000030CB000087CC000093CD00008B
:1037200083CD000063CD000043CD000024CD000018
:10373000E0CA0000BECC0000BCCC00000B4601314A
:10374000BD42C4F80011E65484F804613FF437AE7A
:10375000FF2915F8016BF1D1D4F8083184F8FF8006
:103760002046D4F80C219847D4F8203101210B448D
:10377000C4F820310023E3E7C44FD0F8001107F16B
:10378000160A4FF000090AE00B4601315745C4F80C
:10379000001104F8038084F8048100F08B86FF296F
:1037A00017F8018FF0D1D4F8083184F8FF90204643
:1037B000D4F80C219847D4F8203101210B44C4F8E7
:1037C00020310023E2E7D0F800112D79FF2901F024
:1037D000AD814B1CC4F80031655484F80451EEE50A
:1037E0006A68FFF74FFD20463146AA68FFF74AFD99
:1037F000E5E56F68AD683B78312B01F08280332BB3
:1038000001F0C1803A4601F0B1FF204631462A4618
:1038100001F0EAFFD3E56A6801F0A8FFCFE59C4F0D
:10382000D0F8001107F1090A4FF000090AE00B4631
:1038300001315745C4F8001104F8038084F804816D
:1038400000F0EE85FF2917F8018FF0D1D4F8083188
:1038500084F8FF902046D4F80C219847D4F8203102
:1038600001210B44C4F820310023E2E7884FD0F84F
:10387000001107F1090A4FF000090AE00B46013177
:103880005745C4F8001104F8038084F8048100F05F
:10389000CE85FF2917F8018FF0D1D4F8083184F8CC
:1038A000FF902046D4F80C219847D4F8203101210C
:1038B0000B44C4F820310023E2E7D5F80480754DAD
:1038C000D8F80870D0F8001105F1080A4FF0000987
:1038D00009E00B4601315545C4F80011E65484F85F
:1038E000046100F0AB85FF2915F8016FF1D1D4F820
:1038F000083184F8FF902046D4F80C219847D4F87A
:10390000203101210B44C4F820310023E3E76A6829
:103910000AB1FFF7B7FCAB68002B3FF450ADD4F809
:103920000011FD2901F25C8020465B49FFF7C0F9D8
:103930003146AA682046D4F82051D4F80061FFF738
:10394000A1FCD4F82031AB427FF439ADD4F800317A
:10395000B3427FF434AD023BC4F800312FE5B5F932
:103960000A30002B40F049876A684C4B51689942F5
:1039700000F03F8731462046FFF784FCD4F8003141
:10398000FF2B01F0E081591C2022C4F80011E25401
:1039900084F80421B5F90830002B00F0E486404D8E
:1039A0004FF00008AF1D09E00B460131BD42C4F8DD
:1039B0000011E65484F804613FF401ADFF2915F8C5
:1039C000016BF1D1D4F8083184F8FF802046D4F897
:1039D0000C219847D4F8203101210B44C4F8203140
:1039E0000023E3E76A68AD680AB1FFF74BFC2046A5
:1039F0007B21FEF79BFF204631462A46FFF742FC1B
:103A000020467D21FEF792FFD9E40123C0F818314A
:103A1000D5E4AB681A78392A7FF4D9AC9F683A7834
:103A20003A2A7FF4D4ACD5F804A01E49DAF8042071
:103A3000D3F804801068D7F80490BD6807F0FAFB4B
:103A4000002801F0438220461749FFF731F9D8F8E2
:103A5000043043B120463146424601F0C5FE2046BF
:103A60002021FEF763FF4A4620463146FFF70AFC55
:103A7000002D3FF4A4AC204631462A4601F0B4FEA6
:103A80009DE40123C0F8183199E400BF8BCC0000FD
:103A9000CBCC0000BFCC0000BCCC0000E8C40000D0
:103AA000ACCC0000E8CC0000F0CC0000AB681A7889
:103AB000372A7FF48CAC6A68516808684778632FAE
:103AC00001F080811278312A00F0FB831F46CA4939
:103AD00007F0B0FB7A6818B91378032B01F0108255
:103AE0002046314601F080FE6F68C4497B68D3F8F8
:103AF0000080404607F09EFB002801F0C18140464F
:103B0000BD4907F097FB002841F0CA81AB683146F8
:103B10009A68204601F068FE6B681A78312A7FF4B3
:103B20004EAC5B689A68012A7FF449AC5B681B78ED
:103B30003E2B7FF444AC20462921FEF7F7FE3EE4FD
:103B4000AF4FD0F8001107F10E0A4FF000090AE05C
:103B50000B4601315745C4F8001104F8038084F87E
:103B6000048100F0A084FF2917F8018FF0D1D4F868
:103B7000083184F8FF902046D4F80C219847D4F8F7
:103B8000203101210B44C4F820310023E2E7D0F8B2
:103B9000142114AB43F8402DC0F81431D0F8107143
:103BA0000023AA68069305950797FFF76BFB069B12
:103BB00023B931462A462046FFF7EEF8049BC4F8A5
:103BC0001431FFF7FCBBD0F814910DF1500A4F46A9
:103BD000D0F810214AF8409D0023CDF80090C0F89D
:103BE00014A1059507920693002F01F060817B6870
:103BF0001B78193B022B01F25A81AC464FF00108A9
:103C0000554604E07B681B78193B022B1ED8BB6825
:103C10004FEA0819BBB9B8F1030F00F2CB8797E858
:103C20000F000DF1500E0EEB090BABF1400E8EE8BC
:103C30000F004BF8405C01230AEB0905C4F814514E
:103C400008F10108BB603F68002FDBD1DCF80820D9
:103C5000204631466546FFF715FB009A069BC4F8DF
:103C60001421002B7FF4ABABB8F1010F01F0F5800C
:103C70000AEB081A5AF80C2C08F1FF382046314696
:103C8000FFF78AF8B8F1010FAAF1100AF2D1D4F8BF
:103C90001431204631462A1D01F0DEFBFFF78FBBB1
:103CA0008B0600F186856B681BB116F0400300F0AF
:103CB000868726F06006314605F108022046D4F8D2
:103CC000143101F0F1F9FFF77ABB6A68FFF7DAFA0D
:103CD000FFF775BB4B49FEF7EBFF204631466A689C
:103CE000FFF7D0FAFFF76BBB4749FEF7E1FF20462D
:103CF00031466A68FFF7C6FAFFF761BB4349FEF732
:103D0000D7FF204631466A68FFF7BCFAFFF757BB7A
:103D10003F49FEF7CDFF204631466A68FFF7B2FA09
:103D2000FFF74DBB3B49FEF7C3FF204631466A68AB
:103D3000FFF7A8FAFFF743BB3749FEF7B9FF6A68F8
:103D400020463146FFF79EFA20463449FEF7B0FF81
:103D500020463146AA68FFF795FAFFF730BB304995
:103D6000FEF7A6FF204631466A68FFF78BFAFFF799
:103D700026BB2C49FEF79CFF204631466A68FFF7B8
:103D800081FAFFF71CBB7E21FEF7D0FD20463146AD
:103D9000AA68FFF777FAFFF712BBAA68FFF772FA73
:103DA000FFF70DBBD5F80490B9F1000F40F04D843A
:103DB0001D4DD0F800112F1D09E00B460131BD4209
:103DC000C4F80011E65484F804613FF4F8AAFF290E
:103DD00015F8016BF1D1D4F8083184F8FF90204632
:103DE000D4F80C219847D4F8203101210B44C4F8B1
:103DF00020310023E3E700BFE0CC0000E4CC00006A
:103E000013CD0000D4CB0000D0CB0000BCCB000011
:103E1000A8CB000098CB000074CB000090CB000032
:103E200068CB00005CCB000034CD0000291DFEF7FC
:103E30009BFE00283FF4CBAA03782F2B00F0EC85E3
:103E4000D4F8105102462B683146C4F81031204690
:103E5000FFF718FAC4F81051FFF7B1BA0023D0F8F1
:103E60001491D0F83C81C0F81431C0F83C514A0795
:103E70006F6805D53B781BB9BA68062A00F0CA8777
:103E80003A4620463146FFF7FDF994F804313C2BC1
:103E900000F0728720463C21FEF748FD204631465F
:103EA000AA68FFF7EFF994F804313E2B00F05E8723
:103EB00020463E21FEF73AFDC4F81491C4F83C8137
:103EC000FFF77DBA6A68FFF7DDF97107204600F158
:103ED0001B84CE49FEF7ECFEAD682B78452B00F035
:103EE0001586204631462A46FFF7CCF9FFF767BA18
:103EF00011F0040640F0A685AB686D68002B3FF416
:103F00005EAAD0F8001105EB030809E00B46013169
:103F10004545C4F80011E75484F804713FF44FAAF2
:103F2000FF2915F8017BF1D1D4F8083184F8FF603E
:103F30002046D4F80C219847D4F8203101210B44B5
:103F4000C4F820310023E3E70022D0F81431C0F890
:103F500014216F680093002F00F0E5810DF1100A25
:103F6000904696465346D0F810C1397808F10108BA
:103F7000A1F11C0004281A60C4F814315F60C3F872
:103F800008E0C3F80CC01A4603F1100340F2C581E3
:103F9000042900F0A981022940F0AC81D7F808B0CB
:103FA0009BF80030452B08BFDBF804B09BF80030CD
:103FB0001C3B042B00F29E81B8F1040F00F0B3818A
:103FC0002B4608F1805E0EF1FF3E0AEB0E1EB14655
:103FD0005D4666469B46A446744603E0B8F1040F6E
:103FE00001F0088094E80F0004F1100E8EE80F0035
:103FF000234600221C615D609A60DE60CCF814E10B
:104000006D6874462B7808F101081C3B042BE5D938
:10401000DBF80820604649466446FFF733F93B78F1
:104020004E46042B00F06F81B8F1000F0CD04546CE
:104030000AEB081A5AF8083C013D002B00F0A28652
:10404000AAF1100A002DF5D1009BC4F81431FFF736
:10405000B6B9AF686D68002F3FF4B1A9D0F8001170
:104060002F444FF0000809E00B460131BD42C4F86F
:104070000011E65484F804613FF4A1A9FF2915F862
:10408000016BF1D1D4F8083184F8FF802046D4F8D0
:104090000C219847D4F8203101210B44C4F8203179
:1040A0000023E3E75A4FD0F8001107F1110A4FF04F
:1040B00000090AE00B4601315745C4F8001104F825
:1040C000038084F8048100F07881FF2917F8018FBC
:1040D000F0D1D4F8083184F8FF902046D4F80C21B0
:1040E0009847D4F8203101210B44C4F82031002333
:1040F000E2E74849FEF7DCFD204631466A68FFF7F3
:10410000C1F8FFF75CB94449FEF7D2FD20463146BD
:104110006A68FFF7B7F8FFF752B94049FEF7C8FDE4
:10412000204631466A68FFF7ADF8FFF748B93C49C9
:10413000FEF7BEFD204631466A68FFF7A3F8FFF799
:104140003EB911F0040640F0E4826A6853681568CD
:10415000002B3FF434A9D0F8001105EB030809E067
:104160000B4601314545C4F80011E75484F8047149
:104170003FF425A9FF2915F8017BF1D1D4F80831C6
:1041800084F8FF602046D4F80C219847D4F82031F9
:1041900001210B44C4F820310023E3E76868037869
:1041A000052B00F051834FF00008232B00F0FD8217
:1041B0002A789A4200F0F982242B00F08185D4F805
:1041C000140114ABD4F8101143F8400D00220595EA
:1041D000C4F81431079106926A6820463146FFF709
:1041E00051F8069B002B00F01F82049BC4F8143189
:1041F000B8F1000F3FF4E3A8C4F81071FFF7DFB87F
:10420000D0F814014FF00008DBE700BF38CB000006
:1042100073CC000028CC000014CC000004CC0000BB
:10422000E8CB0000D0F814C1BCF1000F00F0DC8630
:104230006246916851B950680078A0F1190EBEF13C
:10424000020F00F2DE83834200F0DF831268002A4F
:10425000EFD160469046B4E7D54FD0F8001107F192
:10426000150A4FF0000909E00B4601315745C4F823
:10427000001104F8038084F804816CD0FF2917F83A
:10428000018FF1D1D4F8083184F8FF902046D4F89A
:104290000C219847D4F8203101210B44C4F8203177
:1042A0000023E3E7C349FEF703FD204631466A6871
:1042B000FEF7E8FFFFF783B80123C0F81831FFF7D6
:1042C0007EB88A68012A7FF401AC4A6812783E2AD7
:1042D0007FF4FCAB20462821FEF728FB6B68AF6813
:1042E0005B681868FFF7F3BB14AB43F848CD03973E
:1042F000C4F81031AA6820463146FEF7C3FF3B7868
:10430000042B7FF494AE029BC4F810318CE6013785
:1043100047457FF4D4A8FFF752B87F681FB1B8F1C2
:10432000040F7FF422AE0123C4F81831FFF747B819
:104330003146AA682046FEF7A5FFD4F80011FF29F0
:1043400000F0D3834A1C5D23C4F80021635484F831
:104350000431FFF734B8984F31462046AA68FEF77B
:1043600091FF07F1050AD4F800114FF0000909E0A8
:104370000B4601315745C4F8001104F8038084F856
:10438000048113D0FF2917F8018BF1D1D4F808313B
:1043900084F8FF902046D4F80C219847D4F82031B7
:1043A00001210B44C4F820310023E3E720463146C5
:1043B0006A68FEF767FFFFF702B8204631466A6871
:1043C000FEF760FFFEF7FBBF31466A682046FEF746
:1043D00059FFD4F80011FF2900F0CA834A1C292391
:1043E000C4F80021635484F80431FEF7E8BF204686
:1043F00031466A68FEF746FFFEF7E1BF31462046C8
:10440000AA68FEF73FFF20465D21FEF78FFAFEF710
:10441000D6BF204631466A68FEF734FFFEF7CFBFAD
:10442000204631462A1D01F0F1F8FEF7C8BF2046AC
:104430003146AA68FEF726FFFEF7C1BFD8F8045040
:104440002B78613B192B40F2C781EB1913F8013C23
:10445000202B08BF07F1FF37002F3EF4B0AFD4F890
:1044600000112F444FF0000809E00B460131BD4216
:10447000C4F80011E65484F804613EF4A0AFFF29AB
:1044800015F8016BF1D1D4F8083184F8FF8020468B
:10449000D4F80C219847D4F8203101210B44C4F8FA
:1044A00020310023E3E7204631466A68FEF7EAFE42
:1044B000FEF785BF204631466A68FEF7E3FEFEF749
:1044C0007EBF6A6804A801323C4906F08FFE04A84A
:1044D00006F0BAFE18B304ADD4F800112F184FF04F
:1044E000000808E00B460131BD42C4F80011E65453
:1044F00084F8046115D0FF2915F8016BF2D1D4F8C6
:10450000083184F8FF802046D4F80C219847D4F86D
:10451000203101210B44C4F820310023E4E7D4F812
:104520000011FF2900F013834A1C7D23C4F80021E9
:10453000635484F80431FEF742BF3146204E2046D2
:104540006A68FEF79FFE06F10209D4F800114FF0E9
:10455000000808E00B4601314E45C4F80011E7544D
:1045600084F8047113D0FF2916F8017BF2D1D4F836
:10457000083184F8FF802046D4F80C219847D4F8FD
:10458000203101210B44C4F820310023E4E7AA685C
:1045900004A80132094906F029FE04A806F054FED9
:1045A00068B304ADD4F800112F184FF0000812E0E2
:1045B0005BCC000040CC000054CC0000E0CA0000FE
:1045C00090CD00000B460131BD42C4F80011E65405
:1045D00084F8046115D0FF2915F8016BF2D1D4F8E5
:1045E000083184F8FF802046D4F80C219847D4F88D
:1045F000203101210B44C4F820310023E4E7D4F832
:104600000011FF2900F0C5824A1C7D23C4F8002157
:10461000635484F80431FEF7D2BE204631466A68FE
:10462000FEF730FEFEF7CBBE31462A462046FEF7A7
:10463000B3FBDAE56B680093B8F1000F7EF438AF96
:10464000FEF7BDBE0027FEF791BEDE4DD0F800118B
:10465000AF1D4FF0000808E00B460131BD42C4F821
:104660000011E65484F8046113D0FF2915F8016B9A
:10467000F2D1D4F8083184F8FF802046D4F80C2118
:104680009847D4F8203101210B44C4F8203100238D
:10469000E4E74A4604A8CC4906F0A8FD04A806F0C1
:1046A000D3FD18B304ADD4F800112F184FF0000853
:1046B00008E00B460131BD42C4F80011E65484F80D
:1046C000046115D0FF2915F8016BF2D1D4F8083137
:1046D00084F8FF802046D4F80C219847D4F8203184
:1046E00001210B44C4F820310023E4E7D4F8001181
:1046F000FF2900F0A1834A1C7D23C4F800216354E4
:1047000084F80431FEF75BBE2E21FEF70FF9FFF7A8
:10471000E3BB6B68DF689D68002F3EF450AED0F8B5
:1047200000112F444FF0000809E00B460131BD4253
:10473000C4F80011E65484F804613EF440AEFF2949
:1047400015F8016BF1D1D4F8083184F8FF802046C8
:10475000D4F80C219847D4F8203101210B44C4F837
:1047600020310023E3E7994D9846AF1D09E00B4641
:104770000131BD42C4F80011E65484F804613EF4EE
:104780001EAEFF2915F8016BF1D1D4F8083184F879
:10479000FF802046D4F80C219847D4F8203101211D
:1047A0000B44C4F820310023E3E70546D4F8140194
:1047B00007E521F0600605F108023146D4F814310E
:1047C00000F072FC6A68002A3EF4F9AD20463146DA
:1047D000FEF758FDFEF7F3BDFF2900F0BF8320234D
:1047E0004A1CC4F80021635484F80431D8F80450FA
:1047F0002BE6D4F80011FFF7CDB8754FD0F80011B3
:1048000007F1050A4FF000090AE00B460131574550
:10481000C4F8001104F8038084F804813FF4A4A8CC
:10482000FF2917F8018BF0D1D4F8083184F8FF90F4
:104830002046D4F80C219847D4F8203101210B44AC
:10484000C4F820310023E2E7D4F82811D4F824C1B9
:10485000002915DDDCF80030984200F049820CF1A7
:1048600008020023BE4607E05CF833709046B84269
:1048700002F1080200F03D8201338B42F4D1774609
:10488000D4F82C31994280F2BA83D4F810814B1CB1
:104890000CEBC109C4F8283109F104094CF83100C6
:1048A000B8F1000F20D0D4F83431D4F838118B424D
:1048B00080F2A5834FEAC30E8C4602E0634500F008
:1048C0009C83D4F83021D8F8041072445160C9F8A0
:1048D0000020D8F800800EF1080E01339146B8F19F
:1048E000000FEBD1C4F834314FF00008011DC9F8B6
:1048F00000802046FEF738F9002840F00982FEF7D4
:1049000066BD7B683349D3F80080404606F092FCD0
:104910002B7810B9032B00F03183372B00F0748310
:10492000204631463A4600F021FF40462A4906F02B
:1049300081FC002800F089814046284906F07AFC75
:10494000074600287EF461AFD4F80031FF2B00F059
:104950003083581C2827C4F800013146E7542A4602
:10496000204684F80471FEF78DFCD4F80011FF296D
:1049700000F00F8329234A1CC4F80021635484F8F3
:104980000431FEF71CBDD0F80011FF2900F0D682DB
:10499000481C2823C4F800013A1D635420463146C0
:1049A00084F8043100F032FED4F80011FF2900F041
:1049B000B58229234A1CC4F80021635484F80431C9
:1049C000FEF723BF3CCD0000E0CA0000B4CC0000DD
:1049D000A4CC0000D8CC0000DCCC0000A8CF0000A4
:1049E0000027D4F8083167542046D4F80C219847A2
:1049F000D4F82031C4F800710133C4F82031FEF737
:104A000093BF60468846FFF7DCBB204631466A68A4
:104A1000FEF738FCFEF7D3BCD4F81C3108E0806800
:104A2000013B00283EF4D3AC02782F2A7EF4CFACB1
:104A3000002BF4DC7EF4CBAC406800287FF400AAA5
:104A4000FEF7C5BC6E68AB6806EB03084645BEF4CE
:104A5000B6AC00270DE0D4F80011FF2935D04B1C6F
:104A6000C4F80031655484F804510136B0457EF62F
:104A7000A6ACC6EB0803032B3578ECDD5F2DEAD13D
:104A800072785F2AE7D1B378552B01D01546E2E75B
:104A9000F31C9845FAD9002205E00D46434505EB85
:104AA000021200F0A582994613F8015BA5F13001CE
:104AB000C8B20928A5F1410EEFD9BEF1050FA5F145
:104AC000610100F21081373DE8E7D4F80831D4F8ED
:104AD0000C2184F8FF7020469847D4F82021012348
:104AE0001A44C4F820210021BAE70025D4F808317F
:104AF000D4F80C2184F8FF5020469847D4F8203190
:104B0000012213442946C4F820311CE42046D4492C
:104B1000FEF7CEF8A96820460131FEF7FFF82046DF
:104B2000D049FEF7C5F86D68FFF7DBB90026D0F86D
:104B30000831D4F80C2180F8FF609847D4F8202180
:104B400001231A443146C4F82021FEF743BE002554
:104B5000D4F80831D4F80C2184F8FF502046984747
:104B6000D4F82031012213442946C4F82031DCE472
:104B70000025D4F80831D4F80C2184F8FF502046E1
:104B80009847D4F82031012213442946C4F8203133
:104B900025E40025D4F80831D4F80C2184F8FF501E
:104BA00020469847D4F82031012213442946C4F8FE
:104BB00020312AE50123C4F81831FEF700BCD4F8EF
:104BC000141114AA42F8401DC4F81421D4F810712D
:104BD00026F060066A6831462046069305950797D9
:104BE000FEF750FB049A069BC4F81421002B7EF4B8
:104BF000E6AB20462021FDF799FEFFF75CB84FF0A9
:104C00000008D4F80831D4F80C2184F8FF8020463D
:104C10009847D4F82031012213444146C4F820318A
:104C2000FEF7BBBB4FF00008D4F80831D4F80C21D4
:104C300084F8FF8020469847D4F82031012213449D
:104C40004146C4F82031FEF797BB204631462A463C
:104C5000FEF718FBFEF7B3BBAA681278002A7EF4B1
:104C600085AB3C2B00F00F823146AA682046023FFC
:104C7000FEF708FB042F3EF6A2ABDFE807F01B159A
:104C80000F09030020467849FEF712F8FEF797BB9C
:104C900020467649FEF70CF8FEF791BB2046744992
:104CA000FEF706F8FEF78BBB20466C21FDF73EFEB3
:104CB000FEF785BB20467521FDF738FEFEF77FBB6A
:104CC000D4F81411426814ABD4F8100143F8401D15
:104CD00000210595C4F8143107900691002A7FF44D
:104CE0007CAAFFF779BA052900F2A981573DD5E6DC
:104CF000E046D8F80430011DD4F810712046C4F8FD
:104D00001031FDF731FF00283EF45FAB4FF0010892
:104D100003782F2B7FF449AAD4F81C3108E080686F
:104D2000013B00283EF44EAB02782F2A7EF44AABBA
:104D3000002BF4DC7EF446AB406800283EF442AB26
:104D40000378FFF732BA00261946D4F80C21D4F8BC
:104D5000083184F8FF6020469847D4F820210121CB
:104D60000A443346C4F82021FEF70EBE2046202117
:104D7000FDF7DCFDFFF79CB820462021FDF7D6FDAE
:104D8000FFF788B820462021FDF7D0FD20463146A8
:104D90005AF80C2CFEF700F8FFF752B95B21FDF72B
:104DA000C5FD20463146AA68FEF76CFA20465D2113
:104DB000FDF7BCFDFEF703BB20462D21FDF7B6FD38
:104DC000FEF7F5BA0778A7F1630EBEF1010F03D91C
:104DD000723F012F3EF676AE2046314600F0C6FC0B
:104DE00020463C21FDF7A2FDAB6820465A683146BB
:104DF000FEF748FA20461F49FDF75AFFAB683146D7
:104E000020469A68FEF73EFA20462921FDF78EFDDE
:104E1000FEF7D5BA7868184906F01EFA00287FF424
:104E20002FA831462046AA68FEF72CFA20461349DF
:104E3000FDF73EFFFFF740B80025D4F80831D4F85D
:104E40000C2184F8FF5020469847D4F820310122E5
:104E500013442946C4F820314EE4009BFEF719BFE5
:104E60003CCB00004CCB000000CD0000FCCC00008F
:104E7000F8CC0000B0CD000050CB000058CB0000B3
:104E800020465B21FDF752FDAB68314620469A680B
:104E9000FEF7F8F920465D21FDF748FDFEF73CBE20
:104EA0003A462046314600F061FCFEF72FBEAA6864
:104EB00020463146FEF7E6F9009A069BC4F8142115
:104EC000002B7EF47CAA1346FEF7E3BE4246204642
:104ED000314600F089FC20463146524600F046FC3F
:104EE0004A462046314600F07FFC20466A49FDF7DD
:104EF000DFFE204631462A4600F076FCFEF75FBA18
:104F0000936820461B783146292B1CBF0123C4F827
:104F10001831526800F068FCFEF7E6BD0027D4F8AF
:104F2000083184F8FF702046D4F80C219847D4F853
:104F3000203139460133C4F820313AE54FF00008FA
:104F4000D0F8083180F8FF80D4F80C219847D4F8C5
:104F5000203141460133C4F8203119E50025D4F849
:104F6000083184F8FF502046D4F80C219847D4F833
:104F7000203129460133C4F8203130E46B681A78B7
:104F8000012A7FF4CDACAA681278292A08BF1D46F1
:104F9000C6E40025D4F8083184F8FF502046D4F840
:104FA0000C219847D4F8203129460133C4F8203128
:104FB000E0E484F8FF001946D4F80C21D4F8083155
:104FC00020469847D4F820213B460132C4F82021DE
:104FD000BFE4314620466A6800F006FC20462F49AF
:104FE000FDF766FEFEF7EBB96046E046FFF7E9B86D
:104FF0005F2530E56446FFF796B9C4F834310123E4
:10500000C4F81831FEF7DBB96A682046314600F073
:10501000EBFB204631463A4600F0A8FBFEF7CFB93D
:105020003B2B7EF4A3A953681B78302B2FD0312B58
:105030007EF49CA91A49FDF73BFEFEF7C0B9C845AE
:10504000D6D95F2DD4D1FF2A3FF605ADD4F8001193
:10505000D5B2FF290FD1D4F8083184F8FF7020466B
:10506000D4F80C219847D4F82031C4F800710133EA
:10507000C4F8203100214B1CC4F800314E46655461
:1050800084F80451F1E42D21FDF750FCECE50549CD
:10509000FDF70EFEFEF793B9ECCC000030CD00001A
:1050A0000CCD000004CD00002DE9F84304460D4668
:1050B00016461F46002B3ED09B68002B3BD13A463C
:1050C0004FF0010E06E010F4606F65D1126892B3E4
:1050D000936883BB53686D491B78193BDBB20EFAAA
:1050E00003F0122B01EA0001F0D80029EBD094F86C
:1050F0000431202B56D0D4F80031FF2B00F0B280C1
:10510000591C2022FF29C4F80011E25484F804211C
:105110004CD14FF00008D4F80831D4F80C2184F8B1
:10512000FF8020469847D4F8202101231A444146A5
:10513000C4F820213BE00022D4F814811346C4F8BF
:105140001421294620463A4600F0A2F8D4F800116E
:10515000FF294BD028224B1CC4F80031625484F83C
:10516000042132682AB120462946FEF78BF8D4F88C
:105170000031FF2B53D05A1C2926C4F800212946A0
:10518000E6543A46204684F80461012300F080F892
:10519000C4F81481BDE8F88394F8043103F0FD02EB
:1051A000282AA6D1D4F80011FF29B2D04B1C2822FE
:1051B0004FF00009C4F80031D4F814814B46625412
:1051C000204684F80421C4F8149129463A4600F098
:1051D0005FF8D4F80031FF2B33D0591C2922FF2966
:1051E000C4F80011E25484F80421B3D1002384F8F8
:1051F000FF30D4F80C21D4F80831204698472823F2
:10520000237084F80431D4F820313268591C01230A
:10521000C4F82011C4F80031002AA4D1ABE700265D
:105220001946D4F80C21D4F8083184F8FF602046E0
:105230009847D4F82011012211443346C4F82011B4
:105240009AE71946D4F80C21D4F8083184F8FF9075
:1052500020469847D4F8202101210A444B46C4F83F
:105260002021BBE74FF000081946D4F80C21D4F8F0
:10527000083184F8FF8020469847D4F82021012186
:105280000A444346C4F820213BE700BF073104002D
:105290002DE9F84F144662B31E46D0F81831054682
:1052A000002B40F0A0800F464FF0010802E0D5F837
:1052B000183103BBA368CBB9626813781EB9A3F198
:1052C0001C01042912D9E168292BC4F80880D5F8FB
:1052D0001091C5F8101110D02A2B18D0022B20D015
:1052E00028463946FDF758FDC5F810912468002C72
:1052F000DDD1BDE8F88FBDE8F88F39460832236864
:105300002846FFF7D1FEC5F81091BDE8F88F394661
:1053100004322368284600F09FF8C5F81091BDE8D4
:10532000F88F0026D5F81481C5F814615268284614
:105330003946FDF7A7FFC5F8148117F0040823D1FB
:10534000424ED5F8001106F1020B09E00B4601317F
:105350005E45C5F8001105F803A085F804A11ED02C
:10536000FF2916F801ABF1D1D5F8083185F8FF8097
:105370002846D5F80C219847D5F8203101210B4457
:10538000C5F820310023E3E7D5F80011FF291AD032
:105390004A1C2E23C5F800216B5485F8043163683C
:1053A0009C682378452B02D11FE0646823781C3B5E
:1053B000042BFAD9394622462846FDF763FFC5F883
:1053C0001091BDE8F88FD5F80831D5F80C2185F893
:1053D000FF6028469847D5F8203101221344314612
:1053E000C5F82031D5E7BDE8F88F194ED5F8001182
:1053F00006F10D0A4FF0000B09E00B46013156454E
:10540000C5F8001105F8038085F8048113D0FF2941
:1054100016F8018BF1D1D5F8083185F8FFB0284690
:10542000D5F80C219847D5F8203101210B44C5F857
:1054300020310023E3E7A16828460131FDF76EFC27
:1054400028460449FDF734FCAFE700BF38CB000025
:105450003CCB00004CCB00002DE9F84F04460E4633
:10546000174699464BB1986878B31B68002BFAD160
:105470004A4620463146FFF70BFFD4F80031FF2B98
:1054800069D0591C2022C4F80011E25484F8042188
:10549000FF2900F095805B224B1CC4F80031625458
:1054A00084F804213A682AB131462046FDF7EAFE25
:1054B000D4F80031FF2B71D0591C5D22C4F80011C3
:1054C000E25484F80421BDE8F88F5B681B782A2B2E
:1054D00000F09080DFF830810546D4F8001108F123
:1054E000020B0AE00B46D84501F10101C4F8001196
:1054F00004F803A084F804A11BD0FF2918F801AB1D
:10550000F0D1D4F8083184F8FF502046D4F80C21AB
:105510009847D4F8203101210B44C4F82031D845F4
:105520004FF00003C4F8001104F803A084F804A1AC
:10553000E3D131464A4620460023FFF7A9FED4F8BE
:105540000011FF2919D04B1C2922C4F800316254E4
:1055500084F8042193E700251946D4F80C21D4F8E7
:10556000083184F8FF5020469847D4F820210121C3
:105570000A442B46C4F8202184E70025D4F80831DA
:10558000D4F80C2184F8FF5020469847D4F8202105
:1055900001231A442946C4F82021D5E700251946DD
:1055A000D4F80C21D4F8083184F8FF5020469847ED
:1055B000D4F8202101210A442B46C4F820217CE79D
:1055C000002384F8FF30D4F80C21D4F808312046A9
:1055D00098475B23237084F80431D4F820313A686B
:1055E000591C0123C4F82011C4F80031002A7FF4AB
:1055F0005BAF61E7034631464A462046FFF748FE67
:10560000D4F8001144E700BF2CCD0000F0B50446EB
:10561000D0F83C0183B00E46154638B1D4F81021BD
:1056200002AB43F8082D0190C4F810312A681378B2
:10563000042B0BD031462046FDF724FED4F83C3134
:1056400013B1009BC4F8103103B0F0BD526820467E
:105650003146FDF717FED4F83C3113B1009BC4F876
:10566000103194F804313C2B43D0D4F80011FF29B9
:105670001DD04A1C3C23C4F80021635484F8043133
:105680002B6831469A682046FDF7FCFD94F80431FA
:105690003E2B3AD0D4F80011FF2919D04A1C3E23E2
:1056A000C4F80021635484F8043103B0F0BD00272E
:1056B000D4F80831D4F80C2184F8FF7020469847BC
:1056C000D4F82031012213443946C4F82031D1E7FF
:1056D0000025D4F80831D4F80C2184F8FF50204676
:1056E0009847D4F82031012213442946C4F82031C8
:1056F000D5E7D4F80031FF2B13D0591C2022C4F871
:105700000011E25484F80421B1E7D4F80031FF2BF2
:1057100019D0591C2022C4F80011E25484F8042145
:10572000BAE700271946D4F80C21D4F8083184F8D8
:10573000FF7020469847D4F8202101210A443B46B7
:10574000C4F82021DAE700251946D4F80C21D4F852
:10575000083184F8FF5020469847D4F820210121D1
:105760000A442B46C4F82021D4E700BF2DE9F041BC
:105770001578312D03D0BDE8F041FDF783BD5368A6
:105780009F685D686FB30446D0F800112F444FF056
:10579000000809E00B46BD4201F10101C4F8001107
:1057A000E65484F804611AD0FF2915F8016BF1D191
:1057B000D4F8083184F8FF802046D4F80C219847AB
:1057C000D4F8203101210B44C4F82031BD424FF000
:1057D0000003C4F80011E65484F80461E4D1BDE884
:1057E000F081BDE8F08100BFF8B513780446012BC5
:1057F00021D9302B1FD0062B1DD0D0F800310E46FA
:10580000FF2B15462DD05A1C2827C4F800213146FD
:10581000E7542A46204684F80471FDF733FDD4F896
:105820000011FF290CD04A1C2923C4F8002163541D
:1058300084F80431F8BD2046BDE8F840FDF722BDEC
:105840000025D4F80831D4F80C2184F8FF50204604
:105850009847D4F82031012213442946C4F8203156
:10586000E2E700271946D4F80C21D4F8083184F86F
:10587000FF709847D4F82011012211443B46C4F828
:105880002011C1E770B5C36804461A784C2A01D0CC
:10589000002070BD5A1CC26059785F2937D05A2940
:1058A0000CD10132E2602046002103F02DF9E268BC
:1058B0001378452BECD10132E26070BD00F042F864
:1058C00005460028E4D00378272B30D0E1680B7818
:1058D0006E2B26D03B26452B32D0002BD8D00A4643
:1058E00001E0002BD4D00132E2601378452BF8D1CF
:1058F000521A2046FCF796FE2A46034631462046B9
:10590000FCF744FEE2681378452BC1D1D3E79A1C1B
:10591000C2609B785A2BC4D0452B4FF00000B7D102
:10592000C9E74A1CE2604B783C261146D3E743683E
:105930001A7C002ACAD05A68236B9B1A2363C5E7D6
:105940000022D6E72DE9F04F0446C06883B0037803
:10595000722B55D0562B53D04B2B51D0A3F1300284
:105960004A2A00F2C380DFE812F0EB00EB00EB0004
:10597000EB00EB00EB00EB00EB00EB00EB00C100F9
:10598000C100C100C100C100C100C100F100C100DF
:105990000F013101C1001D012301C100C100C1007F
:1059A000C100C100A101EB00B901C701C100D501CF
:1059B000E3013B020402C100C100C100C100EB00D1
:1059C000C100C100C100C100C100C1001602160221
:1059D0001602160216021602160216021602160207
:1059E000C1001602160216021602C100C100C10053
:1059F00016021602D100160216021602160216022E
:105A0000204601A90022FCF727FE054600286DD09C
:105A1000E36820461B78462B6DD0FFF793FF286084
:105A2000002863D003781F3B012B68D9019A002A14
:105A30005CD0236A616A8B4258DAE069591C40F8ED
:105A40002320019D2162284603B0BDE8F08F012587
:105A5000676B656383784C2B00F0A584542B00F0B2
:105A60009D84732B00F0B583662B00F09283A3F125
:105A70003002092A40F21D836F2B00F01483692B3A
:105A800000F0BA83742B00F0D984204601F048F965
:105A90000546002800F062840378312B00F0BF83B4
:105AA000322B00F0BC84332B40F05884E3681A7822
:105AB0005F2A01F09C80204604F074FF03462A46CA
:105AC00020463521FCF762FD0246676320464121EE
:105AD0000023FCF75BFD0546019038B1E3681A78B6
